{
  "contractName": "ProximaTeamTokenVesting",
  "abi": [
    {
      "inputs": [
        {
          "internalType": "contract IERC20",
          "name": "_token",
          "type": "address"
        }
      ],
      "stateMutability": "nonpayable",
      "type": "constructor"
    },
    {
      "anonymous": false,
      "inputs": [
        {
          "indexed": true,
          "internalType": "address",
          "name": "previousOwner",
          "type": "address"
        },
        {
          "indexed": true,
          "internalType": "address",
          "name": "newOwner",
          "type": "address"
        }
      ],
      "name": "OwnershipTransferred",
      "type": "event"
    },
    {
      "anonymous": false,
      "inputs": [
        {
          "indexed": true,
          "internalType": "uint256",
          "name": "vestingId",
          "type": "uint256"
        },
        {
          "indexed": true,
          "internalType": "address",
          "name": "beneficiary",
          "type": "address"
        },
        {
          "indexed": false,
          "internalType": "uint256",
          "name": "amount",
          "type": "uint256"
        }
      ],
      "name": "TokenVestingAdded",
      "type": "event"
    },
    {
      "anonymous": false,
      "inputs": [
        {
          "indexed": true,
          "internalType": "uint256",
          "name": "vestingId",
          "type": "uint256"
        },
        {
          "indexed": true,
          "internalType": "address",
          "name": "beneficiary",
          "type": "address"
        },
        {
          "indexed": false,
          "internalType": "uint256",
          "name": "amount",
          "type": "uint256"
        }
      ],
      "name": "TokenVestingReleased",
      "type": "event"
    },
    {
      "anonymous": false,
      "inputs": [
        {
          "indexed": true,
          "internalType": "uint256",
          "name": "vestingId",
          "type": "uint256"
        },
        {
          "indexed": true,
          "internalType": "address",
          "name": "beneficiary",
          "type": "address"
        },
        {
          "indexed": false,
          "internalType": "uint256",
          "name": "amount",
          "type": "uint256"
        }
      ],
      "name": "TokenVestingRemoved",
      "type": "event"
    },
    {
      "inputs": [],
      "name": "owner",
      "outputs": [
        {
          "internalType": "address",
          "name": "",
          "type": "address"
        }
      ],
      "stateMutability": "view",
      "type": "function",
      "constant": true
    },
    {
      "inputs": [],
      "name": "renounceOwnership",
      "outputs": [],
      "stateMutability": "nonpayable",
      "type": "function"
    },
    {
      "inputs": [
        {
          "internalType": "address",
          "name": "newOwner",
          "type": "address"
        }
      ],
      "name": "transferOwnership",
      "outputs": [],
      "stateMutability": "nonpayable",
      "type": "function"
    },
    {
      "inputs": [
        {
          "internalType": "uint256",
          "name": "_vestingId",
          "type": "uint256"
        }
      ],
      "name": "removeVesting",
      "outputs": [],
      "stateMutability": "nonpayable",
      "type": "function"
    },
    {
      "inputs": [
        {
          "internalType": "uint256",
          "name": "_vestingId",
          "type": "uint256"
        }
      ],
      "name": "releaseVesting",
      "outputs": [],
      "stateMutability": "nonpayable",
      "type": "function"
    },
    {
      "inputs": [
        {
          "internalType": "uint256",
          "name": "_vestingId",
          "type": "uint256"
        }
      ],
      "name": "getVesting",
      "outputs": [
        {
          "components": [
            {
              "internalType": "address",
              "name": "beneficiary",
              "type": "address"
            },
            {
              "internalType": "uint256",
              "name": "releaseTime",
              "type": "uint256"
            },
            {
              "internalType": "uint256",
              "name": "amount",
              "type": "uint256"
            },
            {
              "internalType": "bool",
              "name": "released",
              "type": "bool"
            }
          ],
          "internalType": "struct ProximaTeamTokenVesting.Vesting",
          "name": "",
          "type": "tuple"
        }
      ],
      "stateMutability": "view",
      "type": "function",
      "constant": true
    },
    {
      "inputs": [],
      "name": "getVestingStat",
      "outputs": [
        {
          "internalType": "uint256",
          "name": "",
          "type": "uint256"
        },
        {
          "internalType": "uint256",
          "name": "",
          "type": "uint256"
        },
        {
          "internalType": "uint256",
          "name": "",
          "type": "uint256"
        }
      ],
      "stateMutability": "view",
      "type": "function",
      "constant": true
    },
    {
      "inputs": [],
      "name": "getPxaBalance",
      "outputs": [
        {
          "internalType": "uint256",
          "name": "",
          "type": "uint256"
        }
      ],
      "stateMutability": "view",
      "type": "function",
      "constant": true
    },
    {
      "inputs": [
        {
          "internalType": "uint256",
          "name": "_amount",
          "type": "uint256"
        }
      ],
      "name": "retrieveExcessTokens",
      "outputs": [],
      "stateMutability": "nonpayable",
      "type": "function"
    }
  ],
  "bytecode": "0x60806040523480156200001157600080fd5b5060405162001e9938038062001e99833981016040819052620000349162000f76565b60006200004062000e13565b600080546001600160a01b0319166001600160a01b0383169081178255604051929350917f8be0079c531659141344cd1fd0a4f28419497f9722a3daafe3b4186f6b6457e0908290a3506001600160a01b038116620000bc5760405162461bcd60e51b8152600401620000b39062000fd6565b60405180910390fd5b600180546001600160a01b0319166001600160a01b03831617905560006002819055600455670de0b6b3a7640000620151806200011460008051602062001df98339815191524269025a5419af66253c000062000e17565b6200013460008051602062001e398339815191524261208d850262000e17565b6200015460008051602062001e598339815191524261208d850262000e17565b6200017460008051602062001e798339815191524261208d850262000e17565b6200019460008051602062001e198339815191524261208d850262000e17565b620001b960008051602062001df983398151915242601e840201612b67850262000e17565b620001de60008051602062001e3983398151915242601e84020161208d850262000e17565b6200020360008051602062001e5983398151915242601e84020161208d850262000e17565b6200022860008051602062001e7983398151915242601e84020161208d850262000e17565b6200024d60008051602062001e1983398151915242601e84020161208d850262000e17565b6200027260008051602062001df983398151915242603c840201612b67850262000e17565b6200029760008051602062001e3983398151915242603c84020161208d850262000e17565b620002bc60008051602062001e5983398151915242603c84020161208d850262000e17565b620002e160008051602062001e7983398151915242603c84020161208d850262000e17565b6200030660008051602062001e1983398151915242603c84020161208d850262000e17565b6200032b60008051602062001df983398151915242605a840201612b67850262000e17565b6200035060008051602062001e3983398151915242605a84020161208d850262000e17565b6200037560008051602062001e5983398151915242605a84020161208d850262000e17565b6200039a60008051602062001e7983398151915242605a84020161208d850262000e17565b620003bf60008051602062001e1983398151915242605a84020161208d850262000e17565b620003e460008051602062001df9833981519152426078840201612b67850262000e17565b6200040960008051602062001e3983398151915242607884020161208d850262000e17565b6200042e60008051602062001e5983398151915242607884020161208d850262000e17565b6200045360008051602062001e7983398151915242607884020161208d850262000e17565b6200047860008051602062001e1983398151915242607884020161208d850262000e17565b6200049d60008051602062001df9833981519152426096840201612b67850262000e17565b620004c260008051602062001e3983398151915242609684020161208d850262000e17565b620004e760008051602062001e5983398151915242609684020161208d850262000e17565b6200050c60008051602062001e7983398151915242609684020161208d850262000e17565b6200053160008051602062001e1983398151915242609684020161208d850262000e17565b6200055660008051602062001df98339815191524260b4840201612b67850262000e17565b6200057b60008051602062001e398339815191524260b484020161208d850262000e17565b620005a060008051602062001e598339815191524260b484020161208d850262000e17565b620005c560008051602062001e798339815191524260b484020161208d850262000e17565b620005ea60008051602062001e198339815191524260b484020161208d850262000e17565b6200060f60008051602062001df98339815191524260d2840201612b67850262000e17565b6200063460008051602062001e398339815191524260d284020161208d850262000e17565b6200065960008051602062001e598339815191524260d284020161208d850262000e17565b6200067e60008051602062001e798339815191524260d284020161208d850262000e17565b620006a360008051602062001e198339815191524260d284020161208d850262000e17565b620006c860008051602062001df98339815191524260f0840201612b67850262000e17565b620006ed60008051602062001e398339815191524260f084020161208d850262000e17565b6200071260008051602062001e598339815191524260f084020161208d850262000e17565b6200073760008051602062001e798339815191524260f084020161208d850262000e17565b6200075c60008051602062001e198339815191524260f084020161208d850262000e17565b6200078260008051602062001df98339815191524261010e840201612b67850262000e17565b620007a860008051602062001e398339815191524261010e84020161208d850262000e17565b620007ce60008051602062001e598339815191524261010e84020161208d850262000e17565b620007f460008051602062001e798339815191524261010e84020161208d850262000e17565b6200081a60008051602062001e198339815191524261010e84020161208d850262000e17565b6200084060008051602062001df98339815191524261012c840201612b67850262000e17565b6200086660008051602062001e398339815191524261012c84020161208d850262000e17565b6200088c60008051602062001e598339815191524261012c84020161208d850262000e17565b620008b260008051602062001e798339815191524261012c84020161208d850262000e17565b620008d860008051602062001e198339815191524261012c84020161208d850262000e17565b620008fe60008051602062001df98339815191524261014a840201612b67850262000e17565b6200092460008051602062001e398339815191524261014a84020161208d850262000e17565b6200094a60008051602062001e598339815191524261014a84020161208d850262000e17565b6200097060008051602062001e798339815191524261014a84020161208d850262000e17565b6200099660008051602062001e198339815191524261014a84020161208d850262000e17565b620009bc60008051602062001df983398151915242610168840201612b67850262000e17565b620009e260008051602062001e398339815191524261016884020161208d850262000e17565b62000a0860008051602062001e598339815191524261016884020161208d850262000e17565b62000a2e60008051602062001e798339815191524261016884020161208d850262000e17565b62000a5460008051602062001e198339815191524261016884020161208d850262000e17565b62000a7a60008051602062001df983398151915242610186840201612b67850262000e17565b62000aa060008051602062001e398339815191524261018684020161208d850262000e17565b62000ac660008051602062001e598339815191524261018684020161208d850262000e17565b62000aec60008051602062001e798339815191524261018684020161208d850262000e17565b62000b1260008051602062001e198339815191524261018684020161208d850262000e17565b62000b3860008051602062001df9833981519152426101a4840201612b67850262000e17565b62000b5e60008051602062001e39833981519152426101a484020161208d850262000e17565b62000b8460008051602062001e59833981519152426101a484020161208d850262000e17565b62000baa60008051602062001e79833981519152426101a484020161208d850262000e17565b62000bd060008051602062001e19833981519152426101a484020161208d850262000e17565b62000bf660008051602062001df9833981519152426101c2840201612b67850262000e17565b62000c1c60008051602062001e39833981519152426101c284020161208d850262000e17565b62000c4260008051602062001e59833981519152426101c284020161208d850262000e17565b62000c6860008051602062001e79833981519152426101c284020161208d850262000e17565b62000c8e60008051602062001e19833981519152426101c284020161208d850262000e17565b62000cb460008051602062001df9833981519152426101e0840201612b67850262000e17565b62000cda60008051602062001e39833981519152426101e084020161208d850262000e17565b62000d0060008051602062001e59833981519152426101e084020161208d850262000e17565b62000d2660008051602062001e79833981519152426101e084020161208d850262000e17565b62000d4c60008051602062001e19833981519152426101e084020161208d850262000e17565b62000d7260008051602062001df9833981519152426101fe840201612b67850262000e17565b62000d9860008051602062001e39833981519152426101fe84020161208d850262000e17565b62000dbe60008051602062001e59833981519152426101fe84020161208d850262000e17565b62000de460008051602062001e79833981519152426101fe84020161208d850262000e17565b62000e0a60008051602062001e19833981519152426101fe84020161208d850262000e17565b5050506200104d565b3390565b6001600160a01b03831662000e405760405162461bcd60e51b8152600401620000b3906200100d565b62000e5c8160025462000f4760201b620006b11790919060201c565b6002908155604080516080810182526001600160a01b03868116825260208083018781528385018781526000606086018181526004805483526005865297909120955186546001600160a01b0319169516949094178555905160018086019190915590519584019590955590516003909201805460ff191692151592909217909155905462000ef692909162000f47811b620006b117901c565b600481905550826001600160a01b03166004547ffbd41c6118c5ed14f196c270a1793d95e8517e43031d9bb61aa71cb2a38bf5578360405162000f3a919062001044565b60405180910390a3505050565b60008282018381101562000f6f5760405162461bcd60e51b8152600401620000b39062000f9f565b9392505050565b60006020828403121562000f88578081fd5b81516001600160a01b038116811462000f6f578182fd5b6020808252601b908201527f536166654d6174683a206164646974696f6e206f766572666c6f770000000000604082015260600190565b6020808252601a908201527f4572723a20496e76616c696420746f6b656e2061646472657373000000000000604082015260600190565b60208082526018908201527f4572723a20496e76616c69642062656e65666963696172790000000000000000604082015260600190565b90815260200190565b610d9c806200105d6000396000f3fe608060405234801561001057600080fd5b50600436106100935760003560e01c8063715018a611610066578063715018a6146100fe5780638da5cb5b14610106578063b4afa3991461011b578063f2fde38b14610132578063f4bd688b1461014557610093565b80631bcde4ec146100985780634c8865dd146100ad578063615155dd146100cb5780636eb48096146100eb575b600080fd5b6100ab6100a6366004610984565b610158565b005b6100b561026e565b6040516100c29190610d17565b60405180910390f35b6100de6100d9366004610984565b6102f4565b6040516100c29190610ce1565b6100ab6100f9366004610984565b610371565b6100ab610404565b61010e61048d565b6040516100c291906109d0565b61012361049c565b6040516100c293929190610d20565b6100ab61014036600461093d565b6104aa565b6100ab610153366004610984565b61056a565b6101606106dd565b6001600160a01b031661017161048d565b6001600160a01b0316146101a05760405162461bcd60e51b815260040161019790610bc4565b60405180910390fd5b600081815260056020526040902080546001600160a01b03166101d55760405162461bcd60e51b815260040161019790610bf9565b600381015460ff16156101fa5760405162461bcd60e51b815260040161019790610c60565b60038101805460ff19166001179055600280820154905461021a916106e1565b60029081558154908201546040516001600160a01b039092169184917fdc8b9c8cc0c8d05e10824e69ee88995716a539af94a1c60fb9898367f613477c916102629190610d17565b60405180910390a35050565b6001546040516370a0823160e01b81526000916001600160a01b0316906370a082319061029f9030906004016109d0565b60206040518083038186803b1580156102b757600080fd5b505afa1580156102cb573d6000803e3d6000fd5b505050506040513d601f19601f820116820180604052508101906102ef919061099c565b905090565b6102fc61090a565b60045482111561031e5760405162461bcd60e51b815260040161019790610b61565b50600090815260056020908152604091829020825160808101845281546001600160a01b0316815260018201549281019290925260028101549282019290925260039091015460ff161515606082015290565b6103796106dd565b6001600160a01b031661038a61048d565b6001600160a01b0316146103b05760405162461bcd60e51b815260040161019790610bc4565b6103c46002546103be61026e565b906106e1565b8111156103e35760405162461bcd60e51b815260040161019790610aad565b6104016103ee61048d565b6001546001600160a01b03169083610709565b50565b61040c6106dd565b6001600160a01b031661041d61048d565b6001600160a01b0316146104435760405162461bcd60e51b815260040161019790610bc4565b600080546040516001600160a01b03909116907f8be0079c531659141344cd1fd0a4f28419497f9722a3daafe3b4186f6b6457e0908390a3600080546001600160a01b0319169055565b6000546001600160a01b031690565b600254600354600454909192565b6104b26106dd565b6001600160a01b03166104c361048d565b6001600160a01b0316146104e95760405162461bcd60e51b815260040161019790610bc4565b6001600160a01b03811661050f5760405162461bcd60e51b815260040161019790610a30565b600080546040516001600160a01b03808516939216917f8be0079c531659141344cd1fd0a4f28419497f9722a3daafe3b4186f6b6457e091a3600080546001600160a01b0319166001600160a01b0392909216919091179055565b600081815260056020526040902080546001600160a01b031661059f5760405162461bcd60e51b815260040161019790610bf9565b600381015460ff16156105c45760405162461bcd60e51b815260040161019790610c60565b80600101544210156105e85760405162461bcd60e51b815260040161019790610b8d565b80600201546105f561026e565b10156106135760405162461bcd60e51b815260040161019790610aad565b6003808201805460ff1916600117905560028201549054610633916106b1565b6003556002808201549054610647916106e1565b600290815581549082015460015461066d926001600160a01b0391821692911690610709565b805460028201546040516001600160a01b039092169184917f295ac83a3c5cf518a125ba974be97dca6a668bae6dd90b6902b2618cdff1fcc6916102629190610d17565b6000828201838110156106d65760405162461bcd60e51b815260040161019790610a76565b9392505050565b3390565b6000828211156107035760405162461bcd60e51b815260040161019790610ae4565b50900390565b61075f8363a9059cbb60e01b84846040516024016107289291906109e4565b60408051601f198184030181529190526020810180516001600160e01b03166001600160e01b031990931692909217909152610764565b505050565b60606107b9826040518060400160405280602081526020017f5361666545524332303a206c6f772d6c6576656c2063616c6c206661696c6564815250856001600160a01b03166107f39092919063ffffffff16565b80519091501561075f57808060200190518101906107d79190610964565b61075f5760405162461bcd60e51b815260040161019790610c97565b6060610802848460008561080a565b949350505050565b60608247101561082c5760405162461bcd60e51b815260040161019790610b1b565b610835856108cb565b6108515760405162461bcd60e51b815260040161019790610c29565b60006060866001600160a01b0316858760405161086e91906109b4565b60006040518083038185875af1925050503d80600081146108ab576040519150601f19603f3d011682016040523d82523d6000602084013e6108b0565b606091505b50915091506108c08282866108d1565b979650505050505050565b3b151590565b606083156108e05750816106d6565b8251156108f05782518084602001fd5b8160405162461bcd60e51b815260040161019791906109fd565b604051806080016040528060006001600160a01b0316815260200160008152602001600081526020016000151581525090565b60006020828403121561094e578081fd5b81356001600160a01b03811681146106d6578182fd5b600060208284031215610975578081fd5b815180151581146106d6578182fd5b600060208284031215610995578081fd5b5035919050565b6000602082840312156109ad578081fd5b5051919050565b600082516109c6818460208701610d36565b9190910192915050565b6001600160a01b0391909116815260200190565b6001600160a01b03929092168252602082015260400190565b6000602082528251806020840152610a1c816040850160208701610d36565b601f01601f19169190910160400192915050565b60208082526026908201527f4f776e61626c653a206e6577206f776e657220697320746865207a65726f206160408201526564647265737360d01b606082015260800190565b6020808252601b908201527f536166654d6174683a206164646974696f6e206f766572666c6f770000000000604082015260600190565b60208082526017908201527f4572723a20496e73756666696369656e742066756e6473000000000000000000604082015260600190565b6020808252601e908201527f536166654d6174683a207375627472616374696f6e206f766572666c6f770000604082015260600190565b60208082526026908201527f416464726573733a20696e73756666696369656e742062616c616e636520666f6040820152651c8818d85b1b60d21b606082015260800190565b6020808252601290820152714572723a204f7574206f6620626f756e647360701b604082015260600190565b6020808252601a908201527f4572723a20546f6b656e73206e6f742076657374656420796574000000000000604082015260600190565b6020808252818101527f4f776e61626c653a2063616c6c6572206973206e6f7420746865206f776e6572604082015260600190565b602080825260169082015275115c9c8e88125b9d985b1a59081d995cdd1a5b99d25160521b604082015260600190565b6020808252601d908201527f416464726573733a2063616c6c20746f206e6f6e2d636f6e7472616374000000604082015260600190565b6020808252601d908201527f4572723a2056657374696e6720616c72656164792072656c6561736564000000604082015260600190565b6020808252602a908201527f5361666545524332303a204552433230206f7065726174696f6e20646964206e6040820152691bdd081cdd58d8d9595960b21b606082015260800190565b81516001600160a01b03168152602080830151908201526040808301519082015260609182015115159181019190915260800190565b90815260200190565b9283526020830191909152604082015260600190565b60005b83811015610d51578181015183820152602001610d39565b83811115610d60576000848401525b5050505056fea2646970667358221220956a0c3f2e6ecc605cf8f80d4e387d10885e9790060e7a9164ccef7ad16de2a364736f6c634300060c0033000000000000000000000000690a4f012c626339083c5a920e3f7671527373160000000000000000000000001f606f8f1ab545b65795b2a09b8ae9343343edcd000000000000000000000000c2c746849fe4c56fce5934afcb561947032e830c000000000000000000000000760d4836bbf9f2587726f95c191469288b2f7e17000000000000000000000000ebb646657e045de7c8209b38479303806d917780",
  "immutableReferences": {},
  "source": "// SPDX-License-Identifier: MIT\npragma solidity 0.6.12;\npragma experimental ABIEncoderV2;\n\nimport \"@openzeppelin/contracts/token/ERC20/IERC20.sol\";\nimport \"@openzeppelin/contracts/access/Ownable.sol\";\nimport \"@openzeppelin/contracts/math/SafeMath.sol\";\nimport \"@openzeppelin/contracts/token/ERC20/SafeERC20.sol\";\n\n/**\n * @title ProximaTeamTokenVesting\n * @author ProximusAlpha\n */\ncontract ProximaTeamTokenVesting is Ownable {\n    using SafeMath for uint256;\n    using SafeERC20 for IERC20;\n\n    /// @dev Proxima Token\n    IERC20 private proximaToken;\n\n    /// @dev Number of token added for vesting\n    uint256 private totalTokenToVest;\n\n    /// @dev Number of tokens released\n    uint256 private totalTokenReleased;\n\n    /// @dev Vesting ID\n    uint256 private vestingId;\n\n    /// @dev Vesting state struct\n    struct Vesting {\n        address beneficiary;\n        uint256 releaseTime;\n        uint256 amount;\n        bool released;\n    }\n\n    /// @dev Vesting map\n    mapping(uint256 => Vesting) private vestings;\n\n    /// @dev An event thats emitted on vesting release\n    event TokenVestingReleased(\n        uint256 indexed vestingId,\n        address indexed beneficiary,\n        uint256 amount\n    );\n    /// @dev An event thats emitted on new vesting\n    event TokenVestingAdded(\n        uint256 indexed vestingId,\n        address indexed beneficiary,\n        uint256 amount\n    );\n    /// @dev EAn event thats emitted on vesting removal\n    event TokenVestingRemoved(\n        uint256 indexed vestingId,\n        address indexed beneficiary,\n        uint256 amount\n    );\n\n    /**\n     * @dev Initializer\n     * @param _token : Proxima token\n     */\n    constructor(IERC20 _token) public {\n        require(address(_token) != address(0x0), \"Err: Invalid token address\");\n        proximaToken = _token;\n        totalTokenToVest = 0;\n        vestingId = 0;\n            uint256 SCALING_FACTOR = 10**18;\n            uint256 day = 1 days;\n            \n\n        addNewVesting(0x690a4f012C626339083c5a920e3f767152737316, now + 0, 11111 * SCALING_FACTOR);\n        addNewVesting(0xc2C746849Fe4C56fCE5934AFCb561947032E830C, now + 0, 8333 * SCALING_FACTOR);\n        addNewVesting(0x760D4836Bbf9f2587726F95C191469288B2f7E17, now + 0, 8333 * SCALING_FACTOR);\n        addNewVesting(0xeBB646657E045de7c8209b38479303806D917780, now + 0, 8333 * SCALING_FACTOR);\n        addNewVesting(0x1f606F8f1AB545B65795b2a09b8ae9343343EDCD, now + 0, 8333 * SCALING_FACTOR);\n        addNewVesting(0x690a4f012C626339083c5a920e3f767152737316, now + 30 * day, 11111 * SCALING_FACTOR);\n        addNewVesting(0xc2C746849Fe4C56fCE5934AFCb561947032E830C, now + 30 * day, 8333 * SCALING_FACTOR);\n        addNewVesting(0x760D4836Bbf9f2587726F95C191469288B2f7E17, now + 30 * day, 8333 * SCALING_FACTOR);\n        addNewVesting(0xeBB646657E045de7c8209b38479303806D917780, now + 30 * day, 8333 * SCALING_FACTOR);\n        addNewVesting(0x1f606F8f1AB545B65795b2a09b8ae9343343EDCD, now + 30 * day, 8333 * SCALING_FACTOR);\n        addNewVesting(0x690a4f012C626339083c5a920e3f767152737316, now + 60 * day, 11111 * SCALING_FACTOR);\n        addNewVesting(0xc2C746849Fe4C56fCE5934AFCb561947032E830C, now + 60 * day, 8333 * SCALING_FACTOR);\n        addNewVesting(0x760D4836Bbf9f2587726F95C191469288B2f7E17, now + 60 * day, 8333 * SCALING_FACTOR);\n        addNewVesting(0xeBB646657E045de7c8209b38479303806D917780, now + 60 * day, 8333 * SCALING_FACTOR);\n        addNewVesting(0x1f606F8f1AB545B65795b2a09b8ae9343343EDCD, now + 60 * day, 8333 * SCALING_FACTOR);\n        addNewVesting(0x690a4f012C626339083c5a920e3f767152737316, now + 90 * day, 11111 * SCALING_FACTOR);\n        addNewVesting(0xc2C746849Fe4C56fCE5934AFCb561947032E830C, now + 90 * day, 8333 * SCALING_FACTOR);\n        addNewVesting(0x760D4836Bbf9f2587726F95C191469288B2f7E17, now + 90 * day, 8333 * SCALING_FACTOR);\n        addNewVesting(0xeBB646657E045de7c8209b38479303806D917780, now + 90 * day, 8333 * SCALING_FACTOR);\n        addNewVesting(0x1f606F8f1AB545B65795b2a09b8ae9343343EDCD, now + 90 * day, 8333 * SCALING_FACTOR);\n        addNewVesting(0x690a4f012C626339083c5a920e3f767152737316, now + 120 * day, 11111 * SCALING_FACTOR);\n        addNewVesting(0xc2C746849Fe4C56fCE5934AFCb561947032E830C, now + 120 * day, 8333 * SCALING_FACTOR);\n        addNewVesting(0x760D4836Bbf9f2587726F95C191469288B2f7E17, now + 120 * day, 8333 * SCALING_FACTOR);\n        addNewVesting(0xeBB646657E045de7c8209b38479303806D917780, now + 120 * day, 8333 * SCALING_FACTOR);\n        addNewVesting(0x1f606F8f1AB545B65795b2a09b8ae9343343EDCD, now + 120 * day, 8333 * SCALING_FACTOR);\n        addNewVesting(0x690a4f012C626339083c5a920e3f767152737316, now + 150 * day, 11111 * SCALING_FACTOR);\n        addNewVesting(0xc2C746849Fe4C56fCE5934AFCb561947032E830C, now + 150 * day, 8333 * SCALING_FACTOR);\n        addNewVesting(0x760D4836Bbf9f2587726F95C191469288B2f7E17, now + 150 * day, 8333 * SCALING_FACTOR);\n        addNewVesting(0xeBB646657E045de7c8209b38479303806D917780, now + 150 * day, 8333 * SCALING_FACTOR);\n        addNewVesting(0x1f606F8f1AB545B65795b2a09b8ae9343343EDCD, now + 150 * day, 8333 * SCALING_FACTOR);\n        addNewVesting(0x690a4f012C626339083c5a920e3f767152737316, now + 180 * day, 11111 * SCALING_FACTOR);\n        addNewVesting(0xc2C746849Fe4C56fCE5934AFCb561947032E830C, now + 180 * day, 8333 * SCALING_FACTOR);\n        addNewVesting(0x760D4836Bbf9f2587726F95C191469288B2f7E17, now + 180 * day, 8333 * SCALING_FACTOR);\n        addNewVesting(0xeBB646657E045de7c8209b38479303806D917780, now + 180 * day, 8333 * SCALING_FACTOR);\n        addNewVesting(0x1f606F8f1AB545B65795b2a09b8ae9343343EDCD, now + 180 * day, 8333 * SCALING_FACTOR);\n        addNewVesting(0x690a4f012C626339083c5a920e3f767152737316, now + 210 * day, 11111 * SCALING_FACTOR);\n        addNewVesting(0xc2C746849Fe4C56fCE5934AFCb561947032E830C, now + 210 * day, 8333 * SCALING_FACTOR);\n        addNewVesting(0x760D4836Bbf9f2587726F95C191469288B2f7E17, now + 210 * day, 8333 * SCALING_FACTOR);\n        addNewVesting(0xeBB646657E045de7c8209b38479303806D917780, now + 210 * day, 8333 * SCALING_FACTOR);\n        addNewVesting(0x1f606F8f1AB545B65795b2a09b8ae9343343EDCD, now + 210 * day, 8333 * SCALING_FACTOR);\n        addNewVesting(0x690a4f012C626339083c5a920e3f767152737316, now + 240 * day, 11111 * SCALING_FACTOR);\n        addNewVesting(0xc2C746849Fe4C56fCE5934AFCb561947032E830C, now + 240 * day, 8333 * SCALING_FACTOR);\n        addNewVesting(0x760D4836Bbf9f2587726F95C191469288B2f7E17, now + 240 * day, 8333 * SCALING_FACTOR);\n        addNewVesting(0xeBB646657E045de7c8209b38479303806D917780, now + 240 * day, 8333 * SCALING_FACTOR);\n        addNewVesting(0x1f606F8f1AB545B65795b2a09b8ae9343343EDCD, now + 240 * day, 8333 * SCALING_FACTOR);\n        addNewVesting(0x690a4f012C626339083c5a920e3f767152737316, now + 270 * day, 11111 * SCALING_FACTOR);\n        addNewVesting(0xc2C746849Fe4C56fCE5934AFCb561947032E830C, now + 270 * day, 8333 * SCALING_FACTOR);\n        addNewVesting(0x760D4836Bbf9f2587726F95C191469288B2f7E17, now + 270 * day, 8333 * SCALING_FACTOR);\n        addNewVesting(0xeBB646657E045de7c8209b38479303806D917780, now + 270 * day, 8333 * SCALING_FACTOR);\n        addNewVesting(0x1f606F8f1AB545B65795b2a09b8ae9343343EDCD, now + 270 * day, 8333 * SCALING_FACTOR);\n        addNewVesting(0x690a4f012C626339083c5a920e3f767152737316, now + 300 * day, 11111 * SCALING_FACTOR);\n        addNewVesting(0xc2C746849Fe4C56fCE5934AFCb561947032E830C, now + 300 * day, 8333 * SCALING_FACTOR);\n        addNewVesting(0x760D4836Bbf9f2587726F95C191469288B2f7E17, now + 300 * day, 8333 * SCALING_FACTOR);\n        addNewVesting(0xeBB646657E045de7c8209b38479303806D917780, now + 300 * day, 8333 * SCALING_FACTOR);\n        addNewVesting(0x1f606F8f1AB545B65795b2a09b8ae9343343EDCD, now + 300 * day, 8333 * SCALING_FACTOR);\n        addNewVesting(0x690a4f012C626339083c5a920e3f767152737316, now + 330 * day, 11111 * SCALING_FACTOR);\n        addNewVesting(0xc2C746849Fe4C56fCE5934AFCb561947032E830C, now + 330 * day, 8333 * SCALING_FACTOR);\n        addNewVesting(0x760D4836Bbf9f2587726F95C191469288B2f7E17, now + 330 * day, 8333 * SCALING_FACTOR);\n        addNewVesting(0xeBB646657E045de7c8209b38479303806D917780, now + 330 * day, 8333 * SCALING_FACTOR);\n        addNewVesting(0x1f606F8f1AB545B65795b2a09b8ae9343343EDCD, now + 330 * day, 8333 * SCALING_FACTOR);\n        addNewVesting(0x690a4f012C626339083c5a920e3f767152737316, now + 360 * day, 11111 * SCALING_FACTOR);\n        addNewVesting(0xc2C746849Fe4C56fCE5934AFCb561947032E830C, now + 360 * day, 8333 * SCALING_FACTOR);\n        addNewVesting(0x760D4836Bbf9f2587726F95C191469288B2f7E17, now + 360 * day, 8333 * SCALING_FACTOR);\n        addNewVesting(0xeBB646657E045de7c8209b38479303806D917780, now + 360 * day, 8333 * SCALING_FACTOR);\n        addNewVesting(0x1f606F8f1AB545B65795b2a09b8ae9343343EDCD, now + 360 * day, 8333 * SCALING_FACTOR);\n        addNewVesting(0x690a4f012C626339083c5a920e3f767152737316, now + 390 * day, 11111 * SCALING_FACTOR);\n        addNewVesting(0xc2C746849Fe4C56fCE5934AFCb561947032E830C, now + 390 * day, 8333 * SCALING_FACTOR);\n        addNewVesting(0x760D4836Bbf9f2587726F95C191469288B2f7E17, now + 390 * day, 8333 * SCALING_FACTOR);\n        addNewVesting(0xeBB646657E045de7c8209b38479303806D917780, now + 390 * day, 8333 * SCALING_FACTOR);\n        addNewVesting(0x1f606F8f1AB545B65795b2a09b8ae9343343EDCD, now + 390 * day, 8333 * SCALING_FACTOR);\n        addNewVesting(0x690a4f012C626339083c5a920e3f767152737316, now + 420 * day, 11111 * SCALING_FACTOR);\n        addNewVesting(0xc2C746849Fe4C56fCE5934AFCb561947032E830C, now + 420 * day, 8333 * SCALING_FACTOR);\n        addNewVesting(0x760D4836Bbf9f2587726F95C191469288B2f7E17, now + 420 * day, 8333 * SCALING_FACTOR);\n        addNewVesting(0xeBB646657E045de7c8209b38479303806D917780, now + 420 * day, 8333 * SCALING_FACTOR);\n        addNewVesting(0x1f606F8f1AB545B65795b2a09b8ae9343343EDCD, now + 420 * day, 8333 * SCALING_FACTOR);\n        addNewVesting(0x690a4f012C626339083c5a920e3f767152737316, now + 450 * day, 11111 * SCALING_FACTOR);\n        addNewVesting(0xc2C746849Fe4C56fCE5934AFCb561947032E830C, now + 450 * day, 8333 * SCALING_FACTOR);\n        addNewVesting(0x760D4836Bbf9f2587726F95C191469288B2f7E17, now + 450 * day, 8333 * SCALING_FACTOR);\n        addNewVesting(0xeBB646657E045de7c8209b38479303806D917780, now + 450 * day, 8333 * SCALING_FACTOR);\n        addNewVesting(0x1f606F8f1AB545B65795b2a09b8ae9343343EDCD, now + 450 * day, 8333 * SCALING_FACTOR);\n        addNewVesting(0x690a4f012C626339083c5a920e3f767152737316, now + 480 * day, 11111 * SCALING_FACTOR);\n        addNewVesting(0xc2C746849Fe4C56fCE5934AFCb561947032E830C, now + 480 * day, 8333 * SCALING_FACTOR);\n        addNewVesting(0x760D4836Bbf9f2587726F95C191469288B2f7E17, now + 480 * day, 8333 * SCALING_FACTOR);\n        addNewVesting(0xeBB646657E045de7c8209b38479303806D917780, now + 480 * day, 8333 * SCALING_FACTOR);\n        addNewVesting(0x1f606F8f1AB545B65795b2a09b8ae9343343EDCD, now + 480 * day, 8333 * SCALING_FACTOR);\n        addNewVesting(0x690a4f012C626339083c5a920e3f767152737316, now + 510 * day, 11111 * SCALING_FACTOR);\n        addNewVesting(0xc2C746849Fe4C56fCE5934AFCb561947032E830C, now + 510 * day, 8333 * SCALING_FACTOR);\n        addNewVesting(0x760D4836Bbf9f2587726F95C191469288B2f7E17, now + 510 * day, 8333 * SCALING_FACTOR);\n        addNewVesting(0xeBB646657E045de7c8209b38479303806D917780, now + 510 * day, 8333 * SCALING_FACTOR);\n        addNewVesting(0x1f606F8f1AB545B65795b2a09b8ae9343343EDCD, now + 510 * day, 8333 * SCALING_FACTOR);\n    }\n\n    /**\n     * @dev Remove vesting from queue.Owner/Governance callable\n     * @param _vestingId : Vesting ID\n     */\n    function removeVesting(uint256 _vestingId) public onlyOwner {\n        Vesting storage vesting = vestings[_vestingId];\n        require(vesting.beneficiary != address(0x0), \"Err: Invalid vestingID\");\n        require(!vesting.released, \"Err: Vesting already released\");\n        vesting.released = true;\n        totalTokenToVest = totalTokenToVest.sub(vesting.amount);\n        emit TokenVestingRemoved(\n            _vestingId,\n            vesting.beneficiary,\n            vesting.amount\n        );\n    }\n\n    /**\n     * @dev Adds new vesting\n     * @param _beneficiary : Vesting beneficiary address\n     * @param _releaseTime : Vesting Release time\n     * @param _amount : Vesting amount\n     */\n    function addNewVesting(\n        address _beneficiary,\n        uint256 _releaseTime,\n        uint256 _amount\n    ) internal {\n        require(_beneficiary != address(0x0), \"Err: Invalid beneficiary\");\n        totalTokenToVest = totalTokenToVest.add(_amount);\n        vestings[vestingId] = Vesting({\n            beneficiary: _beneficiary,\n            releaseTime: _releaseTime,\n            amount: _amount,\n            released: false\n        });\n        vestingId = vestingId.add(1);\n        emit TokenVestingAdded(vestingId, _beneficiary, _amount);\n    }\n\n    /**\n     * @dev Release vesting. Can be called by anyone\n     * @param _vestingId : Vesting ID\n     */\n    function releaseVesting(uint256 _vestingId) public {\n        Vesting storage vesting = vestings[_vestingId];\n        require(vesting.beneficiary != address(0x0), \"Err: Invalid vestingID\");\n        require(!vesting.released, \"Err: Vesting already released\");\n        // solhint-disable-next-line not-rely-on-time\n        require(\n            block.timestamp >= vesting.releaseTime,\n            \"Err: Tokens not vested yet\"\n        );\n        require(getPxaBalance() >= vesting.amount, \"Err: Insufficient funds\");\n        vesting.released = true;\n        totalTokenReleased = totalTokenReleased.add(vesting.amount);\n        totalTokenToVest = totalTokenToVest.sub(vesting.amount);\n        proximaToken.safeTransfer(vesting.beneficiary, vesting.amount);\n        emit TokenVestingReleased(\n            _vestingId,\n            vesting.beneficiary,\n            vesting.amount\n        );\n    }\n\n    /**\n     * @param _vestingId : Vesting ID\n     * @return Beneficiary address of supplied VestingID\n     */\n    function getVesting(uint256 _vestingId)\n        external\n        view\n        returns (Vesting memory)\n    {\n        require(_vestingId <= vestingId, \"Err: Out of bounds\");\n        return vestings[_vestingId];\n    }\n\n    /**\n     * @return vesting state vars\n     */\n    function getVestingStat()\n        external\n        view\n        returns (\n            uint256,\n            uint256,\n            uint256\n        )\n    {\n        return (totalTokenToVest, totalTokenReleased, vestingId);\n    }\n\n    /**\n     * @return PXA balance of contract\n     */\n    function getPxaBalance() public view returns (uint256) {\n        return (proximaToken.balanceOf(address(this)));\n    }\n\n    /**\n     * @dev Retrieves excess tokens from contract. Owner/Governance callable\n     * @param _amount : Amount to be withdrawn\n     */\n    function retrieveExcessTokens(uint256 _amount) public onlyOwner {\n        require(\n            _amount <= getPxaBalance().sub(totalTokenToVest),\n            \"Err: Insufficient funds\"\n        );\n        proximaToken.safeTransfer(owner(), _amount);\n    }\n}",
  "sourcePath": "/home/sagar/Desktop/project-Pxa/FINAL_SRELEASE/SolarRelease-Main/Mainnet/final/smartcontracts/TeamtokenVesting/contracts/ProximaTeamTokenVesting.sol",
  "compiler": {
    "name": "solc",
    "version": "0.6.12+commit.27d51765.Emscripten.clang"
  },
  "schemaVersion": "3.3.2",
  "updatedAt": "2021-03-23T10:40:04.482Z",
  "networkType": "ethereum",
  "devdoc": {
    "author": "ProximusAlpha",
    "events": {
      "TokenVestingAdded(uint256,address,uint256)": {
        "details": "An event thats emitted on new vesting"
      },
      "TokenVestingReleased(uint256,address,uint256)": {
        "details": "An event thats emitted on vesting release"
      },
      "TokenVestingRemoved(uint256,address,uint256)": {
        "details": "EAn event thats emitted on vesting removal"
      }
    },
    "kind": "dev",
    "methods": {
      "constructor": {
        "details": "Initializer",
        "params": {
          "_token": ": Proxima token"
        }
      },
      "getPxaBalance()": {
        "returns": {
          "_0": "PXA balance of contract"
        }
      },
      "getVesting(uint256)": {
        "params": {
          "_vestingId": ": Vesting ID"
        },
        "returns": {
          "_0": "Beneficiary address of supplied VestingID"
        }
      },
      "getVestingStat()": {
        "returns": {
          "_0": "vesting state vars"
        }
      },
      "owner()": {
        "details": "Returns the address of the current owner."
      },
      "releaseVesting(uint256)": {
        "details": "Release vesting. Can be called by anyone",
        "params": {
          "_vestingId": ": Vesting ID"
        }
      },
      "removeVesting(uint256)": {
        "details": "Remove vesting from queue.Owner/Governance callable",
        "params": {
          "_vestingId": ": Vesting ID"
        }
      },
      "renounceOwnership()": {
        "details": "Leaves the contract without owner. It will not be possible to call `onlyOwner` functions anymore. Can only be called by the current owner. NOTE: Renouncing ownership will leave the contract without an owner, thereby removing any functionality that is only available to the owner."
      },
      "retrieveExcessTokens(uint256)": {
        "details": "Retrieves excess tokens from contract. Owner/Governance callable",
        "params": {
          "_amount": ": Amount to be withdrawn"
        }
      },
      "transferOwnership(address)": {
        "details": "Transfers ownership of the contract to a new account (`newOwner`). Can only be called by the current owner."
      }
    },
    "stateVariables": {
      "proximaToken": {
        "details": "Proxima Token"
      },
      "totalTokenReleased": {
        "details": "Number of tokens released"
      },
      "totalTokenToVest": {
        "details": "Number of token added for vesting"
      },
      "vestingId": {
        "details": "Vesting ID"
      },
      "vestings": {
        "details": "Vesting map"
      }
    },
    "title": "ProximaTeamTokenVesting",
    "version": 1
  },
  "userdoc": {
    "kind": "user",
    "methods": {},
    "version": 1
  }
}