{
  "contractName": "ProximaVault",
  "abi": [
    {
      "anonymous": false,
      "inputs": [
        {
          "indexed": true,
          "internalType": "address",
          "name": "previousOwner",
          "type": "address"
        },
        {
          "indexed": true,
          "internalType": "address",
          "name": "newOwner",
          "type": "address"
        }
      ],
      "name": "OwnershipTransferred",
      "type": "event"
    },
    {
      "anonymous": false,
      "inputs": [
        {
          "indexed": false,
          "internalType": "address",
          "name": "releasedTo",
          "type": "address"
        },
        {
          "indexed": false,
          "internalType": "uint256",
          "name": "releasedAmount",
          "type": "uint256"
        },
        {
          "indexed": false,
          "internalType": "bytes32",
          "name": "purpose",
          "type": "bytes32"
        }
      ],
      "name": "PublicReleaseNotification",
      "type": "event"
    },
    {
      "inputs": [],
      "name": "owner",
      "outputs": [
        {
          "internalType": "address",
          "name": "",
          "type": "address"
        }
      ],
      "stateMutability": "view",
      "type": "function",
      "constant": true
    },
    {
      "inputs": [],
      "name": "pxa",
      "outputs": [
        {
          "internalType": "contract IERC20",
          "name": "",
          "type": "address"
        }
      ],
      "stateMutability": "view",
      "type": "function",
      "constant": true
    },
    {
      "inputs": [],
      "name": "renounceOwnership",
      "outputs": [],
      "stateMutability": "nonpayable",
      "type": "function"
    },
    {
      "inputs": [
        {
          "internalType": "address",
          "name": "newOwner",
          "type": "address"
        }
      ],
      "name": "transferOwnership",
      "outputs": [],
      "stateMutability": "nonpayable",
      "type": "function"
    },
    {
      "inputs": [
        {
          "internalType": "contract IERC20",
          "name": "_pxa",
          "type": "address"
        }
      ],
      "name": "initVault",
      "outputs": [],
      "stateMutability": "nonpayable",
      "type": "function"
    },
    {
      "inputs": [
        {
          "internalType": "address",
          "name": "_to",
          "type": "address"
        },
        {
          "internalType": "uint256",
          "name": "_amount",
          "type": "uint256"
        },
        {
          "internalType": "bytes32",
          "name": "_purpose",
          "type": "bytes32"
        }
      ],
      "name": "release",
      "outputs": [],
      "stateMutability": "nonpayable",
      "type": "function"
    }
  ],
  "bytecode": "0x60806040526001805460ff60a01b1916905534801561001d57600080fd5b506000610028610077565b600080546001600160a01b0319166001600160a01b0383169081178255604051929350917f8be0079c531659141344cd1fd0a4f28419497f9722a3daafe3b4186f6b6457e0908290a35061007b565b3390565b6105ec8061008a6000396000f3fe608060405234801561001057600080fd5b50600436106100625760003560e01c80632d3ad0cb146100675780632ebe3fbb1461009b578063715018a6146100c15780638da5cb5b146100c9578063ce509f8d146100ed578063f2fde38b146100f5575b600080fd5b6100996004803603606081101561007d57600080fd5b506001600160a01b03813516906020810135906040013561011b565b005b610099600480360360208110156100b157600080fd5b50356001600160a01b03166102af565b6100996103a0565b6100d161044c565b604080516001600160a01b039092168252519081900360200190f35b6100d161045b565b6100996004803603602081101561010b57600080fd5b50356001600160a01b031661046a565b61012361056c565b6001600160a01b031661013461044c565b6001600160a01b03161461017d576040805162461bcd60e51b81526020600482018190526024820152600080516020610597833981519152604482015290519081900360640190fd5b60018054600160a01b900460ff161515146101df576040805162461bcd60e51b815260206004820152601a60248201527f4572723a205661756c74206e6f7420496e697469616c697a6564000000000000604482015290519081900360640190fd5b6001546040805163a9059cbb60e01b81526001600160a01b038681166004830152602482018690529151919092169163a9059cbb9160448083019260209291908290030181600087803b15801561023557600080fd5b505af1158015610249573d6000803e3d6000fd5b505050506040513d602081101561025f57600080fd5b5050604080516001600160a01b03851681526020810184905280820183905290517f770d1cf6ba52cbae2eb2888ca3c24f47b494db619eebe5313178cb7d9ef825b99181900360600190a1505050565b6102b761056c565b6001600160a01b03166102c861044c565b6001600160a01b031614610311576040805162461bcd60e51b81526020600482018190526024820152600080516020610597833981519152604482015290519081900360640190fd5b600154600160a01b900460ff1615610370576040805162461bcd60e51b815260206004820152601e60248201527f4572723a205661756c7420616c726561647920496e697469616c697a65640000604482015290519081900360640190fd5b6001805460ff60a01b196001600160a01b039093166001600160a01b03199091161791909116600160a01b179055565b6103a861056c565b6001600160a01b03166103b961044c565b6001600160a01b031614610402576040805162461bcd60e51b81526020600482018190526024820152600080516020610597833981519152604482015290519081900360640190fd5b600080546040516001600160a01b03909116907f8be0079c531659141344cd1fd0a4f28419497f9722a3daafe3b4186f6b6457e0908390a3600080546001600160a01b0319169055565b6000546001600160a01b031690565b6001546001600160a01b031681565b61047261056c565b6001600160a01b031661048361044c565b6001600160a01b0316146104cc576040805162461bcd60e51b81526020600482018190526024820152600080516020610597833981519152604482015290519081900360640190fd5b6001600160a01b0381166105115760405162461bcd60e51b81526004018080602001828103825260268152602001806105716026913960400191505060405180910390fd5b600080546040516001600160a01b03808516939216917f8be0079c531659141344cd1fd0a4f28419497f9722a3daafe3b4186f6b6457e091a3600080546001600160a01b0319166001600160a01b0392909216919091179055565b339056fe4f776e61626c653a206e6577206f776e657220697320746865207a65726f20616464726573734f776e61626c653a2063616c6c6572206973206e6f7420746865206f776e6572a26469706673582212205b88e07d199afcbba6770d590ff5fecc7a22b810066fc0972652770d861c66b564736f6c634300060c0033",
  "immutableReferences": {},
  "source": "// SPDX-License-Identifier: UNLICENSED\n\npragma solidity 0.6.12;\n\nimport \"@openzeppelin/contracts/token/ERC20/ERC20.sol\";\nimport \"@openzeppelin/contracts/token/ERC20/IERC20.sol\";\nimport \"@openzeppelin/contracts/access/Ownable.sol\";\n\n/**\n * @title : ProximaVault\n * @author : ProximusAlpha\n */\n\ncontract ProximaVault is Ownable {\n    /// @dev Proxima Token instance\n    IERC20 public pxa;\n    /// @dev Flag that represents initialization of vault\n    bool initialized = false;\n\n    /// @dev An event thats emitted when Pxa tokens are released.\n    event PublicReleaseNotification(\n        address releasedTo,\n        uint256 releasedAmount,\n        bytes32 purpose\n    );\n\n    /**\n     * @dev Initilizes the proxima vault. Can be called only once.\n     * @param _pxa Proxima Token\n     */\n    function initVault(IERC20 _pxa) public onlyOwner {\n        require(initialized == false, \"Err: Vault already Initialized\");\n        pxa = _pxa;\n        initialized = true;\n    }\n\n    /**\n     * @dev Releases Proxima token to specified destination.\n     * @param _to Pxa released to.\n     * @param _amount Amount of Pxa released.\n     * @param _purpose Purpose of Pxa release.\n     */\n    function release(\n        address _to,\n        uint256 _amount,\n        bytes32 _purpose\n    ) public onlyOwner {\n        require(initialized == true, \"Err: Vault not Initialized\");\n        pxa.transfer(_to, _amount);\n        emit PublicReleaseNotification(_to, _amount, _purpose);\n    }\n}\n",
  "sourcePath": "/home/sagar/Desktop/project-Pxa/FINAL_SRELEASE/SolarRelease-Main/Mainnet/final/smartcontracts/tokenTranferAutomation/contracts/ProximaVault.sol",
  "compiler": {
    "name": "solc",
    "version": "0.6.12+commit.27d51765.Emscripten.clang"
  },
  "schemaVersion": "3.3.2",
  "updatedAt": "2021-03-23T12:49:32.978Z",
  "networkType": "ethereum",
  "devdoc": {
    "author": ": ProximusAlpha",
    "events": {
      "PublicReleaseNotification(address,uint256,bytes32)": {
        "details": "An event thats emitted when Pxa tokens are released."
      }
    },
    "kind": "dev",
    "methods": {
      "initVault(address)": {
        "details": "Initilizes the proxima vault. Can be called only once.",
        "params": {
          "_pxa": "Proxima Token"
        }
      },
      "owner()": {
        "details": "Returns the address of the current owner."
      },
      "release(address,uint256,bytes32)": {
        "details": "Releases Proxima token to specified destination.",
        "params": {
          "_amount": "Amount of Pxa released.",
          "_purpose": "Purpose of Pxa release.",
          "_to": "Pxa released to."
        }
      },
      "renounceOwnership()": {
        "details": "Leaves the contract without owner. It will not be possible to call `onlyOwner` functions anymore. Can only be called by the current owner. NOTE: Renouncing ownership will leave the contract without an owner, thereby removing any functionality that is only available to the owner."
      },
      "transferOwnership(address)": {
        "details": "Transfers ownership of the contract to a new account (`newOwner`). Can only be called by the current owner."
      }
    },
    "stateVariables": {
      "initialized": {
        "details": "Flag that represents initialization of vault"
      },
      "pxa": {
        "details": "Proxima Token instance"
      }
    },
    "title": ": ProximaVault",
    "version": 1
  },
  "userdoc": {
    "kind": "user",
    "methods": {},
    "version": 1
  }
}