{
  "contractName": "ProximaToken",
  "abi": [
    {
      "inputs": [
        {
          "internalType": "address",
          "name": "_account",
          "type": "address"
        }
      ],
      "stateMutability": "nonpayable",
      "type": "constructor"
    },
    {
      "anonymous": false,
      "inputs": [
        {
          "indexed": true,
          "internalType": "address",
          "name": "owner",
          "type": "address"
        },
        {
          "indexed": true,
          "internalType": "address",
          "name": "spender",
          "type": "address"
        },
        {
          "indexed": false,
          "internalType": "uint256",
          "name": "amount",
          "type": "uint256"
        }
      ],
      "name": "Approval",
      "type": "event"
    },
    {
      "anonymous": false,
      "inputs": [
        {
          "indexed": true,
          "internalType": "address",
          "name": "delegator",
          "type": "address"
        },
        {
          "indexed": true,
          "internalType": "address",
          "name": "fromDelegate",
          "type": "address"
        },
        {
          "indexed": true,
          "internalType": "address",
          "name": "toDelegate",
          "type": "address"
        }
      ],
      "name": "DelegateChanged",
      "type": "event"
    },
    {
      "anonymous": false,
      "inputs": [
        {
          "indexed": true,
          "internalType": "address",
          "name": "delegate",
          "type": "address"
        },
        {
          "indexed": false,
          "internalType": "uint256",
          "name": "previousBalance",
          "type": "uint256"
        },
        {
          "indexed": false,
          "internalType": "uint256",
          "name": "newBalance",
          "type": "uint256"
        }
      ],
      "name": "DelegateVotesChanged",
      "type": "event"
    },
    {
      "anonymous": false,
      "inputs": [
        {
          "indexed": true,
          "internalType": "address",
          "name": "from",
          "type": "address"
        },
        {
          "indexed": true,
          "internalType": "address",
          "name": "to",
          "type": "address"
        },
        {
          "indexed": false,
          "internalType": "uint256",
          "name": "amount",
          "type": "uint256"
        }
      ],
      "name": "Transfer",
      "type": "event"
    },
    {
      "inputs": [],
      "name": "DELEGATION_TYPEHASH",
      "outputs": [
        {
          "internalType": "bytes32",
          "name": "",
          "type": "bytes32"
        }
      ],
      "stateMutability": "view",
      "type": "function",
      "constant": true
    },
    {
      "inputs": [],
      "name": "DOMAIN_TYPEHASH",
      "outputs": [
        {
          "internalType": "bytes32",
          "name": "",
          "type": "bytes32"
        }
      ],
      "stateMutability": "view",
      "type": "function",
      "constant": true
    },
    {
      "inputs": [
        {
          "internalType": "address",
          "name": "",
          "type": "address"
        },
        {
          "internalType": "uint32",
          "name": "",
          "type": "uint32"
        }
      ],
      "name": "checkpoints",
      "outputs": [
        {
          "internalType": "uint32",
          "name": "fromBlock",
          "type": "uint32"
        },
        {
          "internalType": "uint96",
          "name": "votes",
          "type": "uint96"
        }
      ],
      "stateMutability": "view",
      "type": "function",
      "constant": true
    },
    {
      "inputs": [],
      "name": "decimals",
      "outputs": [
        {
          "internalType": "uint8",
          "name": "",
          "type": "uint8"
        }
      ],
      "stateMutability": "view",
      "type": "function",
      "constant": true
    },
    {
      "inputs": [
        {
          "internalType": "address",
          "name": "",
          "type": "address"
        }
      ],
      "name": "delegates",
      "outputs": [
        {
          "internalType": "address",
          "name": "",
          "type": "address"
        }
      ],
      "stateMutability": "view",
      "type": "function",
      "constant": true
    },
    {
      "inputs": [],
      "name": "name",
      "outputs": [
        {
          "internalType": "string",
          "name": "",
          "type": "string"
        }
      ],
      "stateMutability": "view",
      "type": "function",
      "constant": true
    },
    {
      "inputs": [
        {
          "internalType": "address",
          "name": "",
          "type": "address"
        }
      ],
      "name": "nonces",
      "outputs": [
        {
          "internalType": "uint256",
          "name": "",
          "type": "uint256"
        }
      ],
      "stateMutability": "view",
      "type": "function",
      "constant": true
    },
    {
      "inputs": [
        {
          "internalType": "address",
          "name": "",
          "type": "address"
        }
      ],
      "name": "numCheckpoints",
      "outputs": [
        {
          "internalType": "uint32",
          "name": "",
          "type": "uint32"
        }
      ],
      "stateMutability": "view",
      "type": "function",
      "constant": true
    },
    {
      "inputs": [],
      "name": "symbol",
      "outputs": [
        {
          "internalType": "string",
          "name": "",
          "type": "string"
        }
      ],
      "stateMutability": "view",
      "type": "function",
      "constant": true
    },
    {
      "inputs": [
        {
          "internalType": "address",
          "name": "account",
          "type": "address"
        },
        {
          "internalType": "address",
          "name": "spender",
          "type": "address"
        }
      ],
      "name": "allowance",
      "outputs": [
        {
          "internalType": "uint256",
          "name": "",
          "type": "uint256"
        }
      ],
      "stateMutability": "view",
      "type": "function",
      "constant": true
    },
    {
      "inputs": [
        {
          "internalType": "address",
          "name": "spender",
          "type": "address"
        },
        {
          "internalType": "uint256",
          "name": "rawAmount",
          "type": "uint256"
        }
      ],
      "name": "approve",
      "outputs": [
        {
          "internalType": "bool",
          "name": "",
          "type": "bool"
        }
      ],
      "stateMutability": "nonpayable",
      "type": "function"
    },
    {
      "inputs": [
        {
          "internalType": "address",
          "name": "account",
          "type": "address"
        }
      ],
      "name": "balanceOf",
      "outputs": [
        {
          "internalType": "uint256",
          "name": "",
          "type": "uint256"
        }
      ],
      "stateMutability": "view",
      "type": "function",
      "constant": true
    },
    {
      "inputs": [],
      "name": "totalSupply",
      "outputs": [
        {
          "internalType": "uint256",
          "name": "",
          "type": "uint256"
        }
      ],
      "stateMutability": "view",
      "type": "function",
      "constant": true
    },
    {
      "inputs": [],
      "name": "totalBurned",
      "outputs": [
        {
          "internalType": "uint256",
          "name": "",
          "type": "uint256"
        }
      ],
      "stateMutability": "view",
      "type": "function",
      "constant": true
    },
    {
      "inputs": [
        {
          "internalType": "address",
          "name": "dst",
          "type": "address"
        },
        {
          "internalType": "uint256",
          "name": "rawAmount",
          "type": "uint256"
        }
      ],
      "name": "transfer",
      "outputs": [
        {
          "internalType": "bool",
          "name": "",
          "type": "bool"
        }
      ],
      "stateMutability": "nonpayable",
      "type": "function"
    },
    {
      "inputs": [
        {
          "internalType": "uint256",
          "name": "rawAmount",
          "type": "uint256"
        }
      ],
      "name": "burn",
      "outputs": [
        {
          "internalType": "bool",
          "name": "",
          "type": "bool"
        }
      ],
      "stateMutability": "nonpayable",
      "type": "function"
    },
    {
      "inputs": [
        {
          "internalType": "address",
          "name": "src",
          "type": "address"
        },
        {
          "internalType": "address",
          "name": "dst",
          "type": "address"
        },
        {
          "internalType": "uint256",
          "name": "rawAmount",
          "type": "uint256"
        }
      ],
      "name": "transferFrom",
      "outputs": [
        {
          "internalType": "bool",
          "name": "",
          "type": "bool"
        }
      ],
      "stateMutability": "nonpayable",
      "type": "function"
    },
    {
      "inputs": [
        {
          "internalType": "address",
          "name": "delegatee",
          "type": "address"
        }
      ],
      "name": "delegate",
      "outputs": [],
      "stateMutability": "nonpayable",
      "type": "function"
    },
    {
      "inputs": [
        {
          "internalType": "address",
          "name": "delegatee",
          "type": "address"
        },
        {
          "internalType": "uint256",
          "name": "nonce",
          "type": "uint256"
        },
        {
          "internalType": "uint256",
          "name": "expiry",
          "type": "uint256"
        },
        {
          "internalType": "uint8",
          "name": "v",
          "type": "uint8"
        },
        {
          "internalType": "bytes32",
          "name": "r",
          "type": "bytes32"
        },
        {
          "internalType": "bytes32",
          "name": "s",
          "type": "bytes32"
        }
      ],
      "name": "delegateBySig",
      "outputs": [],
      "stateMutability": "nonpayable",
      "type": "function"
    },
    {
      "inputs": [
        {
          "internalType": "address",
          "name": "account",
          "type": "address"
        }
      ],
      "name": "getCurrentVotes",
      "outputs": [
        {
          "internalType": "uint96",
          "name": "",
          "type": "uint96"
        }
      ],
      "stateMutability": "view",
      "type": "function",
      "constant": true
    },
    {
      "inputs": [
        {
          "internalType": "address",
          "name": "account",
          "type": "address"
        },
        {
          "internalType": "uint256",
          "name": "blockNumber",
          "type": "uint256"
        }
      ],
      "name": "getPriorVotes",
      "outputs": [
        {
          "internalType": "uint96",
          "name": "",
          "type": "uint96"
        }
      ],
      "stateMutability": "view",
      "type": "function",
      "constant": true
    }
  ],
  "bytecode": "0x60806040523480156200001157600080fd5b5060405162001c3738038062001c378339810160408190526200003491620000f3565b620000646a084595161401484a00000060405180606001604052806029815260200162001c0e60299139620000af565b600080546001600160601b039283166001600160601b0319918216178083556001600160a01b0390941682526002602052604090912080549091169290911691909117905562000179565b6000816c010000000000000000000000008410620000eb5760405162461bcd60e51b8152600401620000e2919062000123565b60405180910390fd5b509192915050565b60006020828403121562000105578081fd5b81516001600160a01b03811681146200011c578182fd5b9392505050565b6000602080835283518082850152825b81811015620001515785810183015185820160400152820162000133565b81811115620001635783604083870101525b50601f01601f1916929092016040019392505050565b611a8580620001896000396000f3fe608060405234801561001057600080fd5b50600436106101375760003560e01c806370a08231116100b8578063b4b5ea571161007c578063b4b5ea5714610288578063c3cda5201461029b578063d89135cd146102ae578063dd62ed3e146102b6578063e7a324dc146102c9578063f1127ed8146102d157610137565b806370a0823114610227578063782d6fe11461023a5780637ecebe001461025a57806395d89b411461026d578063a9059cbb1461027557610137565b8063313ce567116100ff578063313ce567146101aa57806342966c68146101bf578063587cde1e146101d25780635c19a95c146101f25780636fcfff451461020757610137565b806306fdde031461013c578063095ea7b31461015a57806318160ddd1461017a57806320606b701461018f57806323b872dd14610197575b600080fd5b6101446102f2565b60405161015191906115de565b60405180910390f35b61016d610168366004611455565b610315565b6040516101519190611564565b6101826103d4565b604051610151919061156f565b6101826103e3565b61016d6101a5366004611415565b610407565b6101b261054e565b604051610151919061182c565b61016d6101cd36600461151d565b610553565b6101e56101e03660046113c6565b61058d565b6040516101519190611550565b6102056102003660046113c6565b6105a8565b005b61021a6102153660046113c6565b6105b5565b60405161015191906117fc565b6101826102353660046113c6565b6105cd565b61024d610248366004611455565b6105f1565b604051610151919061183a565b6101826102683660046113c6565b610808565b61014461081a565b61016d610283366004611455565b610839565b61024d6102963660046113c6565b610875565b6102056102a936600461147f565b6108e6565b610182610aeb565b6101826102c43660046113e1565b610b01565b610182610b35565b6102e46102df3660046114de565b610b59565b60405161015192919061180d565b6040518060400160405280600781526020016650726f78696d6160c81b81525081565b60008060001983141561032b5750600019610350565b61034d8360405180606001604052806024815260200161198160249139610b8e565b90505b3360008181526001602090815260408083206001600160a01b03891680855292529182902080546001600160601b0319166001600160601b03861617905590519091907f8c5be1e5ebec7d5bd14f71427d1e84f3dd0314c0f7b2291e5b200ac8c7c3b925906103c090859061183a565b60405180910390a360019150505b92915050565b6000546001600160601b031690565b7f8cad95687ba82c2ce50e74f7b754645e5117c3a5bec8151c0726d5857980a86681565b6001600160a01b03831660009081526001602090815260408083203380855290835281842054825160608101909352602480845291936001600160601b0390911692859261045f928892919061198190830139610b8e565b9050866001600160a01b0316836001600160a01b03161415801561048c57506001600160601b0382811614155b156105365760006104b683836040518060600160405280603c81526020016119a5603c9139610bbd565b6001600160a01b038981166000818152600160209081526040808320948a16808452949091529081902080546001600160601b0319166001600160601b0386161790555192935090917f8c5be1e5ebec7d5bd14f71427d1e84f3dd0314c0f7b2291e5b200ac8c7c3b9259061052c90859061183a565b60405180910390a3505b610541878783610bfc565b5060019695505050505050565b601281565b600080610578836040518060600160405280602181526020016119e160219139610b8e565b90506105843382610da7565b50600192915050565b6003602052600090815260409020546001600160a01b031681565b6105b23382610f64565b50565b60056020526000908152604090205463ffffffff1681565b6001600160a01b03166000908152600260205260409020546001600160601b031690565b600043821061061b5760405162461bcd60e51b8152600401610612906116b7565b60405180910390fd5b6001600160a01b03831660009081526005602052604090205463ffffffff16806106495760009150506103ce565b6001600160a01b038416600090815260046020908152604080832063ffffffff6000198601811685529252909120541683106106c5576001600160a01b03841660009081526004602090815260408083206000199490940163ffffffff1683529290522054600160201b90046001600160601b031690506103ce565b6001600160a01b038416600090815260046020908152604080832083805290915290205463ffffffff168310156107005760009150506103ce565b600060001982015b8163ffffffff168163ffffffff1611156107c357600282820363ffffffff16048103610732611398565b506001600160a01b038716600090815260046020908152604080832063ffffffff858116855290835292819020815180830190925254928316808252600160201b9093046001600160601b0316918101919091529087141561079e576020015194506103ce9350505050565b805163ffffffff168711156107b5578193506107bc565b6001820392505b5050610708565b506001600160a01b038516600090815260046020908152604080832063ffffffff909416835292905220546001600160601b03600160201b9091041691505092915050565b60066020526000908152604090205481565b6040518060400160405280600381526020016250584160e81b81525081565b60008061085e836040518060600160405280602581526020016118b360259139610b8e565b905061086b338583610bfc565b5060019392505050565b6001600160a01b03811660009081526005602052604081205463ffffffff16806108a05760006108df565b6001600160a01b0383166000908152600460209081526040808320600019850163ffffffff168452909152902054600160201b90046001600160601b03165b9392505050565b60408051808201909152600781526650726f78696d6160c81b60209091015260007f8cad95687ba82c2ce50e74f7b754645e5117c3a5bec8151c0726d5857980a8667f4aae76d477571350812a6a7e240f00b9c947cf1d78a3de9e8e3a3b5c11f6724e610951610fee565b30604051602001610965949392919061159c565b60405160208183030381529060405280519060200120905060007fe48329057bfd03d55e49b547132e39cffd9c1820ad7b9d4c5307691425d15adf8888886040516020016109b69493929190611578565b604051602081830303815290604052805190602001209050600082826040516020016109e3929190611535565b604051602081830303815290604052805190602001209050600060018288888860405160008152602001604052604051610a2094939291906115c0565b6020604051602081039080840390855afa158015610a42573d6000803e3d6000fd5b5050604051601f1901519150506001600160a01b038116610a755760405162461bcd60e51b815260040161061290611672565b6001600160a01b03811660009081526006602052604090208054600181019091558914610ab45760405162461bcd60e51b815260040161061290611631565b87421115610ad45760405162461bcd60e51b81526004016106129061175a565b610ade818b610f64565b505050505b505050505050565b600054600160601b90046001600160601b031690565b6001600160a01b0391821660009081526001602090815260408083209390941682529190915220546001600160601b031690565b7fe48329057bfd03d55e49b547132e39cffd9c1820ad7b9d4c5307691425d15adf81565b600460209081526000928352604080842090915290825290205463ffffffff811690600160201b90046001600160601b031682565b600081600160601b8410610bb55760405162461bcd60e51b815260040161061291906115de565b509192915050565b6000836001600160601b0316836001600160601b031611158290610bf45760405162461bcd60e51b815260040161061291906115de565b505050900390565b6001600160a01b038316610c225760405162461bcd60e51b81526004016106129061179f565b6001600160a01b038216610c485760405162461bcd60e51b8152600401610612906116fd565b6001600160a01b038316600090815260026020908152604091829020548251606081019093526035808452610c93936001600160601b03909216928592919061187e90830139610bbd565b6001600160a01b03848116600090815260026020908152604080832080546001600160601b0319166001600160601b0396871617905592861682529082902054825160608101909352602f808452610cfb949190911692859290919061191f90830139610ff2565b6001600160a01b038381166000818152600260205260409081902080546001600160601b0319166001600160601b0395909516949094179093559151908516907fddf252ad1be2c89b69c2b068fc378daa952ba7f163c4a11628f55a4df523b3ef90610d6890859061183a565b60405180910390a36001600160a01b03808416600090815260036020526040808220548584168352912054610da29291821691168361102e565b505050565b6001600160a01b038216600090815260026020908152604091829020548251606081019093526027808452610df2936001600160601b039092169285929190611a0290830139610bbd565b6001600160a01b038316600090815260026020908152604080832080546001600160601b0319166001600160601b0395861617905591548251606081019093526027808452610e519491909116928592909190611a0290830139610bbd565b600080546001600160601b0319166001600160601b03928316179081905560408051606081019091526021808252610e9f93600160601b909304909216918491906118d86020830139610ff2565b600080546001600160601b0392909216600160601b026bffffffffffffffffffffffff60601b199092169190911781556040516001600160a01b038416907fddf252ad1be2c89b69c2b068fc378daa952ba7f163c4a11628f55a4df523b3ef90610f0a90859061183a565b60405180910390a36001600160a01b038083166000908152600360205260408120549080527f3617319a054d772f909f7c479a2cebe5066e836a939412e32403c99029b92eff54610f609291821691168361102e565b5050565b6001600160a01b03808316600081815260036020818152604080842080546002845282862054949093528787166001600160a01b031984168117909155905191909516946001600160601b039092169391928592917f3134e8a2e6d97e929a7e54011ea5485d7d196dd5f0ba4d4ef95803e8e3fc257f9190a4610fe882848361102e565b50505050565b4690565b6000838301826001600160601b0380871690831610156110255760405162461bcd60e51b815260040161061291906115de565b50949350505050565b816001600160a01b0316836001600160a01b03161415801561105957506000816001600160601b0316115b15610da2576001600160a01b03831615611111576001600160a01b03831660009081526005602052604081205463ffffffff1690816110995760006110d8565b6001600160a01b0385166000908152600460209081526040808320600019860163ffffffff168452909152902054600160201b90046001600160601b03165b905060006110ff8285604051806060016040528060278152602001611a2960279139610bbd565b905061110d868484846111bc565b5050505b6001600160a01b03821615610da2576001600160a01b03821660009081526005602052604081205463ffffffff16908161114c57600061118b565b6001600160a01b0384166000908152600460209081526040808320600019860163ffffffff168452909152902054600160201b90046001600160601b03165b905060006111b282856040518060600160405280602681526020016118f960269139610ff2565b9050610ae3858484845b60006111e04360405180606001604052806033815260200161194e60339139611371565b905060008463ffffffff1611801561122957506001600160a01b038516600090815260046020908152604080832063ffffffff6000198901811685529252909120548282169116145b15611288576001600160a01b0385166000908152600460209081526040808320600019880163ffffffff168452909152902080546fffffffffffffffffffffffff000000001916600160201b6001600160601b03851602179055611327565b60408051808201825263ffffffff80841682526001600160601b0380861660208085019182526001600160a01b038b166000818152600483528781208c871682528352878120965187549451909516600160201b026fffffffffffffffffffffffff000000001995871663ffffffff19958616179590951694909417909555938252600590935292909220805460018801909316929091169190911790555b846001600160a01b03167fdec2bacdd2f05b59de34da9b523dff8be42e5e38e818c82fdb0bae774387a724848460405161136292919061184e565b60405180910390a25050505050565b600081600160201b8410610bb55760405162461bcd60e51b815260040161061291906115de565b604080518082019091526000808252602082015290565b80356001600160a01b03811681146103ce57600080fd5b6000602082840312156113d7578081fd5b6108df83836113af565b600080604083850312156113f3578081fd5b6113fd84846113af565b915061140c84602085016113af565b90509250929050565b600080600060608486031215611429578081fd5b833561143481611868565b9250602084013561144481611868565b929592945050506040919091013590565b60008060408385031215611467578182fd5b61147184846113af565b946020939093013593505050565b60008060008060008060c08789031215611497578182fd5b6114a188886113af565b95506020870135945060408701359350606087013560ff811681146114c4578283fd5b9598949750929560808101359460a0909101359350915050565b600080604083850312156114f0578182fd5b6114fa84846113af565b9150602083013563ffffffff81168114611512578182fd5b809150509250929050565b60006020828403121561152e578081fd5b5035919050565b61190160f01b81526002810192909252602282015260420190565b6001600160a01b0391909116815260200190565b901515815260200190565b90815260200190565b9384526001600160a01b039290921660208401526040830152606082015260800190565b938452602084019290925260408301526001600160a01b0316606082015260800190565b93845260ff9290921660208401526040830152606082015260800190565b6000602080835283518082850152825b8181101561160a578581018301518582016040015282016115ee565b8181111561161b5783604083870101525b50601f01601f1916929092016040019392505050565b60208082526021908201527f5078613a3a64656c656761746542795369673a20696e76616c6964206e6f6e636040820152606560f81b606082015260800190565b60208082526025908201527f5078613a3a64656c656761746542795369673a20696e76616c6964207369676e604082015264617475726560d81b606082015260800190565b60208082526026908201527f5078613a3a6765745072696f72566f7465733a206e6f742079657420646574656040820152651c9b5a5b995960d21b606082015260800190565b60208082526039908201527f5078613a3a5f7472616e73666572546f6b656e733a2063616e6e6f742074726160408201527f6e7366657220746f20746865207a65726f206164647265737300000000000000606082015260800190565b60208082526025908201527f5078613a3a64656c656761746542795369673a207369676e61747572652065786040820152641c1a5c995960da1b606082015260800190565b6020808252603b908201527f5078613a3a5f7472616e73666572546f6b656e733a2063616e6e6f742074726160408201527f6e736665722066726f6d20746865207a65726f20616464726573730000000000606082015260800190565b63ffffffff91909116815260200190565b63ffffffff9290921682526001600160601b0316602082015260400190565b60ff91909116815260200190565b6001600160601b0391909116815260200190565b6001600160601b0392831681529116602082015260400190565b6001600160a01b03811681146105b257600080fdfe5078613a3a5f7472616e73666572546f6b656e733a207472616e7366657220616d6f756e7420657863656564732062616c616e63655078613a3a7472616e736665723a20616d6f756e74206578636565647320393620626974735078613a3a5f6275726e3a206275726e20616d6f756e74206f766572666c6f77735078613a3a5f6d6f7665566f7465733a20766f746520616d6f756e74206f766572666c6f77735078613a3a5f7472616e73666572546f6b656e733a207472616e7366657220616d6f756e74206f766572666c6f77735078613a3a5f7772697465436865636b706f696e743a20626c6f636b206e756d626572206578636565647320333220626974735078613a3a617070726f76653a20616d6f756e74206578636565647320393620626974735078613a3a7472616e7366657246726f6d3a207472616e7366657220616d6f756e742065786365656473207370656e64657220616c6c6f77616e63655078613a3a6275726e3a20616d6f756e74206578636565647320393620626974735078613a3a5f6275726e3a206275726e20616d6f756e7420657863656564732062616c616e63655078613a3a5f6d6f7665566f7465733a20766f746520616d6f756e7420756e646572666c6f7773a2646970667358221220a2c4ae83814457267c7be42d152cf166449b8ae6821e5dbb7abe9daa525c8e9964736f6c634300060c00335078613a3a5f746f74616c537570706c793a20616d6f756e7420657863656564732039362062697473",
  "immutableReferences": {},
  "source": "// SPDX-License-Identifier: MIT\n\npragma solidity ^0.6.12;\npragma experimental ABIEncoderV2;\n\n/**\n * @title : ProximaToken\n * @notice : Copied and modified from COMPOUND:\n * https://github.com/compound-finance/compound-protocol/blob/master/contracts/Governance/Comp.sol\n * Modified by ProximusAlpha\n */\n\ncontract ProximaToken {\n    /// @dev EIP-20 token name for this token\n    string public constant name = \"Proxima\";\n\n    /// @dev EIP-20 token symbol for this token\n    string public constant symbol = \"PXA\";\n\n    /// @dev EIP-20 token decimals for this token\n    uint8 public constant decimals = 18;\n\n    /// @dev Total number of tokens in current circulation\n    uint96 internal _totalSupply;\n\n    /// @dev Total number of tokens burned\n    uint96 internal _supplyBurned;\n\n    /// @dev Allowance amounts on behalf of others\n    mapping(address => mapping(address => uint96)) internal allowances;\n\n    /// @dev Official record of token balances for each account\n    mapping(address => uint96) internal balances;\n\n    /// @dev A record of each accounts delegate\n    mapping(address => address) public delegates;\n\n    /// @dev A checkpoint for marking number of votes from a given block\n    struct Checkpoint {\n        uint32 fromBlock;\n        uint96 votes;\n    }\n\n    /// @dev A record of votes checkpoints for each account, by index\n    mapping(address => mapping(uint32 => Checkpoint)) public checkpoints;\n\n    /// @dev The number of checkpoints for each account\n    mapping(address => uint32) public numCheckpoints;\n\n    /// @dev The EIP-712 typehash for the contract's domain\n    bytes32 public constant DOMAIN_TYPEHASH =\n        keccak256(\n            \"EIP712Domain(string name,uint256 chainId,address verifyingContract)\"\n        );\n\n    /// @dev The EIP-712 typehash for the delegation struct used by the contract\n    bytes32 public constant DELEGATION_TYPEHASH =\n        keccak256(\"Delegation(address delegatee,uint256 nonce,uint256 expiry)\");\n\n    /// @dev A record of states for signing / validating signatures\n    mapping(address => uint256) public nonces;\n\n    /// @dev An event thats emitted when an account changes its delegate\n    event DelegateChanged(\n        address indexed delegator,\n        address indexed fromDelegate,\n        address indexed toDelegate\n    );\n\n    /// @dev An event thats emitted when a delegate account's vote balance changes\n    event DelegateVotesChanged(\n        address indexed delegate,\n        uint256 previousBalance,\n        uint256 newBalance\n    );\n\n    /// @dev The standard EIP-20 transfer event\n    event Transfer(address indexed from, address indexed to, uint256 amount);\n\n    /// @dev The standard EIP-20 approval event\n    event Approval(\n        address indexed owner,\n        address indexed spender,\n        uint256 amount\n    );\n\n    /**\n     * @dev Construct a new Pxa token\n     * @param _account Proxima Vault. All minted tokens are stored safely in vault\n     */\n    constructor(address _account) public {\n        _totalSupply = safe96(\n            10000000e18,\n            \"Pxa::_totalSupply: amount exceeds 96 bits\"\n        ); //10 million PXA\n        balances[_account] = _totalSupply;\n    }\n\n    /**\n     * @dev Get the number of tokens `spender` is approved to spend on behalf of `account`\n     * @param account The address of the account holding the funds\n     * @param spender The address of the account spending the funds\n     * @return The number of tokens approved\n     */\n    function allowance(address account, address spender)\n        external\n        view\n        returns (uint256)\n    {\n        return allowances[account][spender];\n    }\n\n    /**\n     * @dev Approve `spender` to transfer up to `amount` from `src`\n     * @dev This will overwrite the approval amount for `spender`\n     *  and is subject to issues noted [here](https://eips.ethereum.org/EIPS/eip-20#approve)\n     * @param spender The address of the account which may transfer tokens\n     * @param rawAmount The number of tokens that are approved (2^256-1 means infinite)\n     * @return Whether or not the approval succeeded\n     */\n    function approve(address spender, uint256 rawAmount)\n        external\n        returns (bool)\n    {\n        uint96 amount;\n        if (rawAmount == uint256(-1)) {\n            amount = uint96(-1);\n        } else {\n            amount = safe96(rawAmount, \"Pxa::approve: amount exceeds 96 bits\");\n        }\n\n        allowances[msg.sender][spender] = amount;\n\n        emit Approval(msg.sender, spender, amount);\n        return true;\n    }\n\n    /**\n     * @dev Get the number of tokens held by the `account`\n     * @param account The address of the account to get the balance of\n     * @return The number of tokens held\n     */\n    function balanceOf(address account) external view returns (uint256) {\n        return balances[account];\n    }\n\n    /**\n     * @dev Get current `totalSupply` of tokens\n     * @return The number of tokens in circulation\n     */\n    function totalSupply() external view returns (uint256) {\n        return _totalSupply;\n    }\n\n    /**\n     * @dev Get `supplyBurned` of tokens\n     * @return The number of tokens burned till date\n     */\n    function totalBurned() external view returns (uint256) {\n        return _supplyBurned;\n    }\n\n    /**\n     * @dev Transfer `amount` tokens from `msg.sender` to `dst`\n     * @param dst The address of the destination account\n     * @param rawAmount The number of tokens to transfer\n     * @return Whether or not the transfer succeeded\n     */\n    function transfer(address dst, uint256 rawAmount) public returns (bool) {\n        uint96 amount =\n            safe96(rawAmount, \"Pxa::transfer: amount exceeds 96 bits\");\n        _transferTokens(msg.sender, dst, amount);\n        return true;\n    }\n\n    /**\n     * @dev Burn `amount` tokens from `msg.sender`\n     * @param rawAmount The number of tokens to transfer\n     * @return Whether or not the burn succeeded\n     */\n    function burn(uint256 rawAmount) external returns (bool) {\n        uint96 amount = safe96(rawAmount, \"Pxa::burn: amount exceeds 96 bits\");\n        _burnTokens(msg.sender, amount);\n        return true;\n    }\n\n    /**\n     * @dev Transfer `amount` tokens from `src` to `dst`\n     * @param src The address of the source account\n     * @param dst The address of the destination account\n     * @param rawAmount The number of tokens to transfer\n     * @return Whether or not the transfer succeeded\n     */\n    function transferFrom(\n        address src,\n        address dst,\n        uint256 rawAmount\n    ) external returns (bool) {\n        address spender = msg.sender;\n        uint96 spenderAllowance = allowances[src][spender];\n        uint96 amount =\n            safe96(rawAmount, \"Pxa::approve: amount exceeds 96 bits\");\n\n        if (spender != src && spenderAllowance != uint96(-1)) {\n            uint96 newAllowance =\n                sub96(\n                    spenderAllowance,\n                    amount,\n                    \"Pxa::transferFrom: transfer amount exceeds spender allowance\"\n                );\n            allowances[src][spender] = newAllowance;\n\n            emit Approval(src, spender, newAllowance);\n        }\n\n        _transferTokens(src, dst, amount);\n        return true;\n    }\n\n    /**\n     * @dev Delegate votes from `msg.sender` to `delegatee`\n     * @param delegatee The address to delegate votes to\n     */\n    function delegate(address delegatee) public {\n        return _delegate(msg.sender, delegatee);\n    }\n\n    /**\n     * @dev Delegates votes from signatory to `delegatee`\n     * @param delegatee The address to delegate votes to\n     * @param nonce The contract state required to match the signature\n     * @param expiry The time at which to expire the signature\n     * @param v The recovery byte of the signature\n     * @param r Half of the ECDSA signature pair\n     * @param s Half of the ECDSA signature pair\n     */\n    function delegateBySig(\n        address delegatee,\n        uint256 nonce,\n        uint256 expiry,\n        uint8 v,\n        bytes32 r,\n        bytes32 s\n    ) public {\n        bytes32 domainSeparator =\n            keccak256(\n                abi.encode(\n                    DOMAIN_TYPEHASH,\n                    keccak256(bytes(name)),\n                    getChainId(),\n                    address(this)\n                )\n            );\n        bytes32 structHash =\n            keccak256(\n                abi.encode(DELEGATION_TYPEHASH, delegatee, nonce, expiry)\n            );\n        bytes32 digest =\n            keccak256(\n                abi.encodePacked(\"\\x19\\x01\", domainSeparator, structHash)\n            );\n        address signatory = ecrecover(digest, v, r, s);\n        require(\n            signatory != address(0),\n            \"Pxa::delegateBySig: invalid signature\"\n        );\n        require(\n            nonce == nonces[signatory]++,\n            \"Pxa::delegateBySig: invalid nonce\"\n        );\n        require(now <= expiry, \"Pxa::delegateBySig: signature expired\");\n        return _delegate(signatory, delegatee);\n    }\n\n    /**\n     * @dev Gets the current votes balance for `account`\n     * @param account The address to get votes balance\n     * @return The number of current votes for `account`\n     */\n    function getCurrentVotes(address account) external view returns (uint96) {\n        uint32 nCheckpoints = numCheckpoints[account];\n        return\n            nCheckpoints > 0 ? checkpoints[account][nCheckpoints - 1].votes : 0;\n    }\n\n    /**\n     * @dev Determine the prior number of votes for an account as of a block number\n     * @dev Block number must be a finalized block or else this function will revert to prevent misinformation.\n     * @param account The address of the account to check\n     * @param blockNumber The block number to get the vote balance at\n     * @return The number of votes the account had as of the given block\n     */\n    function getPriorVotes(address account, uint256 blockNumber)\n        public\n        view\n        returns (uint96)\n    {\n        require(\n            blockNumber < block.number,\n            \"Pxa::getPriorVotes: not yet determined\"\n        );\n\n        uint32 nCheckpoints = numCheckpoints[account];\n        if (nCheckpoints == 0) {\n            return 0;\n        }\n\n        // First check most recent balance\n        if (checkpoints[account][nCheckpoints - 1].fromBlock <= blockNumber) {\n            return checkpoints[account][nCheckpoints - 1].votes;\n        }\n\n        // Next check implicit zero balance\n        if (checkpoints[account][0].fromBlock > blockNumber) {\n            return 0;\n        }\n\n        uint32 lower = 0;\n        uint32 upper = nCheckpoints - 1;\n        while (upper > lower) {\n            uint32 center = upper - (upper - lower) / 2; // ceil, avoiding overflow\n            Checkpoint memory cp = checkpoints[account][center];\n            if (cp.fromBlock == blockNumber) {\n                return cp.votes;\n            } else if (cp.fromBlock < blockNumber) {\n                lower = center;\n            } else {\n                upper = center - 1;\n            }\n        }\n        return checkpoints[account][lower].votes;\n    }\n\n    function _delegate(address delegator, address delegatee) internal {\n        address currentDelegate = delegates[delegator];\n        uint96 delegatorBalance = balances[delegator];\n        delegates[delegator] = delegatee;\n\n        emit DelegateChanged(delegator, currentDelegate, delegatee);\n\n        _moveDelegates(currentDelegate, delegatee, delegatorBalance);\n    }\n\n    function _transferTokens(\n        address src,\n        address dst,\n        uint96 amount\n    ) internal {\n        require(\n            src != address(0),\n            \"Pxa::_transferTokens: cannot transfer from the zero address\"\n        );\n        require(\n            dst != address(0),\n            \"Pxa::_transferTokens: cannot transfer to the zero address\"\n        );\n\n        balances[src] = sub96(\n            balances[src],\n            amount,\n            \"Pxa::_transferTokens: transfer amount exceeds balance\"\n        );\n        balances[dst] = add96(\n            balances[dst],\n            amount,\n            \"Pxa::_transferTokens: transfer amount overflows\"\n        );\n        emit Transfer(src, dst, amount);\n\n        _moveDelegates(delegates[src], delegates[dst], amount);\n    }\n\n    function _burnTokens(address src, uint96 amount) internal {\n        balances[src] = sub96(\n            balances[src],\n            amount,\n            \"Pxa::_burn: burn amount exceeds balance\"\n        );\n        _totalSupply = sub96(\n            _totalSupply,\n            amount,\n            \"Pxa::_burn: burn amount exceeds balance\"\n        );\n        _supplyBurned = add96(\n            _supplyBurned,\n            amount,\n            \"Pxa::_burn: burn amount overflows\"\n        );\n        emit Transfer(src, address(0), amount);\n        \n        _moveDelegates(delegates[src], delegates[address(0)], amount);\n    }\n\n    function _moveDelegates(\n        address srcRep,\n        address dstRep,\n        uint96 amount\n    ) internal {\n        if (srcRep != dstRep && amount > 0) {\n            if (srcRep != address(0)) {\n                uint32 srcRepNum = numCheckpoints[srcRep];\n                uint96 srcRepOld =\n                    srcRepNum > 0\n                        ? checkpoints[srcRep][srcRepNum - 1].votes\n                        : 0;\n                uint96 srcRepNew =\n                    sub96(\n                        srcRepOld,\n                        amount,\n                        \"Pxa::_moveVotes: vote amount underflows\"\n                    );\n                _writeCheckpoint(srcRep, srcRepNum, srcRepOld, srcRepNew);\n            }\n\n            if (dstRep != address(0)) {\n                uint32 dstRepNum = numCheckpoints[dstRep];\n                uint96 dstRepOld =\n                    dstRepNum > 0\n                        ? checkpoints[dstRep][dstRepNum - 1].votes\n                        : 0;\n                uint96 dstRepNew =\n                    add96(\n                        dstRepOld,\n                        amount,\n                        \"Pxa::_moveVotes: vote amount overflows\"\n                    );\n                _writeCheckpoint(dstRep, dstRepNum, dstRepOld, dstRepNew);\n            }\n        }\n    }\n\n    function _writeCheckpoint(\n        address delegatee,\n        uint32 nCheckpoints,\n        uint96 oldVotes,\n        uint96 newVotes\n    ) internal {\n        uint32 blockNumber =\n            safe32(\n                block.number,\n                \"Pxa::_writeCheckpoint: block number exceeds 32 bits\"\n            );\n\n        if (\n            nCheckpoints > 0 &&\n            checkpoints[delegatee][nCheckpoints - 1].fromBlock == blockNumber\n        ) {\n            checkpoints[delegatee][nCheckpoints - 1].votes = newVotes;\n        } else {\n            checkpoints[delegatee][nCheckpoints] = Checkpoint(\n                blockNumber,\n                newVotes\n            );\n            numCheckpoints[delegatee] = nCheckpoints + 1;\n        }\n\n        emit DelegateVotesChanged(delegatee, oldVotes, newVotes);\n    }\n\n    function safe32(uint256 n, string memory errorMessage)\n        internal\n        pure\n        returns (uint32)\n    {\n        require(n < 2**32, errorMessage);\n        return uint32(n);\n    }\n\n    function safe96(uint256 n, string memory errorMessage)\n        internal\n        pure\n        returns (uint96)\n    {\n        require(n < 2**96, errorMessage);\n        return uint96(n);\n    }\n\n    function add96(\n        uint96 a,\n        uint96 b,\n        string memory errorMessage\n    ) internal pure returns (uint96) {\n        uint96 c = a + b;\n        require(c >= a, errorMessage);\n        return c;\n    }\n\n    function sub96(\n        uint96 a,\n        uint96 b,\n        string memory errorMessage\n    ) internal pure returns (uint96) {\n        require(b <= a, errorMessage);\n        return a - b;\n    }\n\n    function getChainId() internal pure returns (uint256) {\n        uint256 chainId;\n        assembly {\n            chainId := chainid()\n        }\n        return chainId;\n    }\n}\n",
  "sourcePath": "/home/sagar/Desktop/project-Pxa/FINAL_SRELEASE/SolarRelease-Main/Mainnet/final/smartcontracts/tokenTranferAutomation/contracts/ProximaToken.sol",
  "compiler": {
    "name": "solc",
    "version": "0.6.12+commit.27d51765.Emscripten.clang"
  },
  "schemaVersion": "3.3.2",
  "updatedAt": "2021-03-23T12:49:32.966Z",
  "networkType": "ethereum",
  "devdoc": {
    "events": {
      "Approval(address,address,uint256)": {
        "details": "The standard EIP-20 approval event"
      },
      "DelegateChanged(address,address,address)": {
        "details": "An event thats emitted when an account changes its delegate"
      },
      "DelegateVotesChanged(address,uint256,uint256)": {
        "details": "An event thats emitted when a delegate account's vote balance changes"
      },
      "Transfer(address,address,uint256)": {
        "details": "The standard EIP-20 transfer event"
      }
    },
    "kind": "dev",
    "methods": {
      "allowance(address,address)": {
        "details": "Get the number of tokens `spender` is approved to spend on behalf of `account`",
        "params": {
          "account": "The address of the account holding the funds",
          "spender": "The address of the account spending the funds"
        },
        "returns": {
          "_0": "The number of tokens approved"
        }
      },
      "approve(address,uint256)": {
        "details": "Approve `spender` to transfer up to `amount` from `src`This will overwrite the approval amount for `spender`  and is subject to issues noted [here](https://eips.ethereum.org/EIPS/eip-20#approve)",
        "params": {
          "rawAmount": "The number of tokens that are approved (2^256-1 means infinite)",
          "spender": "The address of the account which may transfer tokens"
        },
        "returns": {
          "_0": "Whether or not the approval succeeded"
        }
      },
      "balanceOf(address)": {
        "details": "Get the number of tokens held by the `account`",
        "params": {
          "account": "The address of the account to get the balance of"
        },
        "returns": {
          "_0": "The number of tokens held"
        }
      },
      "burn(uint256)": {
        "details": "Burn `amount` tokens from `msg.sender`",
        "params": {
          "rawAmount": "The number of tokens to transfer"
        },
        "returns": {
          "_0": "Whether or not the burn succeeded"
        }
      },
      "constructor": {
        "details": "Construct a new Pxa token",
        "params": {
          "_account": "Proxima Vault. All minted tokens are stored safely in vault"
        }
      },
      "delegate(address)": {
        "details": "Delegate votes from `msg.sender` to `delegatee`",
        "params": {
          "delegatee": "The address to delegate votes to"
        }
      },
      "delegateBySig(address,uint256,uint256,uint8,bytes32,bytes32)": {
        "details": "Delegates votes from signatory to `delegatee`",
        "params": {
          "delegatee": "The address to delegate votes to",
          "expiry": "The time at which to expire the signature",
          "nonce": "The contract state required to match the signature",
          "r": "Half of the ECDSA signature pair",
          "s": "Half of the ECDSA signature pair",
          "v": "The recovery byte of the signature"
        }
      },
      "getCurrentVotes(address)": {
        "details": "Gets the current votes balance for `account`",
        "params": {
          "account": "The address to get votes balance"
        },
        "returns": {
          "_0": "The number of current votes for `account`"
        }
      },
      "getPriorVotes(address,uint256)": {
        "details": "Determine the prior number of votes for an account as of a block numberBlock number must be a finalized block or else this function will revert to prevent misinformation.",
        "params": {
          "account": "The address of the account to check",
          "blockNumber": "The block number to get the vote balance at"
        },
        "returns": {
          "_0": "The number of votes the account had as of the given block"
        }
      },
      "totalBurned()": {
        "details": "Get `supplyBurned` of tokens",
        "returns": {
          "_0": "The number of tokens burned till date"
        }
      },
      "totalSupply()": {
        "details": "Get current `totalSupply` of tokens",
        "returns": {
          "_0": "The number of tokens in circulation"
        }
      },
      "transfer(address,uint256)": {
        "details": "Transfer `amount` tokens from `msg.sender` to `dst`",
        "params": {
          "dst": "The address of the destination account",
          "rawAmount": "The number of tokens to transfer"
        },
        "returns": {
          "_0": "Whether or not the transfer succeeded"
        }
      },
      "transferFrom(address,address,uint256)": {
        "details": "Transfer `amount` tokens from `src` to `dst`",
        "params": {
          "dst": "The address of the destination account",
          "rawAmount": "The number of tokens to transfer",
          "src": "The address of the source account"
        },
        "returns": {
          "_0": "Whether or not the transfer succeeded"
        }
      }
    },
    "stateVariables": {
      "DELEGATION_TYPEHASH": {
        "details": "The EIP-712 typehash for the delegation struct used by the contract"
      },
      "DOMAIN_TYPEHASH": {
        "details": "The EIP-712 typehash for the contract's domain"
      },
      "_supplyBurned": {
        "details": "Total number of tokens burned"
      },
      "_totalSupply": {
        "details": "Total number of tokens in current circulation"
      },
      "allowances": {
        "details": "Allowance amounts on behalf of others"
      },
      "balances": {
        "details": "Official record of token balances for each account"
      },
      "checkpoints": {
        "details": "A record of votes checkpoints for each account, by index"
      },
      "decimals": {
        "details": "EIP-20 token decimals for this token"
      },
      "delegates": {
        "details": "A record of each accounts delegate"
      },
      "name": {
        "details": "EIP-20 token name for this token"
      },
      "nonces": {
        "details": "A record of states for signing / validating signatures"
      },
      "numCheckpoints": {
        "details": "The number of checkpoints for each account"
      },
      "symbol": {
        "details": "EIP-20 token symbol for this token"
      }
    },
    "title": ": ProximaToken",
    "version": 1
  },
  "userdoc": {
    "kind": "user",
    "methods": {},
    "notice": ": Copied and modified from COMPOUND: https://github.com/compound-finance/compound-protocol/blob/master/contracts/Governance/Comp.sol Modified by ProximusAlpha",
    "version": 1
  }
}