{
  "contractName": "ProximaLiquidityRewardVault",
  "abi": [
    {
      "inputs": [
        {
          "internalType": "contract IERC20",
          "name": "_pxa",
          "type": "address"
        },
        {
          "internalType": "address",
          "name": "_setter",
          "type": "address"
        }
      ],
      "stateMutability": "nonpayable",
      "type": "constructor"
    },
    {
      "anonymous": false,
      "inputs": [
        {
          "indexed": false,
          "internalType": "address",
          "name": "releasedTo",
          "type": "address"
        },
        {
          "indexed": false,
          "internalType": "uint256",
          "name": "releasedAmount",
          "type": "uint256"
        }
      ],
      "name": "pairRewardClaim",
      "type": "event"
    },
    {
      "anonymous": false,
      "inputs": [
        {
          "indexed": false,
          "internalType": "address[]",
          "name": "pairs",
          "type": "address[]"
        },
        {
          "indexed": false,
          "internalType": "address",
          "name": "user",
          "type": "address"
        },
        {
          "indexed": false,
          "internalType": "uint256",
          "name": "totalLocked",
          "type": "uint256"
        }
      ],
      "name": "rewardLocked",
      "type": "event"
    },
    {
      "anonymous": false,
      "inputs": [
        {
          "indexed": true,
          "internalType": "address",
          "name": "releasedTo",
          "type": "address"
        },
        {
          "indexed": false,
          "internalType": "uint256",
          "name": "releasedAmount",
          "type": "uint256"
        }
      ],
      "name": "userRewardClaim",
      "type": "event"
    },
    {
      "inputs": [],
      "name": "factory",
      "outputs": [
        {
          "internalType": "address",
          "name": "",
          "type": "address"
        }
      ],
      "stateMutability": "view",
      "type": "function",
      "constant": true
    },
    {
      "inputs": [],
      "name": "governance",
      "outputs": [
        {
          "internalType": "address",
          "name": "",
          "type": "address"
        }
      ],
      "stateMutability": "view",
      "type": "function",
      "constant": true
    },
    {
      "inputs": [
        {
          "internalType": "address",
          "name": "",
          "type": "address"
        }
      ],
      "name": "pairPendingRewards",
      "outputs": [
        {
          "internalType": "uint256",
          "name": "",
          "type": "uint256"
        }
      ],
      "stateMutability": "view",
      "type": "function",
      "constant": true
    },
    {
      "inputs": [],
      "name": "pxa",
      "outputs": [
        {
          "internalType": "contract IERC20",
          "name": "",
          "type": "address"
        }
      ],
      "stateMutability": "view",
      "type": "function",
      "constant": true
    },
    {
      "inputs": [],
      "name": "router",
      "outputs": [
        {
          "internalType": "address",
          "name": "",
          "type": "address"
        }
      ],
      "stateMutability": "view",
      "type": "function",
      "constant": true
    },
    {
      "inputs": [],
      "name": "setter",
      "outputs": [
        {
          "internalType": "address",
          "name": "",
          "type": "address"
        }
      ],
      "stateMutability": "view",
      "type": "function",
      "constant": true
    },
    {
      "inputs": [
        {
          "internalType": "address",
          "name": "",
          "type": "address"
        }
      ],
      "name": "userPendingRewards",
      "outputs": [
        {
          "internalType": "uint256",
          "name": "",
          "type": "uint256"
        }
      ],
      "stateMutability": "view",
      "type": "function",
      "constant": true
    },
    {
      "inputs": [
        {
          "internalType": "address",
          "name": "",
          "type": "address"
        }
      ],
      "name": "whiteListedPairs",
      "outputs": [
        {
          "internalType": "bool",
          "name": "",
          "type": "bool"
        }
      ],
      "stateMutability": "view",
      "type": "function",
      "constant": true
    },
    {
      "inputs": [
        {
          "internalType": "address[]",
          "name": "pairs",
          "type": "address[]"
        },
        {
          "internalType": "address",
          "name": "_who",
          "type": "address"
        }
      ],
      "name": "lockShares",
      "outputs": [
        {
          "internalType": "bool",
          "name": "",
          "type": "bool"
        }
      ],
      "stateMutability": "nonpayable",
      "type": "function"
    },
    {
      "inputs": [],
      "name": "releasePairShare",
      "outputs": [
        {
          "internalType": "bool",
          "name": "",
          "type": "bool"
        }
      ],
      "stateMutability": "nonpayable",
      "type": "function"
    },
    {
      "inputs": [],
      "name": "releaseUserShare",
      "outputs": [
        {
          "internalType": "bool",
          "name": "",
          "type": "bool"
        }
      ],
      "stateMutability": "nonpayable",
      "type": "function"
    },
    {
      "inputs": [
        {
          "internalType": "address",
          "name": "pair",
          "type": "address"
        },
        {
          "internalType": "bool",
          "name": "sentiment",
          "type": "bool"
        }
      ],
      "name": "applyGovernance",
      "outputs": [
        {
          "internalType": "bool",
          "name": "",
          "type": "bool"
        }
      ],
      "stateMutability": "nonpayable",
      "type": "function"
    },
    {
      "inputs": [
        {
          "internalType": "address",
          "name": "_pair",
          "type": "address"
        }
      ],
      "name": "exemptedPair",
      "outputs": [
        {
          "internalType": "bool",
          "name": "",
          "type": "bool"
        }
      ],
      "stateMutability": "nonpayable",
      "type": "function"
    },
    {
      "inputs": [],
      "name": "getCurrentDistribution",
      "outputs": [
        {
          "internalType": "uint256",
          "name": "",
          "type": "uint256"
        }
      ],
      "stateMutability": "view",
      "type": "function",
      "constant": true
    },
    {
      "inputs": [],
      "name": "safeBalance",
      "outputs": [
        {
          "internalType": "uint256",
          "name": "",
          "type": "uint256"
        }
      ],
      "stateMutability": "view",
      "type": "function",
      "constant": true
    },
    {
      "inputs": [
        {
          "internalType": "address",
          "name": "_who",
          "type": "address"
        }
      ],
      "name": "getUserPendingShares",
      "outputs": [
        {
          "internalType": "uint256",
          "name": "",
          "type": "uint256"
        }
      ],
      "stateMutability": "view",
      "type": "function",
      "constant": true
    },
    {
      "inputs": [
        {
          "internalType": "address",
          "name": "_who",
          "type": "address"
        }
      ],
      "name": "getPairPendingShares",
      "outputs": [
        {
          "internalType": "uint256",
          "name": "",
          "type": "uint256"
        }
      ],
      "stateMutability": "view",
      "type": "function",
      "constant": true
    },
    {
      "inputs": [
        {
          "internalType": "address",
          "name": "_governance",
          "type": "address"
        }
      ],
      "name": "setPairGovernor",
      "outputs": [],
      "stateMutability": "nonpayable",
      "type": "function"
    },
    {
      "inputs": [
        {
          "internalType": "address",
          "name": "_setter",
          "type": "address"
        }
      ],
      "name": "setSetter",
      "outputs": [],
      "stateMutability": "nonpayable",
      "type": "function"
    },
    {
      "inputs": [
        {
          "internalType": "address",
          "name": "_router",
          "type": "address"
        }
      ],
      "name": "setRouter",
      "outputs": [],
      "stateMutability": "nonpayable",
      "type": "function"
    },
    {
      "inputs": [
        {
          "internalType": "address",
          "name": "_factory",
          "type": "address"
        }
      ],
      "name": "setFactory",
      "outputs": [],
      "stateMutability": "nonpayable",
      "type": "function"
    }
  ],
  "bytecode": "0x60806040526298968060065534801561001757600080fd5b506040516110db3803806110db8339818101604052604081101561003a57600080fd5b508051602090910151600080546001600160a01b039384166001600160a01b031991821617825560048054949093169316929092179055600555611058806100836000396000f3fe608060405234801561001057600080fd5b50600436106101375760003560e01c80637c24d748116100b8578063c45a01551161007c578063c45a015514610396578063ce509f8d1461039e578063d78e8860146103a6578063f887ea40146103cc578063f99aa03d146103d4578063fc9d7711146103fa57610137565b80637c24d748146103145780637df0dd211461031c57806388780b8e14610342578063c0d786551461034a578063c161bac01461037057610137565b806359c67a4c116100ff57806359c67a4c146102085780635aa6e675146102b65780635bb47808146102be5780636821dfe8146102e657806370eb01cb146102ee57610137565b80630195577e1461013c578063057ed46a146101765780631e3a23fe1461017e5780632e2dc062146101ac5780633f3108f7146101e4575b600080fd5b6101626004803603602081101561015257600080fd5b50356001600160a01b0316610420565b604080519115158252519081900360200190f35b610162610484565b6101626004803603604081101561019457600080fd5b506001600160a01b038135169060200135151561054e565b6101d2600480360360208110156101c257600080fd5b50356001600160a01b031661061b565b60408051918252519081900360200190f35b6101ec610636565b604080516001600160a01b039092168252519081900360200190f35b6101626004803603604081101561021e57600080fd5b81019060208101813564010000000081111561023957600080fd5b82018360208201111561024b57600080fd5b8035906020019184602083028401116401000000008311171561026d57600080fd5b919080806020026020016040519081016040528093929190818152602001838360200280828437600092019190915250929550505090356001600160a01b031691506106459050565b6101ec610931565b6102e4600480360360208110156102d457600080fd5b50356001600160a01b0316610940565b005b6101d26109b3565b6101d26004803603602081101561030457600080fd5b50356001600160a01b03166109f1565b610162610a0c565b6101d26004803603602081101561033257600080fd5b50356001600160a01b0316610ad1565b6101d2610ae3565b6102e46004803603602081101561036057600080fd5b50356001600160a01b0316610b60565b6101626004803603602081101561038657600080fd5b50356001600160a01b0316610bd3565b6101ec610be8565b6101ec610bf7565b6102e4600480360360208110156103bc57600080fd5b50356001600160a01b0316610c06565b6101ec610c79565b6102e4600480360360208110156103ea57600080fd5b50356001600160a01b0316610c88565b6101d26004803603602081101561041057600080fd5b50356001600160a01b0316610cfb565b6003546000906001600160a01b03163314610475576040805162461bcd60e51b815260206004820152601060248201526f2826292b101d102327a92124a22222a760811b604482015290519081900360640190fd5b61047e82610d0d565b92915050565b33600090815260086020526040812054806104e1576040805162461bcd60e51b8152602060048201526018602482015277504c52563a204e6f2070656e64696e67207265776172647360401b604482015290519081900360640190fd5b336000818152600860205260408120556104fb9082610d35565b6005546105089082610e5f565b600555604080513381526020810183905281517ff3c0c56a39724b9129b7f40dddcaf12dd8bff16560ad04f9d3c7a72be1a3c64f929181900390910190a1600191505090565b6001546000906001600160a01b031633146105a8576040805162461bcd60e51b815260206004820152601560248201527402826292b1d102737ba1033b7bb32b93730b731b29605d1b604482015290519081900360640190fd5b6001600160a01b03831660009081526008602052604090205480156105fb576001600160a01b0384166000908152600860205260408120556105ea8482610d35565b6005546105f79082610e5f565b6005555b82156106125761060a84610d0d565b91505061047e565b61060a84610ebc565b6001600160a01b031660009081526009602052604090205490565b6004546001600160a01b031681565b6002546000906001600160a01b0316331461069b576040805162461bcd60e51b815260206004820152601160248201527002826292b1d102737ba103937baba32b91607d1b604482015290519081900360640190fd5b6000805b60018551038160ff1610156108095760035485516000916001600160a01b03169063e6a4390590889060ff86169081106106d557fe5b6020026020010151888560010160ff16815181106106ef57fe5b60200260200101516040518363ffffffff1660e01b815260040180836001600160a01b03168152602001826001600160a01b031681526020019250505060206040518083038186803b15801561074457600080fd5b505afa158015610758573d6000803e3d6000fd5b505050506040513d602081101561076e57600080fd5b50516001600160a01b03811660009081526007602052604090205490915060ff161515600114156108005760006107a36109b3565b90506107af8482610ee0565b6005549094506107bf9082610ee0565b6005556001600160a01b0382166000908152600860205260409020546107e59082610ee0565b6001600160a01b038316600090815260086020526040902055505b5060010161069f565b508015610899576000610826855183610f4190919063ffffffff16565b9050600285511161083f5761083c816002610f41565b90505b60055461084c9082610ee0565b6005556001600160a01b0384166000908152600960205260409020546108729082610ee0565b6001600160a01b0385166000908152600960205260409020556108958282610ee0565b9150505b7fe9032d7ca421be60b6308f405fabaabe0204b093f5a5a7284bd15011dd39bcab8484836040518080602001846001600160a01b03168152602001838152602001828103825285818151815260200191508051906020019060200280838360005b838110156109125781810151838201526020016108fa565b5050505090500194505050505060405180910390a15060019392505050565b6001546001600160a01b031681565b6004546001600160a01b03163314610991576040805162461bcd60e51b815260206004820152600f60248201526e2826292b1d102327a92124a22222a760891b604482015290519081900360640190fd5b600380546001600160a01b0319166001600160a01b0392909216919091179055565b6000806109ca6005546109c4610ae3565b90610e5f565b905060006109d9826008610fa8565b9050600060065482816109e857fe5b04935050505090565b6001600160a01b031660009081526008602052604090205490565b3360009081526009602052604081205480610a69576040805162461bcd60e51b8152602060048201526018602482015277504c52563a204e6f2070656e64696e67207265776172647360401b604482015290519081900360640190fd5b33600081815260096020526040812055610a839082610d35565b600554610a909082610e5f565b60055560408051828152905133917f470f3ccbae09b832bd60d3b3ab9b6e1f73b2497688e4d6cbb5c94160de62ab0b919081900360200190a2600191505090565b60086020526000908152604090205481565b60008054604080516370a0823160e01b815230600482015290516001600160a01b03909216916370a0823191602480820192602092909190829003018186803b158015610b2f57600080fd5b505afa158015610b43573d6000803e3d6000fd5b505050506040513d6020811015610b5957600080fd5b5051905090565b6004546001600160a01b03163314610bb1576040805162461bcd60e51b815260206004820152600f60248201526e2826292b1d102327a92124a22222a760891b604482015290519081900360640190fd5b600280546001600160a01b0319166001600160a01b0392909216919091179055565b60076020526000908152604090205460ff1681565b6003546001600160a01b031681565b6000546001600160a01b031681565b6004546001600160a01b03163314610c57576040805162461bcd60e51b815260206004820152600f60248201526e2826292b1d102327a92124a22222a760891b604482015290519081900360640190fd5b600180546001600160a01b0319166001600160a01b0392909216919091179055565b6002546001600160a01b031681565b6004546001600160a01b03163314610cd9576040805162461bcd60e51b815260206004820152600f60248201526e2826292b1d102327a92124a22222a760891b604482015290519081900360640190fd5b600480546001600160a01b0319166001600160a01b0392909216919091179055565b60096020526000908152604090205481565b6001600160a01b03166000908152600760205260409020805460ff1916600190811790915590565b6000610d3f610ae3565b905080821115610dd457600080546040805163a9059cbb60e01b81526001600160a01b038781166004830152602482018690529151919092169263a9059cbb92604480820193602093909283900390910190829087803b158015610da257600080fd5b505af1158015610db6573d6000803e3d6000fd5b505050506040513d6020811015610dcc57600080fd5b50610e5a9050565b600080546040805163a9059cbb60e01b81526001600160a01b038781166004830152602482018790529151919092169263a9059cbb92604480820193602093909283900390910190829087803b158015610e2d57600080fd5b505af1158015610e41573d6000803e3d6000fd5b505050506040513d6020811015610e5757600080fd5b50505b505050565b600082821115610eb6576040805162461bcd60e51b815260206004820152601e60248201527f536166654d6174683a207375627472616374696f6e206f766572666c6f770000604482015290519081900360640190fd5b50900390565b6001600160a01b03166000908152600760205260409020805460ff19169055600190565b600082820183811015610f3a576040805162461bcd60e51b815260206004820152601b60248201527f536166654d6174683a206164646974696f6e206f766572666c6f770000000000604482015290519081900360640190fd5b9392505050565b6000808211610f97576040805162461bcd60e51b815260206004820152601a60248201527f536166654d6174683a206469766973696f6e206279207a65726f000000000000604482015290519081900360640190fd5b818381610fa057fe5b049392505050565b600082610fb75750600061047e565b82820282848281610fc457fe5b0414610f3a5760405162461bcd60e51b81526004018080602001828103825260218152602001806110026021913960400191505060405180910390fdfe536166654d6174683a206d756c7469706c69636174696f6e206f766572666c6f77a26469706673582212206db9b6a6c7ad78fbfbcc3c205c01f68e2687c4730ee7da3bb13bb7d669e525cd64736f6c634300060c0033",
  "immutableReferences": {},
  "source": "// SPDX-License-Identifier: MIT\n\npragma solidity 0.6.12;\n\nimport \"@openzeppelin/contracts/token/ERC20/ERC20.sol\";\nimport \"@openzeppelin/contracts/token/ERC20/IERC20.sol\";\nimport \"@openzeppelin/contracts/math/SafeMath.sol\";\n\ninterface IFactory {\n    function getPair(address tokenA, address tokenB)\n        external\n        view\n        returns (address pair);\n}\n\n/**\n * @title : ProximaLiquidityRewardVault\n * Developed by ProximusAlpha\n */\n\ncontract ProximaLiquidityRewardVault {\n    using SafeMath for uint256;\n    /// @dev Proxima Token\n    IERC20 public pxa;\n    /// @dev Proxima Governor\n    address public governance;\n    /// @dev Proxima Router\n    address public router;\n    /// @dev Proxima Factory\n    address public factory;\n    /// @dev Proxima developer\n    address public setter;\n    /// @dev Pending pxa rewards\n    uint256 private totalPendingRewards;\n    /// @dev div const\n    uint256 private denominator = 10000000;\n\n    /// @dev Event emitted when new rewards are locked\n    event rewardLocked(address[] pairs, address user, uint256 totalLocked);\n    /// @dev Event emitted when LP retrieves rewards via pair\n    event pairRewardClaim(address releasedTo, uint256 releasedAmount);\n    /// @dev Event emitted when user withdraw rewards\n    event userRewardClaim(address indexed releasedTo, uint256 releasedAmount);\n\n    /// @dev Whitelist map\n    mapping(address => bool) public whiteListedPairs;\n    /// @dev Pair pending rewardmap\n    mapping(address => uint256) public pairPendingRewards;\n    /// @dev User pending reward map\n    mapping(address => uint256) public userPendingRewards;\n\n    /// @dev Governance modifier\n    modifier onlyGovernance() {\n        require(msg.sender == governance, \"PLRV: Not governance \");\n        _;\n    }\n    /// @dev Router modifier\n    modifier onlyRouter() {\n        require(msg.sender == router, \"PLRV: Not router \");\n        _;\n    }\n\n    /// @dev Sets mandate\n    constructor(IERC20 _pxa, address _setter) public {\n        pxa = _pxa;\n        setter = _setter;\n        totalPendingRewards = 0;\n    }\n\n    /// @dev Locks trade rewards for user and LP of pair(s)\n    function lockShares(address[] memory pairs, address _who)\n        external\n        onlyRouter\n        returns (bool)\n    {\n        uint256 totalPairAllocation = 0;\n\n        for (uint8 i = 0; i < pairs.length - 1; i++) {\n            address forPair = IFactory(factory).getPair(pairs[i], pairs[i + 1]);\n            if (whiteListedPairs[forPair] == true) {\n                uint256 pairShare = getCurrentDistribution();\n                totalPairAllocation = totalPairAllocation.add(pairShare);\n                totalPendingRewards = totalPendingRewards.add(pairShare);\n                pairPendingRewards[forPair] = pairPendingRewards[forPair].add(\n                    pairShare\n                );\n            }\n        }\n        if (totalPairAllocation > 0) {\n            uint256 userShare = totalPairAllocation.div(pairs.length);\n            if (pairs.length <= 2) {\n                userShare = userShare.div(2); // direct pair trade reward correction\n            }\n            totalPendingRewards = totalPendingRewards.add(userShare);\n            userPendingRewards[_who] = userPendingRewards[_who].add(userShare);\n            totalPairAllocation = totalPairAllocation.add(userShare);\n        }\n        emit rewardLocked(pairs, _who, totalPairAllocation);\n        return true;\n    }\n\n    /// @dev Release accu. rewards for pair\n    function releasePairShare() external returns (bool) {\n        uint256 pairShare = pairPendingRewards[msg.sender];\n        require(pairShare > 0, \"PLRV: No pending rewards\");\n        pairPendingRewards[msg.sender] = 0;\n        safePxaTransfer(msg.sender, pairShare);\n        totalPendingRewards = totalPendingRewards.sub(pairShare);\n        emit pairRewardClaim(msg.sender, pairShare);\n        return true;\n    }\n\n    /// @dev Release accu. rewards for user\n    function releaseUserShare() external returns (bool) {\n        uint256 userShare = userPendingRewards[msg.sender];\n        require(userShare > 0, \"PLRV: No pending rewards\");\n        userPendingRewards[msg.sender] = 0;\n        safePxaTransfer(msg.sender, userShare);\n        totalPendingRewards = totalPendingRewards.sub(userShare);\n        emit userRewardClaim(msg.sender, userShare);\n        return true;\n    }\n\n    /// @dev Sets governance on pair\n    function applyGovernance(address pair, bool sentiment)\n        external\n        onlyGovernance\n        returns (bool)\n    {\n        uint256 pairShare = pairPendingRewards[pair];\n        if (pairShare > 0) {\n            pairPendingRewards[pair] = 0;\n            safePxaTransfer(pair, pairShare);\n            totalPendingRewards = totalPendingRewards.sub(pairShare);\n        }\n        if (sentiment) {\n            return sewPairSupply(pair);\n        } else {\n            return slashPairSupply(pair);\n        }\n    }\n\n    function sewPairSupply(address pair) internal returns (bool) {\n        whiteListedPairs[pair] = true;\n        return true;\n    }\n\n    function slashPairSupply(address pair) internal returns (bool) {\n        whiteListedPairs[pair] = false;\n        return true; /// @dev Release accu. rewards for pair\n    }\n\n    /// @dev Whilelist pairs directly\n    function exemptedPair(address _pair) external returns (bool) {\n        require(msg.sender == factory, \"PLRV : FORBIDDEN\");\n        return sewPairSupply(_pair);\n    }\n\n    /// @dev Safe pxa token transfer\n    function safePxaTransfer(address _to, uint256 _amount) internal {\n        uint256 PxaBal = safeBalance();\n        if (_amount > PxaBal) {\n            pxa.transfer(_to, PxaBal);\n        } else {\n            pxa.transfer(_to, _amount);\n        }\n    }\n\n    /// @dev Returns current reward distribution . Calculated by x percent of reward pools total weight\n    function getCurrentDistribution() public view returns (uint256) {\n        uint256 safeAmount = (safeBalance()).sub(totalPendingRewards);\n        uint256 numerator = safeAmount.mul(8);\n        uint256 share = numerator / denominator;\n        return (share);\n    }\n\n    /// @dev Returns rewardVault balance\n    function safeBalance() public view returns (uint256) {\n        return pxa.balanceOf(address(this));\n    }\n\n    /// @dev Ruturns user pending rewards\n    function getUserPendingShares(address _who)\n        external\n        view\n        returns (uint256)\n    {\n        return userPendingRewards[_who];\n    }\n\n    /// @dev Returns Pair pending rewards\n    function getPairPendingShares(address _who)\n        external\n        view\n        returns (uint256)\n    {\n        return pairPendingRewards[_who];\n    }\n\n    /// @dev Sets Governance\n    function setPairGovernor(address _governance) external {\n        require(msg.sender == setter, \"PLRV: FORBIDDEN\");\n        governance = _governance;\n    }\n\n    /// @dev Sets proxima developer address\n    function setSetter(address _setter) external {\n        require(msg.sender == setter, \"PLRV: FORBIDDEN\");\n        setter = _setter;\n    }\n\n    /// @dev Sets Proxima router\n    function setRouter(address _router) external {\n        require(msg.sender == setter, \"PLRV: FORBIDDEN\");\n        router = _router;\n    }\n\n    /// @dev Sets Proxima factory\n    function setFactory(address _factory) external {\n        require(msg.sender == setter, \"PLRV: FORBIDDEN\");\n        factory = _factory;\n    }\n}\n",
  "sourcePath": "/home/sagar/Desktop/project-Pxa/FINAL_SRELEASE/SolarRelease-Main/Mainnet/final/smartcontracts/Proxima-periphery/contracts/ProximaLiquidityRewardVault.sol",
  "compiler": {
    "name": "solc",
    "version": "0.6.12+commit.27d51765.Emscripten.clang"
  },
  "schemaVersion": "3.3.2",
  "updatedAt": "2021-03-23T12:18:18.781Z",
  "networkType": "ethereum",
  "devdoc": {
    "events": {
      "pairRewardClaim(address,uint256)": {
        "details": "Event emitted when LP retrieves rewards via pair"
      },
      "rewardLocked(address[],address,uint256)": {
        "details": "Event emitted when new rewards are locked"
      },
      "userRewardClaim(address,uint256)": {
        "details": "Event emitted when user withdraw rewards"
      }
    },
    "kind": "dev",
    "methods": {
      "applyGovernance(address,bool)": {
        "details": "Sets governance on pair"
      },
      "constructor": {
        "details": "Sets mandate"
      },
      "exemptedPair(address)": {
        "details": "Whilelist pairs directly"
      },
      "getCurrentDistribution()": {
        "details": "Returns current reward distribution . Calculated by x percent of reward pools total weight"
      },
      "getPairPendingShares(address)": {
        "details": "Returns Pair pending rewards"
      },
      "getUserPendingShares(address)": {
        "details": "Ruturns user pending rewards"
      },
      "lockShares(address[],address)": {
        "details": "Locks trade rewards for user and LP of pair(s)"
      },
      "releasePairShare()": {
        "details": "Release accu. rewards for pair"
      },
      "releaseUserShare()": {
        "details": "Release accu. rewards for user"
      },
      "safeBalance()": {
        "details": "Returns rewardVault balance"
      },
      "setFactory(address)": {
        "details": "Sets Proxima factory"
      },
      "setPairGovernor(address)": {
        "details": "Sets Governance"
      },
      "setRouter(address)": {
        "details": "Sets Proxima router"
      },
      "setSetter(address)": {
        "details": "Sets proxima developer address"
      }
    },
    "stateVariables": {
      "denominator": {
        "details": "div const"
      },
      "factory": {
        "details": "Proxima Factory"
      },
      "governance": {
        "details": "Proxima Governor"
      },
      "pairPendingRewards": {
        "details": "Pair pending rewardmap"
      },
      "pxa": {
        "details": "Proxima Token"
      },
      "router": {
        "details": "Proxima Router"
      },
      "setter": {
        "details": "Proxima developer"
      },
      "totalPendingRewards": {
        "details": "Pending pxa rewards"
      },
      "userPendingRewards": {
        "details": "User pending reward map"
      },
      "whiteListedPairs": {
        "details": "Whitelist map"
      }
    },
    "title": ": ProximaLiquidityRewardVault Developed by ProximusAlpha",
    "version": 1
  },
  "userdoc": {
    "kind": "user",
    "methods": {},
    "version": 1
  }
}