{
  "contractName": "UniswapV2Router02",
  "abi": [
    {
      "inputs": [
        {
          "internalType": "address",
          "name": "_factory",
          "type": "address"
        },
        {
          "internalType": "address",
          "name": "_WETH",
          "type": "address"
        },
        {
          "internalType": "address",
          "name": "_rewardVault",
          "type": "address"
        }
      ],
      "stateMutability": "nonpayable",
      "type": "constructor"
    },
    {
      "inputs": [],
      "name": "WBNB",
      "outputs": [
        {
          "internalType": "address",
          "name": "",
          "type": "address"
        }
      ],
      "stateMutability": "view",
      "type": "function",
      "constant": true
    },
    {
      "inputs": [],
      "name": "factory",
      "outputs": [
        {
          "internalType": "address",
          "name": "",
          "type": "address"
        }
      ],
      "stateMutability": "view",
      "type": "function",
      "constant": true
    },
    {
      "inputs": [],
      "name": "governor",
      "outputs": [
        {
          "internalType": "address",
          "name": "",
          "type": "address"
        }
      ],
      "stateMutability": "view",
      "type": "function",
      "constant": true
    },
    {
      "inputs": [],
      "name": "pairGovernance",
      "outputs": [
        {
          "internalType": "bool",
          "name": "",
          "type": "bool"
        }
      ],
      "stateMutability": "view",
      "type": "function",
      "constant": true
    },
    {
      "inputs": [],
      "name": "rewardVault",
      "outputs": [
        {
          "internalType": "address",
          "name": "",
          "type": "address"
        }
      ],
      "stateMutability": "view",
      "type": "function",
      "constant": true
    },
    {
      "stateMutability": "payable",
      "type": "receive",
      "payable": true
    },
    {
      "inputs": [
        {
          "internalType": "address",
          "name": "tokenA",
          "type": "address"
        },
        {
          "internalType": "address",
          "name": "tokenB",
          "type": "address"
        },
        {
          "internalType": "uint256",
          "name": "amountADesired",
          "type": "uint256"
        },
        {
          "internalType": "uint256",
          "name": "amountBDesired",
          "type": "uint256"
        },
        {
          "internalType": "uint256",
          "name": "amountAMin",
          "type": "uint256"
        },
        {
          "internalType": "uint256",
          "name": "amountBMin",
          "type": "uint256"
        },
        {
          "internalType": "address",
          "name": "to",
          "type": "address"
        },
        {
          "internalType": "uint256",
          "name": "deadline",
          "type": "uint256"
        }
      ],
      "name": "addLiquidity",
      "outputs": [
        {
          "internalType": "uint256",
          "name": "amountA",
          "type": "uint256"
        },
        {
          "internalType": "uint256",
          "name": "amountB",
          "type": "uint256"
        },
        {
          "internalType": "uint256",
          "name": "liquidity",
          "type": "uint256"
        }
      ],
      "stateMutability": "nonpayable",
      "type": "function"
    },
    {
      "inputs": [
        {
          "internalType": "address",
          "name": "token",
          "type": "address"
        },
        {
          "internalType": "uint256",
          "name": "amountTokenDesired",
          "type": "uint256"
        },
        {
          "internalType": "uint256",
          "name": "amountTokenMin",
          "type": "uint256"
        },
        {
          "internalType": "uint256",
          "name": "amountETHMin",
          "type": "uint256"
        },
        {
          "internalType": "address",
          "name": "to",
          "type": "address"
        },
        {
          "internalType": "uint256",
          "name": "deadline",
          "type": "uint256"
        }
      ],
      "name": "addLiquidityBNB",
      "outputs": [
        {
          "internalType": "uint256",
          "name": "amountToken",
          "type": "uint256"
        },
        {
          "internalType": "uint256",
          "name": "amountETH",
          "type": "uint256"
        },
        {
          "internalType": "uint256",
          "name": "liquidity",
          "type": "uint256"
        }
      ],
      "stateMutability": "payable",
      "type": "function",
      "payable": true
    },
    {
      "inputs": [
        {
          "internalType": "address",
          "name": "tokenA",
          "type": "address"
        },
        {
          "internalType": "address",
          "name": "tokenB",
          "type": "address"
        },
        {
          "internalType": "uint256",
          "name": "liquidity",
          "type": "uint256"
        },
        {
          "internalType": "uint256",
          "name": "amountAMin",
          "type": "uint256"
        },
        {
          "internalType": "uint256",
          "name": "amountBMin",
          "type": "uint256"
        },
        {
          "internalType": "address",
          "name": "to",
          "type": "address"
        },
        {
          "internalType": "uint256",
          "name": "deadline",
          "type": "uint256"
        }
      ],
      "name": "removeLiquidity",
      "outputs": [
        {
          "internalType": "uint256",
          "name": "amountA",
          "type": "uint256"
        },
        {
          "internalType": "uint256",
          "name": "amountB",
          "type": "uint256"
        }
      ],
      "stateMutability": "nonpayable",
      "type": "function"
    },
    {
      "inputs": [
        {
          "internalType": "address",
          "name": "token",
          "type": "address"
        },
        {
          "internalType": "uint256",
          "name": "liquidity",
          "type": "uint256"
        },
        {
          "internalType": "uint256",
          "name": "amountTokenMin",
          "type": "uint256"
        },
        {
          "internalType": "uint256",
          "name": "amountETHMin",
          "type": "uint256"
        },
        {
          "internalType": "address",
          "name": "to",
          "type": "address"
        },
        {
          "internalType": "uint256",
          "name": "deadline",
          "type": "uint256"
        }
      ],
      "name": "removeLiquidityBNB",
      "outputs": [
        {
          "internalType": "uint256",
          "name": "amountToken",
          "type": "uint256"
        },
        {
          "internalType": "uint256",
          "name": "amountETH",
          "type": "uint256"
        }
      ],
      "stateMutability": "nonpayable",
      "type": "function"
    },
    {
      "inputs": [
        {
          "internalType": "address",
          "name": "tokenA",
          "type": "address"
        },
        {
          "internalType": "address",
          "name": "tokenB",
          "type": "address"
        },
        {
          "internalType": "uint256",
          "name": "liquidity",
          "type": "uint256"
        },
        {
          "internalType": "uint256",
          "name": "amountAMin",
          "type": "uint256"
        },
        {
          "internalType": "uint256",
          "name": "amountBMin",
          "type": "uint256"
        },
        {
          "internalType": "address",
          "name": "to",
          "type": "address"
        },
        {
          "internalType": "uint256",
          "name": "deadline",
          "type": "uint256"
        },
        {
          "internalType": "bool",
          "name": "approveMax",
          "type": "bool"
        },
        {
          "internalType": "uint8",
          "name": "v",
          "type": "uint8"
        },
        {
          "internalType": "bytes32",
          "name": "r",
          "type": "bytes32"
        },
        {
          "internalType": "bytes32",
          "name": "s",
          "type": "bytes32"
        }
      ],
      "name": "removeLiquidityWithPermit",
      "outputs": [
        {
          "internalType": "uint256",
          "name": "amountA",
          "type": "uint256"
        },
        {
          "internalType": "uint256",
          "name": "amountB",
          "type": "uint256"
        }
      ],
      "stateMutability": "nonpayable",
      "type": "function"
    },
    {
      "inputs": [
        {
          "internalType": "address",
          "name": "token",
          "type": "address"
        },
        {
          "internalType": "uint256",
          "name": "liquidity",
          "type": "uint256"
        },
        {
          "internalType": "uint256",
          "name": "amountTokenMin",
          "type": "uint256"
        },
        {
          "internalType": "uint256",
          "name": "amountETHMin",
          "type": "uint256"
        },
        {
          "internalType": "address",
          "name": "to",
          "type": "address"
        },
        {
          "internalType": "uint256",
          "name": "deadline",
          "type": "uint256"
        },
        {
          "internalType": "bool",
          "name": "approveMax",
          "type": "bool"
        },
        {
          "internalType": "uint8",
          "name": "v",
          "type": "uint8"
        },
        {
          "internalType": "bytes32",
          "name": "r",
          "type": "bytes32"
        },
        {
          "internalType": "bytes32",
          "name": "s",
          "type": "bytes32"
        }
      ],
      "name": "removeLiquidityBNBWithPermit",
      "outputs": [
        {
          "internalType": "uint256",
          "name": "amountToken",
          "type": "uint256"
        },
        {
          "internalType": "uint256",
          "name": "amountETH",
          "type": "uint256"
        }
      ],
      "stateMutability": "nonpayable",
      "type": "function"
    },
    {
      "inputs": [
        {
          "internalType": "uint256",
          "name": "amountIn",
          "type": "uint256"
        },
        {
          "internalType": "uint256",
          "name": "amountOutMin",
          "type": "uint256"
        },
        {
          "internalType": "address[]",
          "name": "path",
          "type": "address[]"
        },
        {
          "internalType": "address",
          "name": "to",
          "type": "address"
        },
        {
          "internalType": "uint256",
          "name": "deadline",
          "type": "uint256"
        }
      ],
      "name": "swapExactTokensForTokens",
      "outputs": [
        {
          "internalType": "uint256[]",
          "name": "amounts",
          "type": "uint256[]"
        }
      ],
      "stateMutability": "nonpayable",
      "type": "function"
    },
    {
      "inputs": [
        {
          "internalType": "uint256",
          "name": "amountOut",
          "type": "uint256"
        },
        {
          "internalType": "uint256",
          "name": "amountInMax",
          "type": "uint256"
        },
        {
          "internalType": "address[]",
          "name": "path",
          "type": "address[]"
        },
        {
          "internalType": "address",
          "name": "to",
          "type": "address"
        },
        {
          "internalType": "uint256",
          "name": "deadline",
          "type": "uint256"
        }
      ],
      "name": "swapTokensForExactTokens",
      "outputs": [
        {
          "internalType": "uint256[]",
          "name": "amounts",
          "type": "uint256[]"
        }
      ],
      "stateMutability": "nonpayable",
      "type": "function"
    },
    {
      "inputs": [
        {
          "internalType": "uint256",
          "name": "amountOutMin",
          "type": "uint256"
        },
        {
          "internalType": "address[]",
          "name": "path",
          "type": "address[]"
        },
        {
          "internalType": "address",
          "name": "to",
          "type": "address"
        },
        {
          "internalType": "uint256",
          "name": "deadline",
          "type": "uint256"
        }
      ],
      "name": "swapExactBNBForTokens",
      "outputs": [
        {
          "internalType": "uint256[]",
          "name": "amounts",
          "type": "uint256[]"
        }
      ],
      "stateMutability": "payable",
      "type": "function",
      "payable": true
    },
    {
      "inputs": [
        {
          "internalType": "uint256",
          "name": "amountOut",
          "type": "uint256"
        },
        {
          "internalType": "uint256",
          "name": "amountInMax",
          "type": "uint256"
        },
        {
          "internalType": "address[]",
          "name": "path",
          "type": "address[]"
        },
        {
          "internalType": "address",
          "name": "to",
          "type": "address"
        },
        {
          "internalType": "uint256",
          "name": "deadline",
          "type": "uint256"
        }
      ],
      "name": "swapTokensForExactBNB",
      "outputs": [
        {
          "internalType": "uint256[]",
          "name": "amounts",
          "type": "uint256[]"
        }
      ],
      "stateMutability": "nonpayable",
      "type": "function"
    },
    {
      "inputs": [
        {
          "internalType": "uint256",
          "name": "amountIn",
          "type": "uint256"
        },
        {
          "internalType": "uint256",
          "name": "amountOutMin",
          "type": "uint256"
        },
        {
          "internalType": "address[]",
          "name": "path",
          "type": "address[]"
        },
        {
          "internalType": "address",
          "name": "to",
          "type": "address"
        },
        {
          "internalType": "uint256",
          "name": "deadline",
          "type": "uint256"
        }
      ],
      "name": "swapExactTokensForBNB",
      "outputs": [
        {
          "internalType": "uint256[]",
          "name": "amounts",
          "type": "uint256[]"
        }
      ],
      "stateMutability": "nonpayable",
      "type": "function"
    },
    {
      "inputs": [
        {
          "internalType": "uint256",
          "name": "amountOut",
          "type": "uint256"
        },
        {
          "internalType": "address[]",
          "name": "path",
          "type": "address[]"
        },
        {
          "internalType": "address",
          "name": "to",
          "type": "address"
        },
        {
          "internalType": "uint256",
          "name": "deadline",
          "type": "uint256"
        }
      ],
      "name": "swapBNBForExactTokens",
      "outputs": [
        {
          "internalType": "uint256[]",
          "name": "amounts",
          "type": "uint256[]"
        }
      ],
      "stateMutability": "payable",
      "type": "function",
      "payable": true
    },
    {
      "inputs": [
        {
          "internalType": "bool",
          "name": "_newState",
          "type": "bool"
        }
      ],
      "name": "setPairGovernanceState",
      "outputs": [],
      "stateMutability": "nonpayable",
      "type": "function"
    },
    {
      "inputs": [
        {
          "internalType": "address",
          "name": "_governor",
          "type": "address"
        }
      ],
      "name": "reannounceGovernor",
      "outputs": [],
      "stateMutability": "nonpayable",
      "type": "function"
    },
    {
      "inputs": [
        {
          "internalType": "uint256",
          "name": "amountA",
          "type": "uint256"
        },
        {
          "internalType": "uint256",
          "name": "reserveA",
          "type": "uint256"
        },
        {
          "internalType": "uint256",
          "name": "reserveB",
          "type": "uint256"
        }
      ],
      "name": "quote",
      "outputs": [
        {
          "internalType": "uint256",
          "name": "amountB",
          "type": "uint256"
        }
      ],
      "stateMutability": "pure",
      "type": "function",
      "constant": true
    },
    {
      "inputs": [
        {
          "internalType": "uint256",
          "name": "amountIn",
          "type": "uint256"
        },
        {
          "internalType": "uint256",
          "name": "reserveIn",
          "type": "uint256"
        },
        {
          "internalType": "uint256",
          "name": "reserveOut",
          "type": "uint256"
        }
      ],
      "name": "getAmountOut",
      "outputs": [
        {
          "internalType": "uint256",
          "name": "amountOut",
          "type": "uint256"
        }
      ],
      "stateMutability": "pure",
      "type": "function",
      "constant": true
    },
    {
      "inputs": [
        {
          "internalType": "uint256",
          "name": "amountOut",
          "type": "uint256"
        },
        {
          "internalType": "uint256",
          "name": "reserveIn",
          "type": "uint256"
        },
        {
          "internalType": "uint256",
          "name": "reserveOut",
          "type": "uint256"
        }
      ],
      "name": "getAmountIn",
      "outputs": [
        {
          "internalType": "uint256",
          "name": "amountIn",
          "type": "uint256"
        }
      ],
      "stateMutability": "pure",
      "type": "function",
      "constant": true
    },
    {
      "inputs": [
        {
          "internalType": "uint256",
          "name": "amountIn",
          "type": "uint256"
        },
        {
          "internalType": "address[]",
          "name": "path",
          "type": "address[]"
        }
      ],
      "name": "getAmountsOut",
      "outputs": [
        {
          "internalType": "uint256[]",
          "name": "amounts",
          "type": "uint256[]"
        }
      ],
      "stateMutability": "view",
      "type": "function",
      "constant": true
    },
    {
      "inputs": [
        {
          "internalType": "uint256",
          "name": "amountOut",
          "type": "uint256"
        },
        {
          "internalType": "address[]",
          "name": "path",
          "type": "address[]"
        }
      ],
      "name": "getAmountsIn",
      "outputs": [
        {
          "internalType": "uint256[]",
          "name": "amounts",
          "type": "uint256[]"
        }
      ],
      "stateMutability": "view",
      "type": "function",
      "constant": true
    },
    {
      "inputs": [
        {
          "internalType": "address",
          "name": "tokenA",
          "type": "address"
        },
        {
          "internalType": "address",
          "name": "tokenB",
          "type": "address"
        },
        {
          "internalType": "uint256",
          "name": "amountADesired",
          "type": "uint256"
        }
      ],
      "name": "getOptimalAmount",
      "outputs": [
        {
          "internalType": "uint256",
          "name": "amountA",
          "type": "uint256"
        },
        {
          "internalType": "uint256",
          "name": "amountB",
          "type": "uint256"
        }
      ],
      "stateMutability": "view",
      "type": "function",
      "constant": true
    }
  ],
  "bytecode": "0x60c060405234801561001057600080fd5b50604051613a96380380613a968339818101604052606081101561003357600080fd5b50805160208201516040909201516001600160601b0319606092831b81166080529290911b90911660a052600080546001600160a01b039092166001600160a01b03199283161790556001805460ff60a01b199216331791909116600160a01b17905560805160601c60a05160601c6139146101826000398061017a5280610d6352806110a05280611232528061132e528061147152806114f95280611790528061187252806119b85280611a405280611ed2528061205b528061209652806122aa5280612300528061233452806123a8525080610b5c5280610b955280610c905280610d415280610e965280610f6d528061112e52806113c1528061152b52806116e052806119055280611a725280611bc75280611dbf5280611de85280611f60528061218b52806122de5280612c8a5280612ccd5280613339528061343552806134b552506139146000f3fe60806040526004361061016a5760003560e01c80638803dbee116100d1578063c45a01551161008a578063d67b571e11610064578063d67b571e14610982578063e058848814610a18578063e8e3370014610a6b578063eaaed44214610aeb576101a3565b8063c45a01551461088c578063d06ca61f146108a1578063d3436dc214610956576101a3565b80638803dbee146106975780638dd950021461072d5780639bfa0208146107425780639cf6891114610775578063ad615dec146107f9578063baa2abde1461082f576101a3565b806338ed17391161012357806338ed1739146104735780633a2c677714610509578063493468f51461051e5780635d616c5b146105475780638332a963146105dd57806385f8c25914610661576101a3565b8063054d50d4146101a85780630c340a24146101f05780631f00ca74146102215780632195995c146103265780632adf764c146103bd57806334a0772d14610400576101a3565b366101a357336001600160a01b037f000000000000000000000000000000000000000000000000000000000000000016146101a157fe5b005b600080fd5b3480156101b457600080fd5b506101de600480360360608110156101cb57600080fd5b5080359060208101359060400135610b31565b60408051918252519081900360200190f35b3480156101fc57600080fd5b50610205610b46565b604080516001600160a01b039092168252519081900360200190f35b34801561022d57600080fd5b506102d66004803603604081101561024457600080fd5b81359190810190604081016020820135600160201b81111561026557600080fd5b82018360208201111561027757600080fd5b803590602001918460208302840111600160201b8311171561029857600080fd5b919080806020026020016040519081016040528093929190818152602001838360200280828437600092019190915250929550610b55945050505050565b60408051602080825283518183015283519192839290830191858101910280838360005b838110156103125781810151838201526020016102fa565b505050509050019250505060405180910390f35b34801561033257600080fd5b506103a4600480360361016081101561034a57600080fd5b506001600160a01b038135811691602081013582169160408201359160608101359160808201359160a08101359091169060c08101359060e081013515159060ff6101008201351690610120810135906101400135610b8b565b6040805192835260208301919091528051918290030190f35b3480156103c957600080fd5b506103a4600480360360608110156103e057600080fd5b506001600160a01b03813581169160208101359091169060400135610c85565b34801561040c57600080fd5b506103a4600480360361014081101561042457600080fd5b506001600160a01b0381358116916020810135916040820135916060810135916080820135169060a08101359060c081013515159060ff60e08201351690610100810135906101200135610d37565b34801561047f57600080fd5b506102d6600480360360a081101561049657600080fd5b813591602081013591810190606081016040820135600160201b8111156104bc57600080fd5b8201836020820111156104ce57600080fd5b803590602001918460208302840111600160201b831117156104ef57600080fd5b91935091506001600160a01b038135169060200135610e4b565b34801561051557600080fd5b50610205611031565b34801561052a57600080fd5b50610533611040565b604080519115158252519081900360200190f35b34801561055357600080fd5b506102d6600480360360a081101561056a57600080fd5b813591602081013591810190606081016040820135600160201b81111561059057600080fd5b8201836020820111156105a257600080fd5b803590602001918460208302840111600160201b831117156105c357600080fd5b91935091506001600160a01b038135169060200135611050565b6102d6600480360360808110156105f357600080fd5b81359190810190604081016020820135600160201b81111561061457600080fd5b82018360208201111561062657600080fd5b803590602001918460208302840111600160201b8311171561064757600080fd5b91935091506001600160a01b0381351690602001356112e6565b34801561066d57600080fd5b506101de6004803603606081101561068457600080fd5b5080359060208101359060400135611688565b3480156106a357600080fd5b506102d6600480360360a08110156106ba57600080fd5b813591602081013591810190606081016040820135600160201b8111156106e057600080fd5b8201836020820111156106f257600080fd5b803590602001918460208302840111600160201b8311171561071357600080fd5b91935091506001600160a01b038135169060200135611695565b34801561073957600080fd5b5061020561178e565b34801561074e57600080fd5b506101a16004803603602081101561076557600080fd5b50356001600160a01b03166117b2565b6102d66004803603608081101561078b57600080fd5b81359190810190604081016020820135600160201b8111156107ac57600080fd5b8201836020820111156107be57600080fd5b803590602001918460208302840111600160201b831117156107df57600080fd5b91935091506001600160a01b03813516906020013561182a565b34801561080557600080fd5b506101de6004803603606081101561081c57600080fd5b5080359060208101359060400135611b6c565b34801561083b57600080fd5b506103a4600480360360e081101561085257600080fd5b506001600160a01b038135811691602081013582169160408201359160608101359160808201359160a08101359091169060c00135611b79565b34801561089857600080fd5b50610205611dbd565b3480156108ad57600080fd5b506102d6600480360360408110156108c457600080fd5b81359190810190604081016020820135600160201b8111156108e557600080fd5b8201836020820111156108f757600080fd5b803590602001918460208302840111600160201b8311171561091857600080fd5b919080806020026020016040519081016040528093929190818152602001838360200280828437600092019190915250929550611de1945050505050565b34801561096257600080fd5b506101a16004803603602081101561097957600080fd5b50351515611e0e565b34801561098e57600080fd5b506102d6600480360360a08110156109a557600080fd5b813591602081013591810190606081016040820135600160201b8111156109cb57600080fd5b8201836020820111156109dd57600080fd5b803590602001918460208302840111600160201b831117156109fe57600080fd5b91935091506001600160a01b038135169060200135611e82565b348015610a2457600080fd5b506103a4600480360360c0811015610a3b57600080fd5b506001600160a01b0381358116916020810135916040820135916060810135916080820135169060a0013561200e565b348015610a7757600080fd5b50610acd6004803603610100811015610a8f57600080fd5b506001600160a01b038135811691602081013582169160408201359160608101359160808201359160a08101359160c0820135169060e00135612128565b60408051938452602084019290925282820152519081900360600190f35b610acd600480360360c0811015610b0157600080fd5b506001600160a01b0381358116916020810135916040820135916060810135916080820135169060a0013561225b565b6000610b3e8484846124ee565b949350505050565b6001546001600160a01b031681565b6060610b827f000000000000000000000000000000000000000000000000000000000000000084846125c6565b90505b92915050565b6000806000610bbb7f00000000000000000000000000000000000000000000000000000000000000008f8f612713565b9050600087610bca578c610bce565b6000195b6040805163d505accf60e01b815233600482015230602482015260448101839052606481018c905260ff8a16608482015260a4810189905260c4810188905290519192506001600160a01b0384169163d505accf9160e48082019260009290919082900301818387803b158015610c4457600080fd5b505af1158015610c58573d6000803e3d6000fd5b50505050610c6b8f8f8f8f8f8f8f611b79565b809450819550505050509b509b9950505050505050505050565b600080600080610cb67f000000000000000000000000000000000000000000000000000000000000000088886127d3565b9150915081600014158015610cca57508015155b610d1b576040805162461bcd60e51b815260206004820181905260248201527f556e69737761705632526f757465723a204e4f545f494e495449414c495a4544604482015290519081900360640190fd5b6000610d288684846128a1565b95989597509495505050505050565b6000806000610d877f00000000000000000000000000000000000000000000000000000000000000008e7f0000000000000000000000000000000000000000000000000000000000000000612713565b9050600087610d96578c610d9a565b6000195b6040805163d505accf60e01b815233600482015230602482015260448101839052606481018c905260ff8a16608482015260a4810189905260c4810188905290519192506001600160a01b0384169163d505accf9160e48082019260009290919082900301818387803b158015610e1057600080fd5b505af1158015610e24573d6000803e3d6000fd5b50505050610e368e8e8e8e8e8e61200e565b909f909e509c50505050505050505050505050565b60608142811015610e91576040805162461bcd60e51b815260206004820152601860248201526000805160206138bf833981519152604482015290519081900360640190fd5b610eef7f00000000000000000000000000000000000000000000000000000000000000008988888080602002602001604051908101604052809392919081815260200183836020028082843760009201919091525061294792505050565b91508682600184510381518110610f0257fe5b60200260200101511015610f475760405162461bcd60e51b815260040180806020018281038252602b815260200180613845602b913960400191505060405180910390fd5b610fe586866000818110610f5757fe5b905060200201356001600160a01b031633610fcb7f00000000000000000000000000000000000000000000000000000000000000008a8a6000818110610f9957fe5b905060200201356001600160a01b03168b8b6001818110610fb657fe5b905060200201356001600160a01b0316612713565b85600081518110610fd857fe5b6020026020010151612a7e565b61102682878780806020026020016040519081016040528093929190818152602001838360200280828437600092019190915250899250829150612bdb9050565b509695505050505050565b6000546001600160a01b031681565b600154600160a01b900460ff1681565b60608142811015611096576040805162461bcd60e51b815260206004820152601860248201526000805160206138bf833981519152604482015290519081900360640190fd5b6001600160a01b037f000000000000000000000000000000000000000000000000000000000000000016868660001981018181106110d057fe5b905060200201356001600160a01b03166001600160a01b031614611129576040805162461bcd60e51b815260206004820152601d60248201526000805160206137dc833981519152604482015290519081900360640190fd5b6111877f00000000000000000000000000000000000000000000000000000000000000008988888080602002602001604051908101604052809392919081815260200183836020028082843760009201919091525061294792505050565b9150868260018451038151811061119a57fe5b602002602001015110156111df5760405162461bcd60e51b815260040180806020018281038252602b815260200180613845602b913960400191505060405180910390fd5b6111ef86866000818110610f5757fe5b61123082878780806020026020016040519081016040528093929190818152602001838360200280828437600092019190915250309250899150612bdb9050565b7f00000000000000000000000000000000000000000000000000000000000000006001600160a01b0316632e1a7d4d8360018551038151811061126f57fe5b60200260200101516040518263ffffffff1660e01b815260040180828152602001915050600060405180830381600087803b1580156112ad57600080fd5b505af11580156112c1573d6000803e3d6000fd5b5050505061102684836001855103815181106112d957fe5b6020026020010151612f18565b6060814281101561132c576040805162461bcd60e51b815260206004820152601860248201526000805160206138bf833981519152604482015290519081900360640190fd5b7f00000000000000000000000000000000000000000000000000000000000000006001600160a01b03168686600081811061136357fe5b905060200201356001600160a01b03166001600160a01b0316146113bc576040805162461bcd60e51b815260206004820152601d60248201526000805160206137dc833981519152604482015290519081900360640190fd5b61141a7f0000000000000000000000000000000000000000000000000000000000000000888888808060200260200160405190810160405280939291908181526020018383602002808284376000920191909152506125c692505050565b9150348260008151811061142a57fe5b6020026020010151111561146f5760405162461bcd60e51b81526004018080602001828103825260278152602001806137b56027913960400191505060405180910390fd5b7f00000000000000000000000000000000000000000000000000000000000000006001600160a01b031663d0e30db0836000815181106114ab57fe5b60200260200101516040518263ffffffff1660e01b81526004016000604051808303818588803b1580156114de57600080fd5b505af11580156114f2573d6000803e3d6000fd5b50505050507f00000000000000000000000000000000000000000000000000000000000000006001600160a01b031663a9059cbb6115747f00000000000000000000000000000000000000000000000000000000000000008989600081811061155757fe5b905060200201356001600160a01b03168a8a6001818110610fb657fe5b8460008151811061158157fe5b60200260200101516040518363ffffffff1660e01b815260040180836001600160a01b0316815260200182815260200192505050602060405180830381600087803b1580156115cf57600080fd5b505af11580156115e3573d6000803e3d6000fd5b505050506040513d60208110156115f957600080fd5b505161160157fe5b61164282878780806020026020016040519081016040528093929190818152602001838360200280828437600092019190915250899250829150612bdb9050565b8160008151811061164f57fe5b602002602001015134111561167e5761167e338360008151811061166f57fe5b60200260200101513403612f18565b5095945050505050565b6000610b3e848484613010565b606081428110156116db576040805162461bcd60e51b815260206004820152601860248201526000805160206138bf833981519152604482015290519081900360640190fd5b6117397f0000000000000000000000000000000000000000000000000000000000000000898888808060200260200160405190810160405280939291908181526020018383602002808284376000920191909152506125c692505050565b9150868260008151811061174957fe5b60200260200101511115610f475760405162461bcd60e51b81526004018080602001828103825260278152602001806137b56027913960400191505060405180910390fd5b7f000000000000000000000000000000000000000000000000000000000000000081565b6001546001600160a01b03163314611808576040805162461bcd60e51b81526020600482015260146024820152732ab734b9bbb0b82b191d102327a92124a22222a760611b604482015290519081900360640190fd5b600180546001600160a01b0319166001600160a01b0392909216919091179055565b60608142811015611870576040805162461bcd60e51b815260206004820152601860248201526000805160206138bf833981519152604482015290519081900360640190fd5b7f00000000000000000000000000000000000000000000000000000000000000006001600160a01b0316868660008181106118a757fe5b905060200201356001600160a01b03166001600160a01b031614611900576040805162461bcd60e51b815260206004820152601d60248201526000805160206137dc833981519152604482015290519081900360640190fd5b61195e7f00000000000000000000000000000000000000000000000000000000000000003488888080602002602001604051908101604052809392919081815260200183836020028082843760009201919091525061294792505050565b9150868260018451038151811061197157fe5b602002602001015110156119b65760405162461bcd60e51b815260040180806020018281038252602b815260200180613845602b913960400191505060405180910390fd5b7f00000000000000000000000000000000000000000000000000000000000000006001600160a01b031663d0e30db0836000815181106119f257fe5b60200260200101516040518263ffffffff1660e01b81526004016000604051808303818588803b158015611a2557600080fd5b505af1158015611a39573d6000803e3d6000fd5b50505050507f00000000000000000000000000000000000000000000000000000000000000006001600160a01b031663a9059cbb611a9e7f00000000000000000000000000000000000000000000000000000000000000008989600081811061155757fe5b84600081518110611aab57fe5b60200260200101516040518363ffffffff1660e01b815260040180836001600160a01b0316815260200182815260200192505050602060405180830381600087803b158015611af957600080fd5b505af1158015611b0d573d6000803e3d6000fd5b505050506040513d6020811015611b2357600080fd5b5051611b2b57fe5b61167e82878780806020026020016040519081016040528093929190818152602001838360200280828437600092019190915250899250829150612bdb9050565b6000610b3e8484846128a1565b6000808242811015611bc0576040805162461bcd60e51b815260206004820152601860248201526000805160206138bf833981519152604482015290519081900360640190fd5b6000611bed7f00000000000000000000000000000000000000000000000000000000000000008c8c612713565b604080516323b872dd60e01b81523360048201526001600160a01b03831660248201819052604482018d9052915192935090916323b872dd916064808201926020929091908290030181600087803b158015611c4857600080fd5b505af1158015611c5c573d6000803e3d6000fd5b505050506040513d6020811015611c7257600080fd5b50506040805163226bf2d160e21b81526001600160a01b03888116600483015282516000938493928616926389afcb44926024808301939282900301818787803b158015611cbf57600080fd5b505af1158015611cd3573d6000803e3d6000fd5b505050506040513d6040811015611ce957600080fd5b50805160209091015190925090506000611d038e8e6130e8565b509050806001600160a01b03168e6001600160a01b031614611d26578183611d29565b82825b90975095508a871015611d6d5760405162461bcd60e51b81526004018080602001828103825260268152602001806137fc6026913960400191505060405180910390fd5b89861015611dac5760405162461bcd60e51b815260040180806020018281038252602681526020018061371e6026913960400191505060405180910390fd5b505050505097509795505050505050565b7f000000000000000000000000000000000000000000000000000000000000000081565b6060610b827f00000000000000000000000000000000000000000000000000000000000000008484612947565b6001546001600160a01b03163314611e64576040805162461bcd60e51b81526020600482015260146024820152732ab734b9bbb0b82b191d102327a92124a22222a760611b604482015290519081900360640190fd5b60018054911515600160a01b0260ff60a01b19909216919091179055565b60608142811015611ec8576040805162461bcd60e51b815260206004820152601860248201526000805160206138bf833981519152604482015290519081900360640190fd5b6001600160a01b037f00000000000000000000000000000000000000000000000000000000000000001686866000198101818110611f0257fe5b905060200201356001600160a01b03166001600160a01b031614611f5b576040805162461bcd60e51b815260206004820152601d60248201526000805160206137dc833981519152604482015290519081900360640190fd5b611fb97f0000000000000000000000000000000000000000000000000000000000000000898888808060200260200160405190810160405280939291908181526020018383602002808284376000920191909152506125c692505050565b91508682600081518110611fc957fe5b602002602001015111156111df5760405162461bcd60e51b81526004018080602001828103825260278152602001806137b56027913960400191505060405180910390fd5b6000808242811015612055576040805162461bcd60e51b815260206004820152601860248201526000805160206138bf833981519152604482015290519081900360640190fd5b612084897f00000000000000000000000000000000000000000000000000000000000000008a8a8a308a611b79565b90935091506120948986856131c6565b7f00000000000000000000000000000000000000000000000000000000000000006001600160a01b0316632e1a7d4d836040518263ffffffff1660e01b815260040180828152602001915050600060405180830381600087803b1580156120fa57600080fd5b505af115801561210e573d6000803e3d6000fd5b5050505061211c8583612f18565b50965096945050505050565b60008060008342811015612171576040805162461bcd60e51b815260206004820152601860248201526000805160206138bf833981519152604482015290519081900360640190fd5b61217f8c8c8c8c8c8c613329565b909450925060006121b17f00000000000000000000000000000000000000000000000000000000000000008e8e612713565b90506121bf8d338388612a7e565b6121cb8c338387612a7e565b806001600160a01b0316636a627842886040518263ffffffff1660e01b815260040180826001600160a01b03168152602001915050602060405180830381600087803b15801561221a57600080fd5b505af115801561222e573d6000803e3d6000fd5b505050506040513d602081101561224457600080fd5b5051949d939c50939a509198505050505050505050565b600080600083428110156122a4576040805162461bcd60e51b815260206004820152601860248201526000805160206138bf833981519152604482015290519081900360640190fd5b6122d28a7f00000000000000000000000000000000000000000000000000000000000000008b348c8c613329565b909450925060006123247f00000000000000000000000000000000000000000000000000000000000000008c7f0000000000000000000000000000000000000000000000000000000000000000612713565b90506123328b338388612a7e565b7f00000000000000000000000000000000000000000000000000000000000000006001600160a01b031663d0e30db0856040518263ffffffff1660e01b81526004016000604051808303818588803b15801561238d57600080fd5b505af11580156123a1573d6000803e3d6000fd5b50505050507f00000000000000000000000000000000000000000000000000000000000000006001600160a01b031663a9059cbb82866040518363ffffffff1660e01b815260040180836001600160a01b0316815260200182815260200192505050602060405180830381600087803b15801561241d57600080fd5b505af1158015612431573d6000803e3d6000fd5b505050506040513d602081101561244757600080fd5b505161244f57fe5b806001600160a01b0316636a627842886040518263ffffffff1660e01b815260040180826001600160a01b03168152602001915050602060405180830381600087803b15801561249e57600080fd5b505af11580156124b2573d6000803e3d6000fd5b505050506040513d60208110156124c857600080fd5b50519250348410156124e0576124e033853403612f18565b505096509650969350505050565b600080841161252e5760405162461bcd60e51b815260040180806020018281038252602b815260200180613894602b913960400191505060405180910390fd5b60008311801561253e5750600082115b6125795760405162461bcd60e51b81526004018080602001828103825260288152602001806137446028913960400191505060405180910390fd5b6000612587856103e56135ca565b9050600061259582856135ca565b905060006125af836125a9886103e86135ca565b9061362d565b90508082816125ba57fe5b04979650505050505050565b606060028251101561261f576040805162461bcd60e51b815260206004820152601e60248201527f556e697377617056324c6962726172793a20494e56414c49445f504154480000604482015290519081900360640190fd5b815167ffffffffffffffff8111801561263757600080fd5b50604051908082528060200260200182016040528015612661578160200160208202803683370190505b509050828160018351038151811061267557fe5b60209081029190910101528151600019015b801561270b576000806126c4878660018603815181106126a357fe5b60200260200101518786815181106126b757fe5b60200260200101516127d3565b915091506126e68484815181106126d757fe5b60200260200101518383613010565b8460018503815181106126f557fe5b6020908102919091010152505060001901612687565b509392505050565b600080600061272285856130e8565b604080516bffffffffffffffffffffffff19606094851b811660208084019190915293851b81166034830152825160288184030181526048830184528051908501206001600160f81b031960688401529a90941b9093166069840152607d8301989098527f404b0ead6e097c0ac9bb4b1ecd0de807903af223a6798cd20b5d716d3b55bef3609d808401919091528851808403909101815260bd909201909752805196019590952095945050505050565b60008060006127e285856130e8565b5090506000806127f3888888612713565b6001600160a01b0316630902f1ac6040518163ffffffff1660e01b815260040160606040518083038186803b15801561282b57600080fd5b505afa15801561283f573d6000803e3d6000fd5b505050506040513d606081101561285557600080fd5b5080516020909101516dffffffffffffffffffffffffffff91821693501690506001600160a01b038781169084161461288f578082612892565b81815b90999098509650505050505050565b60008084116128e15760405162461bcd60e51b81526004018080602001828103825260258152602001806137906025913960400191505060405180910390fd5b6000831180156128f15750600082115b61292c5760405162461bcd60e51b81526004018080602001828103825260288152602001806137446028913960400191505060405180910390fd5b8261293785846135ca565b8161293e57fe5b04949350505050565b60606002825110156129a0576040805162461bcd60e51b815260206004820152601e60248201527f556e697377617056324c6962726172793a20494e56414c49445f504154480000604482015290519081900360640190fd5b815167ffffffffffffffff811180156129b857600080fd5b506040519080825280602002602001820160405280156129e2578160200160208202803683370190505b50905082816000815181106129f357fe5b60200260200101818152505060005b600183510381101561270b57600080612a3887868581518110612a2157fe5b60200260200101518786600101815181106126b757fe5b91509150612a5a848481518110612a4b57fe5b602002602001015183836124ee565b848460010181518110612a6957fe5b60209081029190910101525050600101612a02565b604080516001600160a01b0385811660248301528481166044830152606480830185905283518084039091018152608490920183526020820180516001600160e01b03166323b872dd60e01b17815292518251600094606094938a169392918291908083835b60208310612b035780518252601f199092019160209182019101612ae4565b6001836020036101000a0380198251168184511680821785525050505050509050019150506000604051808303816000865af19150503d8060008114612b65576040519150601f19603f3d011682016040523d82523d6000602084013e612b6a565b606091505b5091509150818015612b98575080511580612b985750808060200190516020811015612b9557600080fd5b50515b612bd35760405162461bcd60e51b81526004018080602001828103825260248152602001806138706024913960400191505060405180910390fd5b505050505050565b60005b6001845103811015612e1257600080858381518110612bf957fe5b6020026020010151868460010181518110612c1057fe5b6020026020010151915091506000612c2883836130e8565b5090506000888560010181518110612c3c57fe5b60200260200101519050600080836001600160a01b0316866001600160a01b031614612c6a57826000612c6e565b6000835b91509150600060028b51038810612c855789612cc6565b612cc67f0000000000000000000000000000000000000000000000000000000000000000878d8b60020181518110612cb957fe5b6020026020010151612713565b9050612cf37f00000000000000000000000000000000000000000000000000000000000000008888612713565b6001600160a01b031663022c0d9f84848460006040519080825280601f01601f191660200182016040528015612d30576020820181803683370190505b506040518563ffffffff1660e01b815260040180858152602001848152602001836001600160a01b0316815260200180602001828103825283818151815260200191508051906020019080838360005b83811015612d98578181015183820152602001612d80565b50505050905090810190601f168015612dc55780820380516001836020036101000a031916815260200191505b5095505050505050600060405180830381600087803b158015612de757600080fd5b505af1158015612dfb573d6000803e3d6000fd5b505060019099019850612bde975050505050505050565b5060008054604080516316719e9360e21b81526001600160a01b038581166024830152600482019283528751604483015287519316926359c67a4c9288928792829160640190602080870191028083838c5b83811015612e7c578181015183820152602001612e64565b505050509050019350505050602060405180830381600087803b158015612ea257600080fd5b505af1158015612eb6573d6000803e3d6000fd5b505050506040513d6020811015612ecc57600080fd5b50519050600181151514612f115760405162461bcd60e51b815260040180806020018281038252602481526020018061376c6024913960400191505060405180910390fd5b5050505050565b604080516000808252602082019092526001600160a01b0384169083906040518082805190602001908083835b60208310612f645780518252601f199092019160209182019101612f45565b6001836020036101000a03801982511681845116808217855250505050505090500191505060006040518083038185875af1925050503d8060008114612fc6576040519150601f19603f3d011682016040523d82523d6000602084013e612fcb565b606091505b505090508061300b5760405162461bcd60e51b81526004018080602001828103825260238152602001806138226023913960400191505060405180910390fd5b505050565b60008084116130505760405162461bcd60e51b815260040180806020018281038252602c8152602001806136cd602c913960400191505060405180910390fd5b6000831180156130605750600082115b61309b5760405162461bcd60e51b81526004018080602001828103825260288152602001806137446028913960400191505060405180910390fd5b60006130b36103e86130ad86886135ca565b906135ca565b905060006130c76103e56130ad868961367c565b90506130de60018284816130d757fe5b049061362d565b9695505050505050565b600080826001600160a01b0316846001600160a01b0316141561313c5760405162461bcd60e51b81526004018080602001828103825260258152602001806136f96025913960400191505060405180910390fd5b826001600160a01b0316846001600160a01b03161061315c57828461315f565b83835b90925090506001600160a01b0382166131bf576040805162461bcd60e51b815260206004820152601e60248201527f556e697377617056324c6962726172793a205a45524f5f414444524553530000604482015290519081900360640190fd5b9250929050565b604080516001600160a01b038481166024830152604480830185905283518084039091018152606490920183526020820180516001600160e01b031663a9059cbb60e01b178152925182516000946060949389169392918291908083835b602083106132435780518252601f199092019160209182019101613224565b6001836020036101000a0380198251168184511680821785525050505050509050019150506000604051808303816000865af19150503d80600081146132a5576040519150601f19603f3d011682016040523d82523d6000602084013e6132aa565b606091505b50915091508180156132d85750805115806132d857508080602001905160208110156132d557600080fd5b50515b612f11576040805162461bcd60e51b815260206004820152601f60248201527f5472616e7366657248656c7065723a205452414e534645525f4641494c454400604482015290519081900360640190fd5b60008060006001600160a01b03167f00000000000000000000000000000000000000000000000000000000000000006001600160a01b031663e6a439058a8a6040518363ffffffff1660e01b815260040180836001600160a01b03168152602001826001600160a01b031681526020019250505060206040518083038186803b1580156133b557600080fd5b505afa1580156133c9573d6000803e3d6000fd5b505050506040513d60208110156133df57600080fd5b50516001600160a01b031614156134ad5760015460408051631ce09aed60e11b81526001600160a01b038b811660048301528a81166024830152336044830152600160a01b90930460ff161515606482015290517f0000000000000000000000000000000000000000000000000000000000000000909216916339c135da916084808201926020929091908290030181600087803b15801561348057600080fd5b505af1158015613494573d6000803e3d6000fd5b505050506040513d60208110156134aa57600080fd5b50505b6000806134db7f00000000000000000000000000000000000000000000000000000000000000008b8b6127d3565b915091508160001480156134ed575080155b156134fd578793508692506135bd565b600061350a8984846128a1565b905087811161355d57858110156135525760405162461bcd60e51b815260040180806020018281038252602681526020018061371e6026913960400191505060405180910390fd5b8894509250826135bb565b600061356a8984866128a1565b90508981111561357657fe5b878110156135b55760405162461bcd60e51b81526004018080602001828103825260268152602001806137fc6026913960400191505060405180910390fd5b94508793505b505b5050965096945050505050565b60008115806135e5575050808202828282816135e257fe5b04145b610b85576040805162461bcd60e51b815260206004820152601460248201527364732d6d6174682d6d756c2d6f766572666c6f7760601b604482015290519081900360640190fd5b80820182811015610b85576040805162461bcd60e51b815260206004820152601460248201527364732d6d6174682d6164642d6f766572666c6f7760601b604482015290519081900360640190fd5b80820382811115610b85576040805162461bcd60e51b815260206004820152601560248201527464732d6d6174682d7375622d756e646572666c6f7760581b604482015290519081900360640190fdfe556e697377617056324c6962726172793a20494e53554646494349454e545f4f55545055545f414d4f554e54556e697377617056324c6962726172793a204944454e544943414c5f414444524553534553556e69737761705632526f757465723a20494e53554646494349454e545f425f414d4f554e54556e697377617056324c6962726172793a20494e53554646494349454e545f4c4951554944495459556e69737761705632526f75746572203a205245574152445f4c4f434b5f4641494c4544556e697377617056324c6962726172793a20494e53554646494349454e545f414d4f554e54556e69737761705632526f757465723a204558434553534956455f494e5055545f414d4f554e54556e69737761705632526f757465723a20494e56414c49445f50415448000000556e69737761705632526f757465723a20494e53554646494349454e545f415f414d4f554e545472616e7366657248656c7065723a204554485f5452414e534645525f4641494c4544556e69737761705632526f757465723a20494e53554646494349454e545f4f55545055545f414d4f554e545472616e7366657248656c7065723a205452414e534645525f46524f4d5f4641494c4544556e697377617056324c6962726172793a20494e53554646494349454e545f494e5055545f414d4f554e54556e69737761705632526f757465723a20455850495245440000000000000000a264697066735822122046a9cf232cb4bca1679c1ac7e2b0348c9d5bb4261a29a8bbbe9dd96d34744a3164736f6c634300060c0033",
  "immutableReferences": {
    "1319": [
      {
        "length": 32,
        "start": 2908
      },
      {
        "length": 32,
        "start": 2965
      },
      {
        "length": 32,
        "start": 3216
      },
      {
        "length": 32,
        "start": 3393
      },
      {
        "length": 32,
        "start": 3734
      },
      {
        "length": 32,
        "start": 3949
      },
      {
        "length": 32,
        "start": 4398
      },
      {
        "length": 32,
        "start": 5057
      },
      {
        "length": 32,
        "start": 5419
      },
      {
        "length": 32,
        "start": 5856
      },
      {
        "length": 32,
        "start": 6405
      },
      {
        "length": 32,
        "start": 6770
      },
      {
        "length": 32,
        "start": 7111
      },
      {
        "length": 32,
        "start": 7615
      },
      {
        "length": 32,
        "start": 7656
      },
      {
        "length": 32,
        "start": 8032
      },
      {
        "length": 32,
        "start": 8587
      },
      {
        "length": 32,
        "start": 8926
      },
      {
        "length": 32,
        "start": 11402
      },
      {
        "length": 32,
        "start": 11469
      },
      {
        "length": 32,
        "start": 13113
      },
      {
        "length": 32,
        "start": 13365
      },
      {
        "length": 32,
        "start": 13493
      }
    ],
    "1322": [
      {
        "length": 32,
        "start": 378
      },
      {
        "length": 32,
        "start": 3427
      },
      {
        "length": 32,
        "start": 4256
      },
      {
        "length": 32,
        "start": 4658
      },
      {
        "length": 32,
        "start": 4910
      },
      {
        "length": 32,
        "start": 5233
      },
      {
        "length": 32,
        "start": 5369
      },
      {
        "length": 32,
        "start": 6032
      },
      {
        "length": 32,
        "start": 6258
      },
      {
        "length": 32,
        "start": 6584
      },
      {
        "length": 32,
        "start": 6720
      },
      {
        "length": 32,
        "start": 7890
      },
      {
        "length": 32,
        "start": 8283
      },
      {
        "length": 32,
        "start": 8342
      },
      {
        "length": 32,
        "start": 8874
      },
      {
        "length": 32,
        "start": 8960
      },
      {
        "length": 32,
        "start": 9012
      },
      {
        "length": 32,
        "start": 9128
      }
    ]
  },
  "source": "// SPDX-License-Identifier: GPL-3.0\n\npragma solidity =0.6.12;\n\nimport \"./libraries/UniswapV2Library.sol\";\nimport \"./libraries/SafeMath.sol\";\nimport \"./libraries/TransferHelper.sol\";\nimport \"./interfaces/IUniswapV2Router.sol\";\nimport \"./interfaces/IUniswapV2Factory.sol\";\nimport \"./interfaces/IERC20.sol\";\nimport \"./interfaces/IWETH.sol\";\n\ninterface IProximaLiquidityRewardVault {\n    function lockShares(address[] memory pair, address user)\n        external\n        returns (bool);\n}\n\ncontract UniswapV2Router02 is IUniswapV2Router {\n    using SafeMathUniswap for uint256;\n\n    address public immutable override factory;\n    address public immutable override WBNB;\n    address public override rewardVault;\n    address public override governor;\n    bool public override pairGovernance;\n\n    modifier ensure(uint256 deadline) {\n        require(deadline >= block.timestamp, \"UniswapV2Router: EXPIRED\");\n        _;\n    }\n\n    constructor(\n        address _factory,\n        address _WETH,\n        address _rewardVault\n    ) public {\n        factory = _factory;\n        WBNB = _WETH;\n        rewardVault = _rewardVault;\n        governor = msg.sender;\n        pairGovernance = true;\n    }\n\n    receive() external payable {\n        assert(msg.sender == WBNB); // only accept ETH via fallback from the WBNB contract\n    }\n\n    // **** ADD LIQUIDITY ****\n    function _addLiquidity(\n        address tokenA,\n        address tokenB,\n        uint256 amountADesired,\n        uint256 amountBDesired,\n        uint256 amountAMin,\n        uint256 amountBMin\n    ) internal virtual returns (uint256 amountA, uint256 amountB) {\n        // create the pair if it doesn't exist yet\n        if (IUniswapV2Factory(factory).getPair(tokenA, tokenB) == address(0)) {\n            IUniswapV2Factory(factory).createPair(\n                tokenA,\n                tokenB,\n                msg.sender,\n                pairGovernance\n            );\n        }\n        (uint256 reserveA, uint256 reserveB) =\n            UniswapV2Library.getReserves(factory, tokenA, tokenB);\n        if (reserveA == 0 && reserveB == 0) {\n            (amountA, amountB) = (amountADesired, amountBDesired);\n        } else {\n            uint256 amountBOptimal =\n                UniswapV2Library.quote(amountADesired, reserveA, reserveB);\n            if (amountBOptimal <= amountBDesired) {\n                require(\n                    amountBOptimal >= amountBMin,\n                    \"UniswapV2Router: INSUFFICIENT_B_AMOUNT\"\n                );\n                (amountA, amountB) = (amountADesired, amountBOptimal);\n            } else {\n                uint256 amountAOptimal =\n                    UniswapV2Library.quote(amountBDesired, reserveB, reserveA);\n                assert(amountAOptimal <= amountADesired);\n                require(\n                    amountAOptimal >= amountAMin,\n                    \"UniswapV2Router: INSUFFICIENT_A_AMOUNT\"\n                );\n                (amountA, amountB) = (amountAOptimal, amountBDesired);\n            }\n        }\n    }\n\n    function addLiquidity(\n        address tokenA,\n        address tokenB,\n        uint256 amountADesired,\n        uint256 amountBDesired,\n        uint256 amountAMin,\n        uint256 amountBMin,\n        address to,\n        uint256 deadline\n    )\n        external\n        virtual\n        override\n        ensure(deadline)\n        returns (\n            uint256 amountA,\n            uint256 amountB,\n            uint256 liquidity\n        )\n    {\n        (amountA, amountB) = _addLiquidity(\n            tokenA,\n            tokenB,\n            amountADesired,\n            amountBDesired,\n            amountAMin,\n            amountBMin\n        );\n        address pair = UniswapV2Library.pairFor(factory, tokenA, tokenB);\n        TransferHelper.safeTransferFrom(tokenA, msg.sender, pair, amountA);\n        TransferHelper.safeTransferFrom(tokenB, msg.sender, pair, amountB);\n        liquidity = IUniswapV2Pair(pair).mint(to);\n    }\n\n    function addLiquidityBNB(\n        address token,\n        uint256 amountTokenDesired,\n        uint256 amountTokenMin,\n        uint256 amountETHMin,\n        address to,\n        uint256 deadline\n    )\n        external\n        payable\n        virtual\n        override\n        ensure(deadline)\n        returns (\n            uint256 amountToken,\n            uint256 amountETH,\n            uint256 liquidity\n        )\n    {\n        (amountToken, amountETH) = _addLiquidity(\n            token,\n            WBNB,\n            amountTokenDesired,\n            msg.value,\n            amountTokenMin,\n            amountETHMin\n        );\n        address pair = UniswapV2Library.pairFor(factory, token, WBNB);\n        TransferHelper.safeTransferFrom(token, msg.sender, pair, amountToken);\n        IWETH(WBNB).deposit{value: amountETH}();\n        assert(IWETH(WBNB).transfer(pair, amountETH));\n        liquidity = IUniswapV2Pair(pair).mint(to);\n        // refund dust eth, if any\n        if (msg.value > amountETH)\n            TransferHelper.safeTransferETH(msg.sender, msg.value - amountETH);\n    }\n\n    // **** REMOVE LIQUIDITY ****\n    function removeLiquidity(\n        address tokenA,\n        address tokenB,\n        uint256 liquidity,\n        uint256 amountAMin,\n        uint256 amountBMin,\n        address to,\n        uint256 deadline\n    )\n        public\n        virtual\n        override\n        ensure(deadline)\n        returns (uint256 amountA, uint256 amountB)\n    {\n        address pair = UniswapV2Library.pairFor(factory, tokenA, tokenB);\n        IUniswapV2Pair(pair).transferFrom(msg.sender, pair, liquidity); // send liquidity to pair\n        (uint256 amount0, uint256 amount1) = IUniswapV2Pair(pair).burn(to);\n        (address token0, ) = UniswapV2Library.sortTokens(tokenA, tokenB);\n        (amountA, amountB) = tokenA == token0\n            ? (amount0, amount1)\n            : (amount1, amount0);\n        require(\n            amountA >= amountAMin,\n            \"UniswapV2Router: INSUFFICIENT_A_AMOUNT\"\n        );\n        require(\n            amountB >= amountBMin,\n            \"UniswapV2Router: INSUFFICIENT_B_AMOUNT\"\n        );\n    }\n\n    function removeLiquidityBNB(\n        address token,\n        uint256 liquidity,\n        uint256 amountTokenMin,\n        uint256 amountETHMin,\n        address to,\n        uint256 deadline\n    )\n        public\n        virtual\n        override\n        ensure(deadline)\n        returns (uint256 amountToken, uint256 amountETH)\n    {\n        (amountToken, amountETH) = removeLiquidity(\n            token,\n            WBNB,\n            liquidity,\n            amountTokenMin,\n            amountETHMin,\n            address(this),\n            deadline\n        );\n        TransferHelper.safeTransfer(token, to, amountToken);\n        IWETH(WBNB).withdraw(amountETH);\n        TransferHelper.safeTransferETH(to, amountETH);\n    }\n\n    function removeLiquidityWithPermit(\n        address tokenA,\n        address tokenB,\n        uint256 liquidity,\n        uint256 amountAMin,\n        uint256 amountBMin,\n        address to,\n        uint256 deadline,\n        bool approveMax,\n        uint8 v,\n        bytes32 r,\n        bytes32 s\n    ) external virtual override returns (uint256 amountA, uint256 amountB) {\n        address pair = UniswapV2Library.pairFor(factory, tokenA, tokenB);\n        uint256 value = approveMax ? uint256(-1) : liquidity;\n        IUniswapV2Pair(pair).permit(\n            msg.sender,\n            address(this),\n            value,\n            deadline,\n            v,\n            r,\n            s\n        );\n        (amountA, amountB) = removeLiquidity(\n            tokenA,\n            tokenB,\n            liquidity,\n            amountAMin,\n            amountBMin,\n            to,\n            deadline\n        );\n    }\n\n    function removeLiquidityBNBWithPermit(\n        address token,\n        uint256 liquidity,\n        uint256 amountTokenMin,\n        uint256 amountETHMin,\n        address to,\n        uint256 deadline,\n        bool approveMax,\n        uint8 v,\n        bytes32 r,\n        bytes32 s\n    )\n        external\n        virtual\n        override\n        returns (uint256 amountToken, uint256 amountETH)\n    {\n        address pair = UniswapV2Library.pairFor(factory, token, WBNB);\n        uint256 value = approveMax ? uint256(-1) : liquidity;\n        IUniswapV2Pair(pair).permit(\n            msg.sender,\n            address(this),\n            value,\n            deadline,\n            v,\n            r,\n            s\n        );\n        (amountToken, amountETH) = removeLiquidityBNB(\n            token,\n            liquidity,\n            amountTokenMin,\n            amountETHMin,\n            to,\n            deadline\n        );\n    }\n\n    // **** SWAP ****\n    // requires the initial amount to have already been sent to the first pair\n    function _swap(\n        uint256[] memory amounts,\n        address[] memory path,\n        address _to,\n        address _toReward\n    ) internal virtual {\n        for (uint256 i; i < path.length - 1; i++) {\n            (address input, address output) = (path[i], path[i + 1]);\n            (address token0, ) = UniswapV2Library.sortTokens(input, output);\n            uint256 amountOut = amounts[i + 1];\n            (uint256 amount0Out, uint256 amount1Out) =\n                input == token0\n                    ? (uint256(0), amountOut)\n                    : (amountOut, uint256(0));\n            address to =\n                i < path.length - 2\n                    ? UniswapV2Library.pairFor(factory, output, path[i + 2])\n                    : _to;\n            IUniswapV2Pair(UniswapV2Library.pairFor(factory, input, output))\n                .swap(amount0Out, amount1Out, to, new bytes(0));\n        }\n        bool rRes =\n            IProximaLiquidityRewardVault(rewardVault).lockShares(\n                path,\n                _toReward\n            );\n        require(rRes == true, \"UniswapV2Router : REWARD_LOCK_FAILED\");\n    }\n\n    function swapExactTokensForTokens(\n        uint256 amountIn,\n        uint256 amountOutMin,\n        address[] calldata path,\n        address to,\n        uint256 deadline\n    )\n        external\n        virtual\n        override\n        ensure(deadline)\n        returns (uint256[] memory amounts)\n    {\n        amounts = UniswapV2Library.getAmountsOut(factory, amountIn, path);\n        require(\n            amounts[amounts.length - 1] >= amountOutMin,\n            \"UniswapV2Router: INSUFFICIENT_OUTPUT_AMOUNT\"\n        );\n        TransferHelper.safeTransferFrom(\n            path[0],\n            msg.sender,\n            UniswapV2Library.pairFor(factory, path[0], path[1]),\n            amounts[0]\n        );\n        _swap(amounts, path, to, to);\n    }\n\n    function swapTokensForExactTokens(\n        uint256 amountOut,\n        uint256 amountInMax,\n        address[] calldata path,\n        address to,\n        uint256 deadline\n    )\n        external\n        virtual\n        override\n        ensure(deadline)\n        returns (uint256[] memory amounts)\n    {\n        amounts = UniswapV2Library.getAmountsIn(factory, amountOut, path);\n        require(\n            amounts[0] <= amountInMax,\n            \"UniswapV2Router: EXCESSIVE_INPUT_AMOUNT\"\n        );\n        TransferHelper.safeTransferFrom(\n            path[0],\n            msg.sender,\n            UniswapV2Library.pairFor(factory, path[0], path[1]),\n            amounts[0]\n        );\n        _swap(amounts, path, to, to);\n    }\n\n    function swapExactBNBForTokens(\n        uint256 amountOutMin,\n        address[] calldata path,\n        address to,\n        uint256 deadline\n    )\n        external\n        payable\n        virtual\n        override\n        ensure(deadline)\n        returns (uint256[] memory amounts)\n    {\n        require(path[0] == WBNB, \"UniswapV2Router: INVALID_PATH\");\n        amounts = UniswapV2Library.getAmountsOut(factory, msg.value, path);\n        require(\n            amounts[amounts.length - 1] >= amountOutMin,\n            \"UniswapV2Router: INSUFFICIENT_OUTPUT_AMOUNT\"\n        );\n        IWETH(WBNB).deposit{value: amounts[0]}();\n        assert(\n            IWETH(WBNB).transfer(\n                UniswapV2Library.pairFor(factory, path[0], path[1]),\n                amounts[0]\n            )\n        );\n        _swap(amounts, path, to, to);\n    }\n\n    function swapTokensForExactBNB(\n        uint256 amountOut,\n        uint256 amountInMax,\n        address[] calldata path,\n        address to,\n        uint256 deadline\n    )\n        external\n        virtual\n        override\n        ensure(deadline)\n        returns (uint256[] memory amounts)\n    {\n        require(path[path.length - 1] == WBNB, \"UniswapV2Router: INVALID_PATH\");\n        amounts = UniswapV2Library.getAmountsIn(factory, amountOut, path);\n        require(\n            amounts[0] <= amountInMax,\n            \"UniswapV2Router: EXCESSIVE_INPUT_AMOUNT\"\n        );\n        TransferHelper.safeTransferFrom(\n            path[0],\n            msg.sender,\n            UniswapV2Library.pairFor(factory, path[0], path[1]),\n            amounts[0]\n        );\n        _swap(amounts, path, address(this), to);\n        IWETH(WBNB).withdraw(amounts[amounts.length - 1]);\n        TransferHelper.safeTransferETH(to, amounts[amounts.length - 1]);\n    }\n\n    function swapExactTokensForBNB(\n        uint256 amountIn,\n        uint256 amountOutMin,\n        address[] calldata path,\n        address to,\n        uint256 deadline\n    )\n        external\n        virtual\n        override\n        ensure(deadline)\n        returns (uint256[] memory amounts)\n    {\n        require(path[path.length - 1] == WBNB, \"UniswapV2Router: INVALID_PATH\");\n        amounts = UniswapV2Library.getAmountsOut(factory, amountIn, path);\n        require(\n            amounts[amounts.length - 1] >= amountOutMin,\n            \"UniswapV2Router: INSUFFICIENT_OUTPUT_AMOUNT\"\n        );\n        TransferHelper.safeTransferFrom(\n            path[0],\n            msg.sender,\n            UniswapV2Library.pairFor(factory, path[0], path[1]),\n            amounts[0]\n        );\n        _swap(amounts, path, address(this), to);\n        IWETH(WBNB).withdraw(amounts[amounts.length - 1]);\n        TransferHelper.safeTransferETH(to, amounts[amounts.length - 1]);\n    }\n\n    function swapBNBForExactTokens(\n        uint256 amountOut,\n        address[] calldata path,\n        address to,\n        uint256 deadline\n    )\n        external\n        payable\n        virtual\n        override\n        ensure(deadline)\n        returns (uint256[] memory amounts)\n    {\n        require(path[0] == WBNB, \"UniswapV2Router: INVALID_PATH\");\n        amounts = UniswapV2Library.getAmountsIn(factory, amountOut, path);\n        require(\n            amounts[0] <= msg.value,\n            \"UniswapV2Router: EXCESSIVE_INPUT_AMOUNT\"\n        );\n        IWETH(WBNB).deposit{value: amounts[0]}();\n        assert(\n            IWETH(WBNB).transfer(\n                UniswapV2Library.pairFor(factory, path[0], path[1]),\n                amounts[0]\n            )\n        );\n        _swap(amounts, path, to, to);\n        // refund dust eth, if any\n        if (msg.value > amounts[0])\n            TransferHelper.safeTransferETH(msg.sender, msg.value - amounts[0]);\n    }\n\n    function setPairGovernanceState(bool _newState) external override {\n        require(msg.sender == governor, \"UniswapV2: FORBIDDEN\");\n        pairGovernance = _newState;\n    }\n\n    function reannounceGovernor(address _governor) external override {\n        require(msg.sender == governor, \"UniswapV2: FORBIDDEN\");\n        governor = _governor;\n    }\n\n    // **** LIBRARY FUNCTIONS ****\n    function quote(\n        uint256 amountA,\n        uint256 reserveA,\n        uint256 reserveB\n    ) public pure virtual override returns (uint256 amountB) {\n        return UniswapV2Library.quote(amountA, reserveA, reserveB);\n    }\n\n    function getAmountOut(\n        uint256 amountIn,\n        uint256 reserveIn,\n        uint256 reserveOut\n    ) public pure virtual override returns (uint256 amountOut) {\n        return UniswapV2Library.getAmountOut(amountIn, reserveIn, reserveOut);\n    }\n\n    function getAmountIn(\n        uint256 amountOut,\n        uint256 reserveIn,\n        uint256 reserveOut\n    ) public pure virtual override returns (uint256 amountIn) {\n        return UniswapV2Library.getAmountIn(amountOut, reserveIn, reserveOut);\n    }\n\n    function getAmountsOut(uint256 amountIn, address[] memory path)\n        public\n        view\n        virtual\n        override\n        returns (uint256[] memory amounts)\n    {\n        return UniswapV2Library.getAmountsOut(factory, amountIn, path);\n    }\n\n    function getAmountsIn(uint256 amountOut, address[] memory path)\n        public\n        view\n        virtual\n        override\n        returns (uint256[] memory amounts)\n    {\n        return UniswapV2Library.getAmountsIn(factory, amountOut, path);\n    }\n\n    function getOptimalAmount(\n        address tokenA,\n        address tokenB,\n        uint256 amountADesired\n    ) public view virtual override returns (uint256 amountA, uint256 amountB) {\n        (uint256 reserveA, uint256 reserveB) =\n            UniswapV2Library.getReserves(factory, tokenA, tokenB);\n        require(\n            reserveA != 0 && reserveB != 0,\n            \"UniswapV2Router: NOT_INITIALIZED\"\n        );\n        uint256 amountBOptimal =\n            UniswapV2Library.quote(amountADesired, reserveA, reserveB);\n        (amountA, amountB) = (amountADesired, amountBOptimal);\n    }\n}\n",
  "sourcePath": "/home/sagar/Desktop/project-Pxa/FINAL_SRELEASE/SolarRelease-Main/Mainnet/final/smartcontracts/Proxima-periphery/contracts/UniswapV2Router02.sol",
  "compiler": {
    "name": "solc",
    "version": "0.6.12+commit.27d51765.Emscripten.clang"
  },
  "schemaVersion": "3.3.2",
  "updatedAt": "2021-03-23T12:18:18.730Z",
  "networkType": "ethereum",
  "devdoc": {
    "kind": "dev",
    "methods": {},
    "version": 1
  },
  "userdoc": {
    "kind": "user",
    "methods": {},
    "version": 1
  }
}