{
  "contractName": "BBStorage",
  "abi": [
    {
      "inputs": [
        {
          "internalType": "contract IERC20",
          "name": "_pxa",
          "type": "address"
        }
      ],
      "stateMutability": "nonpayable",
      "type": "constructor"
    },
    {
      "anonymous": false,
      "inputs": [
        {
          "indexed": true,
          "internalType": "address",
          "name": "previousOwner",
          "type": "address"
        },
        {
          "indexed": true,
          "internalType": "address",
          "name": "newOwner",
          "type": "address"
        }
      ],
      "name": "OwnershipTransferred",
      "type": "event"
    },
    {
      "inputs": [],
      "name": "BBGenitor",
      "outputs": [
        {
          "internalType": "address",
          "name": "",
          "type": "address"
        }
      ],
      "stateMutability": "view",
      "type": "function",
      "constant": true
    },
    {
      "inputs": [],
      "name": "owner",
      "outputs": [
        {
          "internalType": "address",
          "name": "",
          "type": "address"
        }
      ],
      "stateMutability": "view",
      "type": "function",
      "constant": true
    },
    {
      "inputs": [],
      "name": "pxa",
      "outputs": [
        {
          "internalType": "contract IERC20",
          "name": "",
          "type": "address"
        }
      ],
      "stateMutability": "view",
      "type": "function",
      "constant": true
    },
    {
      "inputs": [],
      "name": "renounceOwnership",
      "outputs": [],
      "stateMutability": "nonpayable",
      "type": "function"
    },
    {
      "inputs": [
        {
          "internalType": "address",
          "name": "newOwner",
          "type": "address"
        }
      ],
      "name": "transferOwnership",
      "outputs": [],
      "stateMutability": "nonpayable",
      "type": "function"
    },
    {
      "inputs": [
        {
          "internalType": "address",
          "name": "_BBGenitor",
          "type": "address"
        }
      ],
      "name": "setBBGenitor",
      "outputs": [],
      "stateMutability": "nonpayable",
      "type": "function"
    },
    {
      "inputs": [],
      "name": "moveFunds",
      "outputs": [],
      "stateMutability": "nonpayable",
      "type": "function"
    },
    {
      "inputs": [],
      "name": "getBBStorage",
      "outputs": [
        {
          "internalType": "uint256",
          "name": "",
          "type": "uint256"
        }
      ],
      "stateMutability": "view",
      "type": "function",
      "constant": true
    }
  ],
  "bytecode": "0x608060405234801561001057600080fd5b506040516106ce3803806106ce8339818101604052602081101561003357600080fd5b5051600061003f6100ae565b600080546001600160a01b0319166001600160a01b0383169081178255604051929350917f8be0079c531659141344cd1fd0a4f28419497f9722a3daafe3b4186f6b6457e0908290a350600180546001600160a01b0319166001600160a01b03929092169190911790556100b2565b3390565b61060d806100c16000396000f3fe608060405234801561001057600080fd5b50600436106100885760003560e01c8063bc8d1be01161005b578063bc8d1be0146100dd578063ce509f8d14610103578063d0b6ba2a1461010b578063f2fde38b1461011357610088565b80636744eceb1461008d578063715018a6146100a75780637e54353f146100b15780638da5cb5b146100d5575b600080fd5b610095610139565b60408051918252519081900360200190f35b6100af6101b5565b005b6100b9610273565b604080516001600160a01b039092168252519081900360200190f35b6100b9610282565b6100af600480360360208110156100f357600080fd5b50356001600160a01b0316610291565b6100b961037c565b6100af61038b565b6100af6004803603602081101561012957600080fd5b50356001600160a01b0316610499565b600154604080516370a0823160e01b815230600482015290516000926001600160a01b0316916370a08231916024808301926020929190829003018186803b15801561018457600080fd5b505afa158015610198573d6000803e3d6000fd5b505050506040513d60208110156101ae57600080fd5b5051905090565b6101bd6105ad565b6001600160a01b03166101ce610282565b6001600160a01b031614610229576040805162461bcd60e51b815260206004820181905260248201527f4f776e61626c653a2063616c6c6572206973206e6f7420746865206f776e6572604482015290519081900360640190fd5b600080546040516001600160a01b03909116907f8be0079c531659141344cd1fd0a4f28419497f9722a3daafe3b4186f6b6457e0908390a3600080546001600160a01b0319169055565b6002546001600160a01b031681565b6000546001600160a01b031690565b6102996105ad565b6001600160a01b03166102aa610282565b6001600160a01b031614610305576040805162461bcd60e51b815260206004820181905260248201527f4f776e61626c653a2063616c6c6572206973206e6f7420746865206f776e6572604482015290519081900360640190fd5b6002546001600160a01b03161561035a576040805162461bcd60e51b8152602060048201526014602482015273212129ba37b930b3b29d102327a92124a22222a760611b604482015290519081900360640190fd5b600280546001600160a01b0319166001600160a01b0392909216919091179055565b6001546001600160a01b031681565b610393610282565b6001600160a01b0316336001600160a01b03161480156103bd57506002546001600160a01b031615155b610405576040805162461bcd60e51b8152602060048201526014602482015273212129ba37b930b3b29d102327a92124a22222a760611b604482015290519081900360640190fd5b600061040f610139565b6001546002546040805163a9059cbb60e01b81526001600160a01b03928316600482015260248101859052905193945091169163a9059cbb916044808201926020929091908290030181600087803b15801561046a57600080fd5b505af115801561047e573d6000803e3d6000fd5b505050506040513d602081101561049457600080fd5b505050565b6104a16105ad565b6001600160a01b03166104b2610282565b6001600160a01b03161461050d576040805162461bcd60e51b815260206004820181905260248201527f4f776e61626c653a2063616c6c6572206973206e6f7420746865206f776e6572604482015290519081900360640190fd5b6001600160a01b0381166105525760405162461bcd60e51b81526004018080602001828103825260268152602001806105b26026913960400191505060405180910390fd5b600080546040516001600160a01b03808516939216917f8be0079c531659141344cd1fd0a4f28419497f9722a3daafe3b4186f6b6457e091a3600080546001600160a01b0319166001600160a01b0392909216919091179055565b339056fe4f776e61626c653a206e6577206f776e657220697320746865207a65726f2061646472657373a26469706673582212200b9a9af3bb8734db591fbe69696166f8df02a9ec487f5fff48e332e4e0309aef64736f6c634300060c0033",
  "immutableReferences": {},
  "source": "// SPDX-License-Identifier: MIT\n\npragma solidity 0.6.12;\n\nimport \"@openzeppelin/contracts/token/ERC20/ERC20.sol\";\nimport \"@openzeppelin/contracts/token/ERC20/IERC20.sol\";\nimport \"@openzeppelin/contracts/access/Ownable.sol\";\n\n/**\n * @title : BBStorage\n * Developed by ProximusAlpha\n */\n\ncontract BBStorage is Ownable {\n    /// @dev Proxima Token\n    IERC20 public pxa;\n    /// @dev Buy-Back-Genitor address\n    address public BBGenitor;\n\n    /// @dev Set proxima Token\n    constructor(IERC20 _pxa) public {\n        pxa = _pxa;\n    }\n\n    /// @dev Set BBGenitor\n    function setBBGenitor(address _BBGenitor) external onlyOwner {\n        require(BBGenitor == address(0), \"BBStorage: FORBIDDEN\");\n        BBGenitor = _BBGenitor;\n    }\n\n    /// @dev Move funds to BBGenitor\n    function moveFunds() external {\n        require(\n            msg.sender == owner() && BBGenitor != address(0),\n            \"BBStorage: FORBIDDEN\"\n        );\n        uint256 pxaBal = getBBStorage();\n        pxa.transfer(BBGenitor, pxaBal);\n    }\n\n    /// @dev Returns balance of BBStorage\n    function getBBStorage() public view returns (uint256) {\n        return pxa.balanceOf(address(this));\n    }\n}\n",
  "sourcePath": "/home/sagar/Desktop/project-Pxa/FINAL_SRELEASE/SolarRelease-Main/Mainnet/final/smartcontracts/Proxima-core/contracts/BBStorage.sol",
  "compiler": {
    "name": "solc",
    "version": "0.6.12+commit.27d51765.Emscripten.clang"
  },
  "schemaVersion": "3.3.2",
  "updatedAt": "2021-03-23T11:17:57.263Z",
  "networkType": "ethereum",
  "devdoc": {
    "kind": "dev",
    "methods": {
      "constructor": {
        "details": "Set proxima Token"
      },
      "getBBStorage()": {
        "details": "Returns balance of BBStorage"
      },
      "moveFunds()": {
        "details": "Move funds to BBGenitor"
      },
      "owner()": {
        "details": "Returns the address of the current owner."
      },
      "renounceOwnership()": {
        "details": "Leaves the contract without owner. It will not be possible to call `onlyOwner` functions anymore. Can only be called by the current owner. NOTE: Renouncing ownership will leave the contract without an owner, thereby removing any functionality that is only available to the owner."
      },
      "setBBGenitor(address)": {
        "details": "Set BBGenitor"
      },
      "transferOwnership(address)": {
        "details": "Transfers ownership of the contract to a new account (`newOwner`). Can only be called by the current owner."
      }
    },
    "stateVariables": {
      "BBGenitor": {
        "details": "Buy-Back-Genitor address"
      },
      "pxa": {
        "details": "Proxima Token"
      }
    },
    "title": ": BBStorage Developed by ProximusAlpha",
    "version": 1
  },
  "userdoc": {
    "kind": "user",
    "methods": {},
    "version": 1
  }
}