{
  "contractName": "ProximaFaucet",
  "abi": [
    {
      "inputs": [
        {
          "internalType": "contract IERC20",
          "name": "_pxa",
          "type": "address"
        }
      ],
      "stateMutability": "nonpayable",
      "type": "constructor"
    },
    {
      "anonymous": false,
      "inputs": [
        {
          "indexed": false,
          "internalType": "address",
          "name": "receiver",
          "type": "address"
        },
        {
          "indexed": false,
          "internalType": "uint256",
          "name": "amount",
          "type": "uint256"
        }
      ],
      "name": "Funded",
      "type": "event"
    },
    {
      "anonymous": false,
      "inputs": [
        {
          "indexed": true,
          "internalType": "address",
          "name": "previousOwner",
          "type": "address"
        },
        {
          "indexed": true,
          "internalType": "address",
          "name": "newOwner",
          "type": "address"
        }
      ],
      "name": "OwnershipTransferred",
      "type": "event"
    },
    {
      "inputs": [],
      "name": "owner",
      "outputs": [
        {
          "internalType": "address",
          "name": "",
          "type": "address"
        }
      ],
      "stateMutability": "view",
      "type": "function",
      "constant": true
    },
    {
      "inputs": [],
      "name": "pxa",
      "outputs": [
        {
          "internalType": "contract IERC20",
          "name": "",
          "type": "address"
        }
      ],
      "stateMutability": "view",
      "type": "function",
      "constant": true
    },
    {
      "inputs": [],
      "name": "renounceOwnership",
      "outputs": [],
      "stateMutability": "nonpayable",
      "type": "function"
    },
    {
      "inputs": [
        {
          "internalType": "address",
          "name": "newOwner",
          "type": "address"
        }
      ],
      "name": "transferOwnership",
      "outputs": [],
      "stateMutability": "nonpayable",
      "type": "function"
    },
    {
      "inputs": [
        {
          "internalType": "enum ProximaFaucet.Options",
          "name": "_option",
          "type": "uint8"
        }
      ],
      "name": "getFunds",
      "outputs": [],
      "stateMutability": "nonpayable",
      "type": "function"
    },
    {
      "inputs": [
        {
          "internalType": "address",
          "name": "_who",
          "type": "address"
        }
      ],
      "name": "nextFunding",
      "outputs": [
        {
          "internalType": "uint256",
          "name": "",
          "type": "uint256"
        }
      ],
      "stateMutability": "view",
      "type": "function",
      "constant": true
    },
    {
      "inputs": [],
      "name": "counter",
      "outputs": [
        {
          "internalType": "uint256",
          "name": "",
          "type": "uint256"
        }
      ],
      "stateMutability": "view",
      "type": "function",
      "constant": true
    },
    {
      "inputs": [],
      "name": "getFaucetBalance",
      "outputs": [
        {
          "internalType": "uint256",
          "name": "",
          "type": "uint256"
        }
      ],
      "stateMutability": "view",
      "type": "function",
      "constant": true
    }
  ],
  "bytecode": "0x608060405234801561001057600080fd5b506040516106fa3803806106fa8339818101604052602081101561003357600080fd5b5051600061003f6100ae565b600080546001600160a01b0319166001600160a01b0383169081178255604051929350917f8be0079c531659141344cd1fd0a4f28419497f9722a3daafe3b4186f6b6457e0908290a350600180546001600160a01b0319166001600160a01b03929092169190911790556100b2565b3390565b610639806100c16000396000f3fe608060405234801561001057600080fd5b50600436106100885760003560e01c8063ce509f8d1161005b578063ce509f8d146100fb578063f1f959a614610103578063f2fde38b1461010b578063f623e3391461013157610088565b80633303d18d1461008d57806361bc221a146100c5578063715018a6146100cd5780638da5cb5b146100d7575b600080fd5b6100b3600480360360208110156100a357600080fd5b50356001600160a01b0316610151565b60408051918252519081900360200190f35b6100b361016c565b6100d5610172565b005b6100df610230565b604080516001600160a01b039092168252519081900360200190f35b6100df61023f565b6100b361024e565b6100d56004803603602081101561012157600080fd5b50356001600160a01b03166102ca565b6100d56004803603602081101561014757600080fd5b503560ff166103de565b6001600160a01b031660009081526003602052604090205490565b60025490565b61017a6104ac565b6001600160a01b031661018b610230565b6001600160a01b0316146101e6576040805162461bcd60e51b815260206004820181905260248201527f4f776e61626c653a2063616c6c6572206973206e6f7420746865206f776e6572604482015290519081900360640190fd5b600080546040516001600160a01b03909116907f8be0079c531659141344cd1fd0a4f28419497f9722a3daafe3b4186f6b6457e0908390a3600080546001600160a01b0319169055565b6000546001600160a01b031690565b6001546001600160a01b031681565b600154604080516370a0823160e01b815230600482015290516000926001600160a01b0316916370a08231916024808301926020929190829003018186803b15801561029957600080fd5b505afa1580156102ad573d6000803e3d6000fd5b505050506040513d60208110156102c357600080fd5b5051905090565b6102d26104ac565b6001600160a01b03166102e3610230565b6001600160a01b03161461033e576040805162461bcd60e51b815260206004820181905260248201527f4f776e61626c653a2063616c6c6572206973206e6f7420746865206f776e6572604482015290519081900360640190fd5b6001600160a01b0381166103835760405162461bcd60e51b81526004018080602001828103825260268152602001806105de6026913960400191505060405180910390fd5b600080546040516001600160a01b03808516939216917f8be0079c531659141344cd1fd0a4f28419497f9722a3daafe3b4186f6b6457e091a3600080546001600160a01b0319166001600160a01b0392909216919091179055565b336000908152600360205260409020544290036001811261043d576040805162461bcd60e51b81526020600482015260146024820152732823101d102320aaa1a2aa2fa1a7a7a62227aba760611b604482015290519081900360640190fd5b600182600281111561044b57fe5b141561046b5761046662015180670a688906bd8b00006104b0565b6104a8565b600282600281111561047957fe5b1415610494576104666203f480671f399b1438a100006104b0565b6104a86170806703782dace9d900006104b0565b5050565b3390565b6104b861024e565b8110610501576040805162461bcd60e51b815260206004820152601360248201527214118e8811905550d15517d111541311551151606a1b604482015290519081900360640190fd5b336000818152600360209081526040808320428701905560028054600190810190915554815163a9059cbb60e01b815260048101959095526024850186905290516001600160a01b039091169363a9059cbb9360448083019493928390030190829087803b15801561057257600080fd5b505af1158015610586573d6000803e3d6000fd5b505050506040513d602081101561059c57600080fd5b5050604080513381526020810183905281517f5af8184bef8e4b45eb9f6ed7734d04da38ced226495548f46e0c8ff8d7d9a524929181900390910190a1505056fe4f776e61626c653a206e6577206f776e657220697320746865207a65726f2061646472657373a26469706673582212205572786ea85ac366bb14de43b8384de46d7ffd1bd04cf74c1d1a9afca116c3de64736f6c634300060c0033",
  "immutableReferences": {},
  "source": "//SPDX-License-Identifier: MIT\npragma solidity ^0.6.12;\n\nimport \"@openzeppelin/contracts/token/ERC20/ERC20.sol\";\nimport \"@openzeppelin/contracts/token/ERC20/IERC20.sol\";\nimport \"@openzeppelin/contracts/access/Ownable.sol\";\n\n/**\n * @title : ProximaFaucet\n * Developed by ProximusAlpha\n */\n\ncontract ProximaFaucet is Ownable {\n    /// @dev Proxima Token\n    IERC20 public pxa;\n    /// @dev Claim state enum\n    enum Options {Every8Hours, Every24Hours, Every72Hours}\n\n    /// @dev Constant time window for claim\n    uint256 constant hours8InSeconds = 8 * 60 * 60;\n    uint256 constant hours24InSeconds = 24 * 60 * 60;\n    uint256 constant hours72InSeconds = 72 * 60 * 60;\n\n    /// @dev Constant amount window for claim\n    uint256 constant hours8Fund = 0.25 ether;\n    uint256 constant hours24Fund = 0.75 ether;\n    uint256 constant hours72Fund = 2.25 ether;\n\n    /// @dev Total number of claims\n    uint256 private claimCounter;\n\n    /// @dev Event emitted when claimed\n    event Funded(address receiver, uint256 amount);\n\n    /// @dev Claim time map\n    mapping(address => uint256) nextFundingTime;\n\n    /// @dev Sets pxa token\n    constructor(IERC20 _pxa) public {\n        pxa = _pxa;\n    }\n\n    /// @dev Transfer claimed pxa token\n    function getFunds(Options _option) public {\n        int256 duration = int256(nextFundingTime[msg.sender] - block.timestamp);\n        require(duration < 1, \"PF : FAUCET_COOLDOWN\");\n        if (_option == Options.Every24Hours) {\n            transferFund(hours24InSeconds, hours24Fund);\n        } else if (_option == Options.Every72Hours) {\n            transferFund(hours72InSeconds, hours72Fund);\n        } else {\n            transferFund(hours8InSeconds, hours8Fund);\n        }\n    }\n\n    function transferFund(uint256 _timeInSecond, uint256 _fund) private {\n        require(_fund < getFaucetBalance(), \"PF: FAUCET_DEPLETED\");\n        nextFundingTime[msg.sender] = block.timestamp + _timeInSecond;\n        claimCounter++;\n        pxa.transfer(msg.sender, _fund);\n        emit Funded(msg.sender, _fund);\n    }\n\n    /// @dev Returns next claim time for user\n    function nextFunding(address _who) public view returns (uint256) {\n        return nextFundingTime[_who];\n    }\n\n    /// @dev Returns claim counter\n    function counter() public view returns (uint256) {\n        return claimCounter;\n    }\n\n    /// @dev Returns faucet balance\n    function getFaucetBalance() public view returns (uint256) {\n        return pxa.balanceOf(address(this));\n    }\n}\n",
  "sourcePath": "/home/sagar/Desktop/project-Pxa/FINAL_SRELEASE/SolarRelease-Main/Mainnet/final/smartcontracts/Proxima-core/contracts/ProximaFaucet.sol",
  "compiler": {
    "name": "solc",
    "version": "0.6.12+commit.27d51765.Emscripten.clang"
  },
  "schemaVersion": "3.3.2",
  "updatedAt": "2021-03-23T11:17:57.301Z",
  "networkType": "ethereum",
  "devdoc": {
    "events": {
      "Funded(address,uint256)": {
        "details": "Event emitted when claimed"
      }
    },
    "kind": "dev",
    "methods": {
      "constructor": {
        "details": "Sets pxa token"
      },
      "counter()": {
        "details": "Returns claim counter"
      },
      "getFaucetBalance()": {
        "details": "Returns faucet balance"
      },
      "getFunds(uint8)": {
        "details": "Transfer claimed pxa token"
      },
      "nextFunding(address)": {
        "details": "Returns next claim time for user"
      },
      "owner()": {
        "details": "Returns the address of the current owner."
      },
      "renounceOwnership()": {
        "details": "Leaves the contract without owner. It will not be possible to call `onlyOwner` functions anymore. Can only be called by the current owner. NOTE: Renouncing ownership will leave the contract without an owner, thereby removing any functionality that is only available to the owner."
      },
      "transferOwnership(address)": {
        "details": "Transfers ownership of the contract to a new account (`newOwner`). Can only be called by the current owner."
      }
    },
    "stateVariables": {
      "claimCounter": {
        "details": "Total number of claims"
      },
      "hours8Fund": {
        "details": "Constant amount window for claim"
      },
      "hours8InSeconds": {
        "details": "Constant time window for claim"
      },
      "nextFundingTime": {
        "details": "Claim time map"
      },
      "pxa": {
        "details": "Proxima Token"
      }
    },
    "title": ": ProximaFaucet Developed by ProximusAlpha",
    "version": 1
  },
  "userdoc": {
    "kind": "user",
    "methods": {},
    "version": 1
  }
}