{
  "contractName": "ProximaPairGovernor",
  "abi": [
    {
      "inputs": [
        {
          "internalType": "address",
          "name": "_pxa",
          "type": "address"
        },
        {
          "internalType": "address",
          "name": "_factory",
          "type": "address"
        },
        {
          "internalType": "address",
          "name": "_proximaLiquidityRewardVault",
          "type": "address"
        }
      ],
      "stateMutability": "nonpayable",
      "type": "constructor"
    },
    {
      "anonymous": false,
      "inputs": [
        {
          "indexed": true,
          "internalType": "address",
          "name": "previousOwner",
          "type": "address"
        },
        {
          "indexed": true,
          "internalType": "address",
          "name": "newOwner",
          "type": "address"
        }
      ],
      "name": "OwnershipTransferred",
      "type": "event"
    },
    {
      "anonymous": false,
      "inputs": [
        {
          "indexed": false,
          "internalType": "uint256",
          "name": "id",
          "type": "uint256"
        }
      ],
      "name": "ProposalCanceled",
      "type": "event"
    },
    {
      "anonymous": false,
      "inputs": [
        {
          "indexed": true,
          "internalType": "address",
          "name": "challenger",
          "type": "address"
        },
        {
          "indexed": true,
          "internalType": "uint256",
          "name": "originalId",
          "type": "uint256"
        },
        {
          "indexed": true,
          "internalType": "uint256",
          "name": "newId",
          "type": "uint256"
        }
      ],
      "name": "ProposalChallenged",
      "type": "event"
    },
    {
      "anonymous": false,
      "inputs": [
        {
          "indexed": false,
          "internalType": "uint256",
          "name": "id",
          "type": "uint256"
        },
        {
          "indexed": false,
          "internalType": "address",
          "name": "proposer",
          "type": "address"
        },
        {
          "indexed": false,
          "internalType": "address",
          "name": "pair",
          "type": "address"
        },
        {
          "indexed": false,
          "internalType": "address",
          "name": "token0",
          "type": "address"
        },
        {
          "indexed": false,
          "internalType": "address",
          "name": "token1",
          "type": "address"
        }
      ],
      "name": "ProposalCreated",
      "type": "event"
    },
    {
      "anonymous": false,
      "inputs": [
        {
          "indexed": false,
          "internalType": "uint256",
          "name": "id",
          "type": "uint256"
        }
      ],
      "name": "ProposalExecuted",
      "type": "event"
    },
    {
      "anonymous": false,
      "inputs": [
        {
          "indexed": false,
          "internalType": "address",
          "name": "voter",
          "type": "address"
        },
        {
          "indexed": false,
          "internalType": "uint256",
          "name": "proposalId",
          "type": "uint256"
        },
        {
          "indexed": false,
          "internalType": "bool",
          "name": "support",
          "type": "bool"
        },
        {
          "indexed": false,
          "internalType": "uint256",
          "name": "votes",
          "type": "uint256"
        }
      ],
      "name": "VoteCast",
      "type": "event"
    },
    {
      "inputs": [],
      "name": "BALLOT_TYPEHASH",
      "outputs": [
        {
          "internalType": "bytes32",
          "name": "",
          "type": "bytes32"
        }
      ],
      "stateMutability": "view",
      "type": "function",
      "constant": true
    },
    {
      "inputs": [],
      "name": "DOMAIN_TYPEHASH",
      "outputs": [
        {
          "internalType": "bytes32",
          "name": "",
          "type": "bytes32"
        }
      ],
      "stateMutability": "view",
      "type": "function",
      "constant": true
    },
    {
      "inputs": [],
      "name": "factory",
      "outputs": [
        {
          "internalType": "address",
          "name": "",
          "type": "address"
        }
      ],
      "stateMutability": "view",
      "type": "function",
      "constant": true
    },
    {
      "inputs": [
        {
          "internalType": "address",
          "name": "",
          "type": "address"
        }
      ],
      "name": "latestProposalIds",
      "outputs": [
        {
          "internalType": "uint256",
          "name": "",
          "type": "uint256"
        }
      ],
      "stateMutability": "view",
      "type": "function",
      "constant": true
    },
    {
      "inputs": [],
      "name": "name",
      "outputs": [
        {
          "internalType": "string",
          "name": "",
          "type": "string"
        }
      ],
      "stateMutability": "view",
      "type": "function",
      "constant": true
    },
    {
      "inputs": [],
      "name": "owner",
      "outputs": [
        {
          "internalType": "address",
          "name": "",
          "type": "address"
        }
      ],
      "stateMutability": "view",
      "type": "function",
      "constant": true
    },
    {
      "inputs": [],
      "name": "proposalCount",
      "outputs": [
        {
          "internalType": "uint256",
          "name": "",
          "type": "uint256"
        }
      ],
      "stateMutability": "view",
      "type": "function",
      "constant": true
    },
    {
      "inputs": [
        {
          "internalType": "uint256",
          "name": "",
          "type": "uint256"
        }
      ],
      "name": "proposals",
      "outputs": [
        {
          "internalType": "uint256",
          "name": "id",
          "type": "uint256"
        },
        {
          "internalType": "address",
          "name": "proposer",
          "type": "address"
        },
        {
          "internalType": "address",
          "name": "pair",
          "type": "address"
        },
        {
          "internalType": "address",
          "name": "token0",
          "type": "address"
        },
        {
          "internalType": "address",
          "name": "token1",
          "type": "address"
        },
        {
          "internalType": "uint256",
          "name": "startBlock",
          "type": "uint256"
        },
        {
          "internalType": "uint256",
          "name": "endBlock",
          "type": "uint256"
        },
        {
          "internalType": "uint256",
          "name": "forVotes",
          "type": "uint256"
        },
        {
          "internalType": "uint256",
          "name": "againstVotes",
          "type": "uint256"
        },
        {
          "internalType": "bool",
          "name": "canceled",
          "type": "bool"
        },
        {
          "internalType": "bool",
          "name": "executed",
          "type": "bool"
        },
        {
          "internalType": "bool",
          "name": "challenged",
          "type": "bool"
        }
      ],
      "stateMutability": "view",
      "type": "function",
      "constant": true
    },
    {
      "inputs": [],
      "name": "proximaLiquidityRewardVault",
      "outputs": [
        {
          "internalType": "address",
          "name": "",
          "type": "address"
        }
      ],
      "stateMutability": "view",
      "type": "function",
      "constant": true
    },
    {
      "inputs": [],
      "name": "pxa",
      "outputs": [
        {
          "internalType": "contract PxaInterface",
          "name": "",
          "type": "address"
        }
      ],
      "stateMutability": "view",
      "type": "function",
      "constant": true
    },
    {
      "inputs": [],
      "name": "renounceOwnership",
      "outputs": [],
      "stateMutability": "nonpayable",
      "type": "function"
    },
    {
      "inputs": [
        {
          "internalType": "address",
          "name": "newOwner",
          "type": "address"
        }
      ],
      "name": "transferOwnership",
      "outputs": [],
      "stateMutability": "nonpayable",
      "type": "function"
    },
    {
      "inputs": [
        {
          "internalType": "address",
          "name": "_pair",
          "type": "address"
        },
        {
          "internalType": "address",
          "name": "_token0",
          "type": "address"
        },
        {
          "internalType": "address",
          "name": "_token1",
          "type": "address"
        },
        {
          "internalType": "address",
          "name": "_proposer",
          "type": "address"
        }
      ],
      "name": "propose",
      "outputs": [
        {
          "internalType": "bool",
          "name": "",
          "type": "bool"
        }
      ],
      "stateMutability": "nonpayable",
      "type": "function"
    },
    {
      "inputs": [
        {
          "internalType": "uint256",
          "name": "proposalId",
          "type": "uint256"
        }
      ],
      "name": "challengeGovernance",
      "outputs": [
        {
          "internalType": "bool",
          "name": "",
          "type": "bool"
        }
      ],
      "stateMutability": "nonpayable",
      "type": "function"
    },
    {
      "inputs": [
        {
          "internalType": "uint256",
          "name": "proposalId",
          "type": "uint256"
        }
      ],
      "name": "execute",
      "outputs": [],
      "stateMutability": "nonpayable",
      "type": "function"
    },
    {
      "inputs": [
        {
          "internalType": "uint256",
          "name": "proposalId",
          "type": "uint256"
        }
      ],
      "name": "cancel",
      "outputs": [],
      "stateMutability": "nonpayable",
      "type": "function"
    },
    {
      "inputs": [
        {
          "internalType": "uint256",
          "name": "proposalId",
          "type": "uint256"
        },
        {
          "internalType": "bool",
          "name": "support",
          "type": "bool"
        }
      ],
      "name": "castVote",
      "outputs": [],
      "stateMutability": "nonpayable",
      "type": "function"
    },
    {
      "inputs": [
        {
          "internalType": "uint256",
          "name": "proposalId",
          "type": "uint256"
        },
        {
          "internalType": "bool",
          "name": "support",
          "type": "bool"
        },
        {
          "internalType": "uint8",
          "name": "v",
          "type": "uint8"
        },
        {
          "internalType": "bytes32",
          "name": "r",
          "type": "bytes32"
        },
        {
          "internalType": "bytes32",
          "name": "s",
          "type": "bytes32"
        }
      ],
      "name": "castVoteBySig",
      "outputs": [],
      "stateMutability": "nonpayable",
      "type": "function"
    },
    {
      "inputs": [
        {
          "internalType": "uint256",
          "name": "proposalId",
          "type": "uint256"
        }
      ],
      "name": "state",
      "outputs": [
        {
          "internalType": "enum ProximaPairGovernor.ProposalState",
          "name": "",
          "type": "uint8"
        }
      ],
      "stateMutability": "view",
      "type": "function",
      "constant": true
    },
    {
      "inputs": [
        {
          "internalType": "uint256",
          "name": "proposalId",
          "type": "uint256"
        }
      ],
      "name": "getProposalInfo",
      "outputs": [
        {
          "internalType": "address",
          "name": "",
          "type": "address"
        },
        {
          "internalType": "address",
          "name": "",
          "type": "address"
        },
        {
          "internalType": "address",
          "name": "",
          "type": "address"
        },
        {
          "internalType": "address",
          "name": "",
          "type": "address"
        },
        {
          "internalType": "uint256",
          "name": "",
          "type": "uint256"
        },
        {
          "internalType": "uint256",
          "name": "",
          "type": "uint256"
        },
        {
          "internalType": "uint256",
          "name": "",
          "type": "uint256"
        },
        {
          "internalType": "uint256",
          "name": "",
          "type": "uint256"
        }
      ],
      "stateMutability": "view",
      "type": "function",
      "constant": true
    },
    {
      "inputs": [
        {
          "internalType": "uint256",
          "name": "proposalId",
          "type": "uint256"
        },
        {
          "internalType": "address",
          "name": "voter",
          "type": "address"
        }
      ],
      "name": "getReceipt",
      "outputs": [
        {
          "components": [
            {
              "internalType": "bool",
              "name": "hasVoted",
              "type": "bool"
            },
            {
              "internalType": "bool",
              "name": "support",
              "type": "bool"
            },
            {
              "internalType": "uint96",
              "name": "votes",
              "type": "uint96"
            }
          ],
          "internalType": "struct ProximaPairGovernor.Receipt",
          "name": "",
          "type": "tuple"
        }
      ],
      "stateMutability": "view",
      "type": "function",
      "constant": true
    },
    {
      "inputs": [],
      "name": "proposalThreshold",
      "outputs": [
        {
          "internalType": "uint256",
          "name": "",
          "type": "uint256"
        }
      ],
      "stateMutability": "pure",
      "type": "function",
      "constant": true
    },
    {
      "inputs": [],
      "name": "votingDelay",
      "outputs": [
        {
          "internalType": "uint256",
          "name": "",
          "type": "uint256"
        }
      ],
      "stateMutability": "pure",
      "type": "function",
      "constant": true
    },
    {
      "inputs": [],
      "name": "votingPeriod",
      "outputs": [
        {
          "internalType": "uint256",
          "name": "",
          "type": "uint256"
        }
      ],
      "stateMutability": "pure",
      "type": "function",
      "constant": true
    }
  ],
  "bytecode": "0x60806040523480156200001157600080fd5b5060405162001ccd38038062001ccd8339810160408190526200003491620000d1565b600062000040620000cd565b600080546001600160a01b0319166001600160a01b0383169081178255604051929350917f8be0079c531659141344cd1fd0a4f28419497f9722a3daafe3b4186f6b6457e0908290a350600180546001600160a01b039485166001600160a01b0319918216179091556003805493851693821693909317909255600280549190931691161790556200013d565b3390565b600080600060608486031215620000e6578283fd5b8351620000f38162000124565b6020850151909350620001068162000124565b6040850151909250620001198162000124565b809150509250925092565b6001600160a01b03811681146200013a57600080fd5b50565b611b80806200014d6000396000f3fe608060405234801561001057600080fd5b50600436106101585760003560e01c8063715018a6116100c3578063da35c6641161007c578063da35c664146102c8578063deaaa7cc146102d0578063df1db7c9146102d8578063e23a9a52146102e0578063f2fde38b14610300578063fe0d94c11461031357610158565b8063715018a61461026c5780638da5cb5b14610274578063b58131b014610289578063bc903cb814610291578063c45a0155146102b8578063ce509f8d146102c057610158565b8063339bd13611610115578063339bd136146101eb5780633932abb11461020b5780633e4f49e6146102135780633fc3db031461023357806340e58ee5146102465780634634c61f1461025957610158565b8063013cf08b1461015d57806302a251a31461019157806306fdde03146101a657806315373e3d146101bb57806317977c61146101d057806320606b70146101e3575b600080fd5b61017061016b3660046113f0565b610326565b6040516101889c9b9a99989796959493929190611aa1565b60405180910390f35b61019961039d565b60405161018891906115e5565b6101ae6103a4565b604051610188919061165c565b6101ce6101c9366004611434565b6103d5565b005b6101996101de36600461137e565b6103e4565b6101996103f6565b6101fe6101f9366004611399565b61041a565b60405161018891906115da565b6101996104ab565b6102266102213660046113f0565b6104b0565b6040516101889190611648565b6101fe6102413660046113f0565b61058d565b6101ce6102543660046113f0565b610755565b6101ce610267366004611463565b610814565b6101ce6109c5565b61027c610a4e565b6040516101889190611517565b610199610a5d565b6102a461029f3660046113f0565b610a6b565b604051610188989796959493929190611544565b61027c610ac4565b61027c610ad3565b610199610ae2565b610199610ae8565b61027c610b0c565b6102f36102ee366004611408565b610b1b565b6040516101889190611a45565b6101ce61030e36600461137e565b610b8a565b6101ce6103213660046113f0565b610c4a565b6005602081905260009182526040909120805460018201546002830154600384015460048501549585015460068601546007870154600888015460099098015496986001600160a01b03968716989587169794871696169492939192909160ff80821691610100810482169162010000909104168c565b6201518090565b60405180604001604052806015815260200174283937bc34b6b0902830b4b91023b7bb32b93737b960591b81525081565b6103e0338383610dde565b5050565b60066020526000908152604090205481565b7f8cad95687ba82c2ce50e74f7b754645e5117c3a5bec8151c0726d5857980a86681565b6003546000906001600160a01b031633146104505760405162461bcd60e51b81526004016104479061177d565b60405180910390fd5b600061045e86868686610fb6565b90507fb9ef8fa6b3cc35c03302d05e8553c7fce4f6dce176071c9101df296b1b45d5248133888888604051610497959493929190611a73565b60405180910390a150600195945050505050565b600190565b600081600454101580156104c45750600082115b6104e05760405162461bcd60e51b8152600401610447906119b4565b6000828152600560205260409020600981015462010000900460ff161561050b576006915050610588565b600981015460ff1615610522576002915050610588565b80600501544311610537576000915050610588565b8060060154431161054c576001915050610588565b6009810154610100900460ff1615610568576005915050610588565b806007015481600801541015610582576004915050610588565b60039150505b919050565b600081600454101580156105a15750600082115b6105bd5760405162461bcd60e51b8152600401610447906118bf565b6105c5610a5d565b600180546001600160a01b03169063782d6fe19033906105e6904390611287565b6040518363ffffffff1660e01b815260040161060392919061152b565b60206040518083038186803b15801561061b57600080fd5b505afa15801561062f573d6000803e3d6000fd5b505050506040513d601f19601f8201168201806040525081019061065391906114b9565b6001600160601b0316116106795760405162461bcd60e51b81526004016104479061187c565b6001610684836104b0565b600681111561068f57fe5b1415806106b0575060066106a2836104b0565b60068111156106ad57fe5b14155b6106cc5760405162461bcd60e51b81526004016104479061168f565b6000828152600560205260408120600281015460038201546004830154929392610706926001600160a01b03908116928116911633610fb6565b60098301805462ff00001916620100001790556040519091508190859033907f8ceffc6c865c51ebee25b0b5e080be67f8299f96202b44527697bdd5498305e790600090a45060019392505050565b6000610760826104b0565b9050600581600681111561077057fe5b141561078e5760405162461bcd60e51b81526004016104479061193a565b600082815260056020526040902060018101546001600160a01b031633146107c85760405162461bcd60e51b81526004016104479061174e565b60098101805460ff191660011790556040517f789cf55be980739dad1d0699b93b58e806b51c9d96619bfa8fe0a28abaa7b30c906108079085906115e5565b60405180910390a1505050565b604080518082019091526015815274283937bc34b6b0902830b4b91023b7bb32b93737b960591b60209091015260007f8cad95687ba82c2ce50e74f7b754645e5117c3a5bec8151c0726d5857980a8667ffcaa3d5e37d8c5ccf424c843e52af147a8ff978f27b15ee3c6f64685fcf4819c61088d6112af565b306040516020016108a194939291906115ee565b60405160208183030381529060405280519060200120905060007f8e25870c07e0b0b3884c78da52790939a455c275406c44ae8b434b692fb916ee87876040516020016108f093929190611612565b6040516020818303038152906040528051906020012090506000828260405160200161091d9291906114fc565b60405160208183030381529060405280519060200120905060006001828888886040516000815260200160405260405161095a949392919061162a565b6020604051602081039080840390855afa15801561097c573d6000803e3d6000fd5b5050604051601f1901519150506001600160a01b0381166109af5760405162461bcd60e51b8152600401610447906117a7565b6109ba818a8a610dde565b505050505050505050565b6109cd6112b3565b6001600160a01b03166109de610a4e565b6001600160a01b031614610a045760405162461bcd60e51b81526004016104479061197f565b600080546040516001600160a01b03909116907f8be0079c531659141344cd1fd0a4f28419497f9722a3daafe3b4186f6b6457e0908390a3600080546001600160a01b0319169055565b6000546001600160a01b031690565b69152d02c7e14af680000090565b6000908152600560208190526040909120600181015460028201546003830154600484015494840154600685015460078601546008909601546001600160a01b0395861698948616979386169695909316949193909290565b6003546001600160a01b031681565b6001546001600160a01b031681565b60045481565b7f8e25870c07e0b0b3884c78da52790939a455c275406c44ae8b434b692fb916ee81565b6002546001600160a01b031681565b610b236112e3565b5060008281526005602090815260408083206001600160a01b0385168452600a018252918290208251606081018452905460ff80821615158352610100820416151592820192909252620100009091046001600160601b0316918101919091525b92915050565b610b926112b3565b6001600160a01b0316610ba3610a4e565b6001600160a01b031614610bc95760405162461bcd60e51b81526004016104479061197f565b6001600160a01b038116610bef5760405162461bcd60e51b8152600401610447906116d1565b600080546040516001600160a01b03808516939216917f8be0079c531659141344cd1fd0a4f28419497f9722a3daafe3b4186f6b6457e091a3600080546001600160a01b0319166001600160a01b0392909216919091179055565b60006004610c57836104b0565b6006811115610c6257fe5b1480610c8157506003610c74836104b0565b6006811115610c7f57fe5b145b610c9d5760405162461bcd60e51b8152600401610447906117d7565b6004610ca8836104b0565b6006811115610cb357fe5b1415610cbd575060015b60008281526005602052604080822060098101805461ff001916610100179055600280549082015492519193926001600160a01b0391821692610d09929190911690869060240161158e565b60408051601f198184030181529181526020820180516001600160e01b0316630f1d11ff60e11b17905251610d3e91906114e0565b6000604051808303816000865af19150503d8060008114610d7b576040519150601f19603f3d011682016040523d82523d6000602084013e610d80565b606091505b5050905080610da15760405162461bcd60e51b8152600401610447906118f6565b7f712ae1383f79ac853f8d882153778e0260ef8f03b504e2866e0593e04d2b291f84604051610dd091906115e5565b60405180910390a150505050565b6001610de9836104b0565b6006811115610df457fe5b14610e115760405162461bcd60e51b8152600401610447906119eb565b60008281526005602090815260408083206001600160a01b0387168452600a8101909252909120805460ff1615610e5a5760405162461bcd60e51b815260040161044790611845565b600180546000916001600160a01b039091169063782d6fe1908890610e80904390611287565b6040518363ffffffff1660e01b8152600401610e9d92919061152b565b60206040518083038186803b158015610eb557600080fd5b505afa158015610ec9573d6000803e3d6000fd5b505050506040513d601f19601f82011682018060405250810190610eed91906114b9565b90508315610f17576007830154610f0d906001600160601b0383166112b7565b6007840155610f35565b6008830154610f2f906001600160601b0383166112b7565b60088401555b8154600160ff199091161761ff00191661010085151502176dffffffffffffffffffffffff00001916620100006001600160601b038316021782556040517f877856338e13f63d0c36822ff0ef736b80934cd90574a3a5bc9262c39d217c4690610fa69088908890889086906115a9565b60405180910390a1505050505050565b60006001600160a01b03851615801590610fd857506001600160a01b03841615155b8015610fec57506001600160a01b03831615155b801561100057506001600160a01b03821615155b61101c5760405162461bcd60e51b815260040161044790611a17565b60006110306110296104ab565b43906112b7565b9050600061104661103f61039d565b83906112b7565b6004805460010190559050611059611303565b6040518061018001604052806004548152602001866001600160a01b03168152602001896001600160a01b03168152602001886001600160a01b03168152602001876001600160a01b0316815260200184815260200183815260200160008152602001600081526020016000151581526020016000151581526020016000151581525090508060056000836000015181526020019081526020016000206000820151816000015560208201518160010160006101000a8154816001600160a01b0302191690836001600160a01b0316021790555060408201518160020160006101000a8154816001600160a01b0302191690836001600160a01b0316021790555060608201518160030160006101000a8154816001600160a01b0302191690836001600160a01b0316021790555060808201518160040160006101000a8154816001600160a01b0302191690836001600160a01b0316021790555060a0820151816005015560c0820151816006015560e0820151816007015561010082015181600801556101208201518160090160006101000a81548160ff0219169083151502179055506101408201518160090160016101000a81548160ff0219169083151502179055506101608201518160090160026101000a81548160ff02191690831515021790555090505080600001516006600083602001516001600160a01b03166001600160a01b031681526020019081526020016000208190555080600001519350505050949350505050565b6000828211156112a95760405162461bcd60e51b81526004016104479061180e565b50900390565b4690565b3390565b6000828201838110156112dc5760405162461bcd60e51b815260040161044790611717565b9392505050565b604080516060810182526000808252602082018190529181019190915290565b6040805161018081018252600080825260208201819052918101829052606081018290526080810182905260a0810182905260c0810182905260e0810182905261010081018290526101208101829052610140810182905261016081019190915290565b80356001600160a01b0381168114610b8457600080fd5b60006020828403121561138f578081fd5b6112dc8383611367565b600080600080608085870312156113ae578283fd5b6113b88686611367565b93506113c78660208701611367565b92506113d68660408701611367565b91506113e58660608701611367565b905092959194509250565b600060208284031215611401578081fd5b5035919050565b6000806040838503121561141a578182fd5b8235915061142b8460208501611367565b90509250929050565b60008060408385031215611446578182fd5b82359150602083013561145881611b39565b809150509250929050565b600080600080600060a0868803121561147a578081fd5b85359450602086013561148c81611b39565b9350604086013560ff811681146114a1578182fd5b94979396509394606081013594506080013592915050565b6000602082840312156114ca578081fd5b81516001600160601b03811681146112dc578182fd5b600082516114f2818460208701611b09565b9190910192915050565b61190160f01b81526002810192909252602282015260420190565b6001600160a01b0391909116815260200190565b6001600160a01b03929092168252602082015260400190565b6001600160a01b03988916815296881660208801529487166040870152929095166060850152608084015260a083019390935260c082019290925260e08101919091526101000190565b6001600160a01b039290921682521515602082015260400190565b6001600160a01b039490941684526020840192909252151560408301526001600160601b0316606082015260800190565b901515815260200190565b90815260200190565b938452602084019290925260408301526001600160a01b0316606082015260800190565b92835260208301919091521515604082015260600190565b93845260ff9290921660208401526040830152606082015260800190565b602081016007831061165657fe5b91905290565b600060208252825180602084015261167b816040850160208701611b09565b601f01601f19169190910160400192915050565b60208082526022908201527f4572723a2050726f706f73616c20416374697665206f72204368616c6c656e67604082015261195960f21b606082015260800190565b60208082526026908201527f4f776e61626c653a206e6577206f776e657220697320746865207a65726f206160408201526564647265737360d01b606082015260800190565b6020808252601b908201527f536166654d6174683a206164646974696f6e206f766572666c6f770000000000604082015260600190565b60208082526015908201527422b9391d1024b73b30b634b210383937b837b9b2b960591b604082015260600190565b60208082526010908201526f115c9c8e88105d5d1a0819985a5b195960821b604082015260600190565b6020808252601690820152754572723a20496e76616c6964207369676e617475726560501b604082015260600190565b6020808252601b908201527f4572723a2050726f706f73616c207374696c6c2070656e64696e670000000000604082015260600190565b6020808252601e908201527f536166654d6174683a207375627472616374696f6e206f766572666c6f770000604082015260600190565b60208082526018908201527f4572723a20566f74657220616c726561647920766f7465640000000000000000604082015260600190565b60208082526023908201527f4572723a2050726f706f73657220766f7465732062656c6f77207468726573686040820152621bdb1960ea1b606082015260800190565b60208082526017908201527f4572723a20496e76616c69642070726f706f73616c4964000000000000000000604082015260600190565b60208082526024908201527f4572723a205472616e73616374696f6e20657865637574696f6e2072657665726040820152633a32b21760e11b606082015260800190565b60208082526025908201527f4572723a2043616e6e6f742063616e63656c2065786563757465642070726f7060408201526437b9b0b61760d91b606082015260800190565b6020808252818101527f4f776e61626c653a2063616c6c6572206973206e6f7420746865206f776e6572604082015260600190565b60208082526018908201527f4572723a20496e76616c69642070726f706f73616c2069640000000000000000604082015260600190565b602080825260129082015271115c9c8e88159bdd1a5b99c818db1bdcd95960721b604082015260600190565b602080825260149082015273115c9c8e88125b9d985b1a59081c995c5d595cdd60621b604082015260600190565b8151151581526020808301511515908201526040918201516001600160601b03169181019190915260600190565b9485526001600160a01b03938416602086015291831660408501528216606084015216608082015260a00190565b9b8c526001600160a01b039a8b1660208d0152988a1660408c015296891660608b015294909716608089015260a088019290925260c087015260e086015261010085019390935291151561012084015290151561014083015215156101608201526101800190565b60005b83811015611b24578181015183820152602001611b0c565b83811115611b33576000848401525b50505050565b8015158114611b4757600080fd5b5056fea2646970667358221220a2ee84a144a8e0d8907551592980cd29481960b13c40a49fb2cf075ec8d52c9064736f6c634300060c0033",
  "immutableReferences": {},
  "source": "// SPDX-License-Identifier: MIT\n\npragma solidity ^0.6.12;\npragma experimental ABIEncoderV2;\n\n/**\n * @title : ProximaPairGovernor\n * @dev  : Inspired from COMPOUND:\n * https://github.com/compound-finance/compound-protocol/blob/master/contracts/Governance/GovernorAlpha.sol\n * Developed by ProximusAlpha\n */\n\nimport \"@openzeppelin/contracts/math/SafeMath.sol\";\nimport \"@openzeppelin/contracts/access/Ownable.sol\";\n\ninterface PxaInterface {\n    function getPriorVotes(address account, uint256 blockNumber)\n        external\n        view\n        returns (uint96);\n}\n\ncontract ProximaPairGovernor is Ownable {\n    using SafeMath for uint256;\n    /// @dev Proxima Token Instance\n    PxaInterface public pxa;\n    /// @dev Possible states that a proposal may be in\n    enum ProposalState {\n        Pending,\n        Active,\n        Canceled,\n        Defeated,\n        Succeeded,\n        Executed,\n        Challenged\n    }\n\n    /// @dev  The name of this contract\n    string public constant name = \"Proxima Pair Governor\";\n    /// @dev  RewardVault address\n    address public proximaLiquidityRewardVault;\n    /// @dev  Factory Address\n    address public factory;\n    /// @dev  Proposal COunter\n    uint256 public proposalCount;\n    /// @dev  The EIP-712 typehash for the contract's domain\n    bytes32 public constant DOMAIN_TYPEHASH =\n        keccak256(\n            \"EIP712Domain(string name,uint256 chainId,address verifyingContract)\"\n        );\n    /// @dev  The EIP-712 typehash for the ballot struct used by the contract\n    bytes32 public constant BALLOT_TYPEHASH =\n        keccak256(\"Ballot(uint256 proposalId,bool support)\");\n\n    /// @dev  Proposal storage struct\n    struct Proposal {\n        uint256 id;\n        address proposer;\n        address pair;\n        address token0;\n        address token1;\n        uint256 startBlock;\n        uint256 endBlock;\n        uint256 forVotes;\n        uint256 againstVotes;\n        bool canceled;\n        bool executed;\n        bool challenged;\n        mapping(address => Receipt) receipts;\n    }\n    /// @dev  Proposal votes storage struct\n    struct Receipt {\n        bool hasVoted;\n        bool support;\n        uint96 votes;\n    }\n    /// @dev  The official record of all proposals ever proposed\n    mapping(uint256 => Proposal) public proposals;\n    /// @dev  The latest proposal for each proposer\n    mapping(address => uint256) public latestProposalIds;\n\n    ///@dev  An event emitted when a new proposal is created\n    event ProposalCreated(\n        uint256 id,\n        address proposer,\n        address pair,\n        address token0,\n        address token1\n    );\n    /// @dev  An event emitted when a vote has been cast on a proposal\n    event VoteCast(\n        address voter,\n        uint256 proposalId,\n        bool support,\n        uint256 votes\n    );\n    /// @dev  An event emitted when a proposal has been canceled\n    event ProposalChallenged(\n        address indexed challenger,\n        uint256 indexed originalId,\n        uint256 indexed newId\n    );\n    /// @dev  An event emitted when a proposal has been canceled\n    event ProposalCanceled(uint256 id);\n    /// @dev  An event emitted when a proposal has been executed in the Timelock\n    event ProposalExecuted(uint256 id);\n\n    /// @dev  Sets mandate\n    constructor(\n        address _pxa,\n        address _factory,\n        address _proximaLiquidityRewardVault\n    ) public {\n        pxa = PxaInterface(_pxa);\n        factory = _factory;\n        proximaLiquidityRewardVault = _proximaLiquidityRewardVault;\n    }\n\n    /// @dev  Creates new proposal\n    function propose(\n        address _pair,\n        address _token0,\n        address _token1,\n        address _proposer\n    ) external returns (bool) {\n        require(msg.sender == factory, \"Err: Auth failed\");\n        uint256 pid = _propose(_pair, _token0, _token1, _proposer);\n        emit ProposalCreated(pid, msg.sender, _pair, _token0, _token1);\n        return true;\n    }\n\n    /// @dev  Challenge governance of existing proposal\n    function challengeGovernance(uint256 proposalId) external returns (bool) {\n        require(\n            proposalCount >= proposalId && proposalId > 0,\n            \"Err: Invalid proposalId\"\n        );\n        require(\n            pxa.getPriorVotes(msg.sender, block.number.sub(1)) >\n                proposalThreshold(),\n            \"Err: Proposer votes below threshold\"\n        );\n        require(\n            state(proposalId) != ProposalState.Active ||\n                state(proposalId) != ProposalState.Challenged,\n            \"Err: Proposal Active or Challenged\"\n        );\n        Proposal storage proposal = proposals[proposalId];\n        uint256 pid =\n            _propose(\n                proposal.pair,\n                proposal.token0,\n                proposal.token1,\n                msg.sender\n            );\n        proposal.challenged = true;\n        emit ProposalChallenged(msg.sender, proposalId, pid);\n        return true;\n    }\n\n    /// @dev  Execute proposal\n    function execute(uint256 proposalId) external {\n        bool sentiment = false;\n        require(\n            state(proposalId) == ProposalState.Succeeded ||\n                state(proposalId) == ProposalState.Defeated,\n            \"Err: Proposal still pending\"\n        );\n        if (state(proposalId) == ProposalState.Succeeded) {\n            sentiment = true;\n        }\n        Proposal storage proposal = proposals[proposalId];\n        proposal.executed = true;\n        (bool success, ) =\n            proximaLiquidityRewardVault.call(\n                abi.encodeWithSignature(\n                    \"applyGovernance(address,bool)\",\n                    proposal.pair,\n                    sentiment\n                )\n            );\n        require(success, \"Err: Transaction execution reverted.\");\n        emit ProposalExecuted(proposalId);\n    }\n\n    /// @dev  Cancle proposal\n    function cancel(uint256 proposalId) public {\n        ProposalState state = state(proposalId);\n        require(\n            state != ProposalState.Executed,\n            \"Err: Cannot cancel executed proposal.\"\n        );\n        Proposal storage proposal = proposals[proposalId];\n        require(msg.sender == proposal.proposer, \"Err: Invalid proposer\");\n\n        proposal.canceled = true;\n        emit ProposalCanceled(proposalId);\n    }\n\n    /// @dev  Caste votes for proposal\n    function castVote(uint256 proposalId, bool support) public {\n        return _castVote(msg.sender, proposalId, support);\n    }\n\n    /// @dev  Caste votes for proposal via signature\n    function castVoteBySig(\n        uint256 proposalId,\n        bool support,\n        uint8 v,\n        bytes32 r,\n        bytes32 s\n    ) public {\n        bytes32 domainSeparator =\n            keccak256(\n                abi.encode(\n                    DOMAIN_TYPEHASH,\n                    keccak256(bytes(name)),\n                    getChainId(),\n                    address(this)\n                )\n            );\n        bytes32 structHash =\n            keccak256(abi.encode(BALLOT_TYPEHASH, proposalId, support));\n        bytes32 digest =\n            keccak256(\n                abi.encodePacked(\"\\x19\\x01\", domainSeparator, structHash)\n            );\n        address signatory = ecrecover(digest, v, r, s);\n        require(signatory != address(0), \"Err: Invalid signature\");\n        return _castVote(signatory, proposalId, support);\n    }\n\n    function _castVote(\n        address voter,\n        uint256 proposalId,\n        bool support\n    ) internal {\n        require(\n            state(proposalId) == ProposalState.Active,\n            \"Err: Voting closed\"\n        );\n        Proposal storage proposal = proposals[proposalId];\n        Receipt storage receipt = proposal.receipts[voter];\n        require(receipt.hasVoted == false, \"Err: Voter already voted\");\n        uint96 votes = pxa.getPriorVotes(voter, block.number.sub(1));\n\n        if (support) {\n            proposal.forVotes = proposal.forVotes.add(votes);\n        } else {\n            proposal.againstVotes = proposal.againstVotes.add(votes);\n        }\n        receipt.hasVoted = true;\n        receipt.support = support;\n        receipt.votes = votes;\n        emit VoteCast(voter, proposalId, support, votes);\n    }\n\n    /// @dev  Returns proposal state\n    function state(uint256 proposalId) public view returns (ProposalState) {\n        require(\n            proposalCount >= proposalId && proposalId > 0,\n            \"Err: Invalid proposal id\"\n        );\n        Proposal storage proposal = proposals[proposalId];\n        if (proposal.challenged) {\n            return ProposalState.Challenged;\n        } else if (proposal.canceled) {\n            return ProposalState.Canceled;\n        } else if (block.number <= proposal.startBlock) {\n            return ProposalState.Pending;\n        } else if (block.number <= proposal.endBlock) {\n            return ProposalState.Active;\n        } else if (proposal.executed) {\n            return ProposalState.Executed;\n        } else if (proposal.againstVotes < proposal.forVotes) {\n            return ProposalState.Succeeded;\n        } else {\n            return ProposalState.Defeated;\n        }\n    }\n\n    /// @dev  Returns chainID\n    function getChainId() internal pure returns (uint256) {\n        uint256 chainId;\n        assembly {\n            chainId := chainid()\n        }\n        return chainId;\n    }\n\n    /// @dev  Pure dapp function, returns proposal\n    function getProposalInfo(uint256 proposalId)\n        external\n        view\n        returns (\n            address,\n            address,\n            address,\n            address,\n            uint256,\n            uint256,\n            uint256,\n            uint256\n        )\n    {\n        Proposal storage proposal = proposals[proposalId];\n        return (\n            proposal.proposer,\n            proposal.pair,\n            proposal.token0,\n            proposal.token1,\n            proposal.startBlock,\n            proposal.endBlock,\n            proposal.forVotes,\n            proposal.againstVotes\n        );\n    }\n\n    /// @dev  Pure dapp function, Returns user support on proposal\n    function getReceipt(uint256 proposalId, address voter)\n        public\n        view\n        returns (Receipt memory)\n    {\n        return proposals[proposalId].receipts[voter];\n    }\n\n    /// @dev  The number of votes required in order for a voter to become a proposer\n    function proposalThreshold() public pure returns (uint256) {\n        return 100000e18;\n        // 100000 votes;\n    }\n\n    /// @dev  The delay before voting on a proposal may take place, once proposed\n    function votingDelay() public pure returns (uint256) {\n        return 1;\n    } // 1 block\n\n    /// @dev  The duration of voting on a proposal, in blocks\n    function votingPeriod() public pure returns (uint256) {\n        return 86400;\n    } // 3 sec block time (~ 3 days)\n\n    function _propose(\n        address _pair,\n        address _token0,\n        address _token1,\n        address _proposer\n    ) internal returns (uint256) {\n        require(\n            _pair != address(0) &&\n                _token0 != address(0) &&\n                _token1 != address(0) &&\n                _proposer != address(0),\n            \"Err: Invalid request\"\n        );\n        uint256 startBlock = block.number.add(votingDelay());\n        uint256 endBlock = startBlock.add(votingPeriod());\n\n        proposalCount++;\n        Proposal memory newProposal =\n            Proposal({\n                id: proposalCount,\n                proposer: _proposer,\n                pair: _pair,\n                token0: _token0,\n                token1: _token1,\n                startBlock: startBlock,\n                endBlock: endBlock,\n                forVotes: 0,\n                againstVotes: 0,\n                canceled: false,\n                executed: false,\n                challenged: false\n            });\n\n        proposals[newProposal.id] = newProposal;\n        latestProposalIds[newProposal.proposer] = newProposal.id;\n        return newProposal.id;\n    }\n}\n",
  "sourcePath": "/home/sagar/Desktop/project-Pxa/FINAL_SRELEASE/SolarRelease-Main/Mainnet/final/smartcontracts/Proxima-core/contracts/ProximaPairGovernor.sol",
  "compiler": {
    "name": "solc",
    "version": "0.6.12+commit.27d51765.Emscripten.clang"
  },
  "schemaVersion": "3.3.2",
  "updatedAt": "2021-03-23T11:17:57.339Z",
  "networkType": "ethereum",
  "devdoc": {
    "events": {
      "ProposalCanceled(uint256)": {
        "details": "An event emitted when a proposal has been canceled"
      },
      "ProposalChallenged(address,uint256,uint256)": {
        "details": "An event emitted when a proposal has been canceled"
      },
      "ProposalCreated(uint256,address,address,address,address)": {
        "details": "An event emitted when a new proposal is created"
      },
      "ProposalExecuted(uint256)": {
        "details": "An event emitted when a proposal has been executed in the Timelock"
      },
      "VoteCast(address,uint256,bool,uint256)": {
        "details": "An event emitted when a vote has been cast on a proposal"
      }
    },
    "kind": "dev",
    "methods": {
      "cancel(uint256)": {
        "details": "Cancle proposal"
      },
      "castVote(uint256,bool)": {
        "details": "Caste votes for proposal"
      },
      "castVoteBySig(uint256,bool,uint8,bytes32,bytes32)": {
        "details": "Caste votes for proposal via signature"
      },
      "challengeGovernance(uint256)": {
        "details": "Challenge governance of existing proposal"
      },
      "constructor": {
        "details": "Sets mandate"
      },
      "execute(uint256)": {
        "details": "Execute proposal"
      },
      "getProposalInfo(uint256)": {
        "details": "Pure dapp function, returns proposal"
      },
      "getReceipt(uint256,address)": {
        "details": "Pure dapp function, Returns user support on proposal"
      },
      "owner()": {
        "details": "Returns the address of the current owner."
      },
      "proposalThreshold()": {
        "details": "The number of votes required in order for a voter to become a proposer"
      },
      "propose(address,address,address,address)": {
        "details": "Creates new proposal"
      },
      "renounceOwnership()": {
        "details": "Leaves the contract without owner. It will not be possible to call `onlyOwner` functions anymore. Can only be called by the current owner. NOTE: Renouncing ownership will leave the contract without an owner, thereby removing any functionality that is only available to the owner."
      },
      "state(uint256)": {
        "details": "Returns proposal state"
      },
      "transferOwnership(address)": {
        "details": "Transfers ownership of the contract to a new account (`newOwner`). Can only be called by the current owner."
      },
      "votingDelay()": {
        "details": "The delay before voting on a proposal may take place, once proposed"
      },
      "votingPeriod()": {
        "details": "The duration of voting on a proposal, in blocks"
      }
    },
    "stateVariables": {
      "BALLOT_TYPEHASH": {
        "details": "The EIP-712 typehash for the ballot struct used by the contract"
      },
      "DOMAIN_TYPEHASH": {
        "details": "The EIP-712 typehash for the contract's domain"
      },
      "factory": {
        "details": "Factory Address"
      },
      "latestProposalIds": {
        "details": "The latest proposal for each proposer"
      },
      "name": {
        "details": "The name of this contract"
      },
      "proposalCount": {
        "details": "Proposal COunter"
      },
      "proposals": {
        "details": "The official record of all proposals ever proposed"
      },
      "proximaLiquidityRewardVault": {
        "details": "RewardVault address"
      },
      "pxa": {
        "details": "Proxima Token Instance"
      }
    },
    "version": 1
  },
  "userdoc": {
    "kind": "user",
    "methods": {},
    "version": 1
  }
}