{
  "contractName": "ProximaWatchDog",
  "abi": [
    {
      "inputs": [
        {
          "internalType": "address",
          "name": "_vestingAddress",
          "type": "address"
        },
        {
          "internalType": "address",
          "name": "_governorAddress",
          "type": "address"
        },
        {
          "internalType": "address",
          "name": "_faucetAddress",
          "type": "address"
        }
      ],
      "stateMutability": "nonpayable",
      "type": "constructor"
    },
    {
      "inputs": [],
      "name": "faucet",
      "outputs": [
        {
          "internalType": "contract ProximaFaucet",
          "name": "",
          "type": "address"
        }
      ],
      "stateMutability": "view",
      "type": "function",
      "constant": true
    },
    {
      "inputs": [],
      "name": "governor",
      "outputs": [
        {
          "internalType": "contract ProximaPairGovernor",
          "name": "",
          "type": "address"
        }
      ],
      "stateMutability": "view",
      "type": "function",
      "constant": true
    },
    {
      "inputs": [],
      "name": "vesting",
      "outputs": [
        {
          "internalType": "contract ProximaTeamTokenVesting",
          "name": "",
          "type": "address"
        }
      ],
      "stateMutability": "view",
      "type": "function",
      "constant": true
    },
    {
      "inputs": [],
      "name": "vestingId",
      "outputs": [
        {
          "internalType": "uint256",
          "name": "",
          "type": "uint256"
        }
      ],
      "stateMutability": "view",
      "type": "function",
      "constant": true
    },
    {
      "inputs": [
        {
          "internalType": "uint256",
          "name": "_index",
          "type": "uint256"
        }
      ],
      "name": "getAllVestings",
      "outputs": [
        {
          "internalType": "uint256[]",
          "name": "",
          "type": "uint256[]"
        },
        {
          "components": [
            {
              "internalType": "address",
              "name": "beneficiary",
              "type": "address"
            },
            {
              "internalType": "uint256",
              "name": "releaseTime",
              "type": "uint256"
            },
            {
              "internalType": "uint256",
              "name": "amount",
              "type": "uint256"
            },
            {
              "internalType": "bool",
              "name": "released",
              "type": "bool"
            }
          ],
          "internalType": "struct ProximaTeamTokenVesting.Vesting[]",
          "name": "",
          "type": "tuple[]"
        },
        {
          "internalType": "bool",
          "name": "",
          "type": "bool"
        }
      ],
      "stateMutability": "view",
      "type": "function",
      "constant": true
    },
    {
      "inputs": [
        {
          "internalType": "uint256",
          "name": "pNum",
          "type": "uint256"
        }
      ],
      "name": "getAllActivePairs",
      "outputs": [
        {
          "internalType": "uint256",
          "name": "",
          "type": "uint256"
        },
        {
          "internalType": "uint256",
          "name": "",
          "type": "uint256"
        },
        {
          "internalType": "uint256",
          "name": "",
          "type": "uint256"
        },
        {
          "internalType": "uint256",
          "name": "",
          "type": "uint256"
        },
        {
          "internalType": "uint256",
          "name": "",
          "type": "uint256"
        }
      ],
      "stateMutability": "view",
      "type": "function",
      "constant": true
    },
    {
      "inputs": [
        {
          "internalType": "uint256",
          "name": "pNum",
          "type": "uint256"
        }
      ],
      "name": "getAllNonActivePairs",
      "outputs": [
        {
          "internalType": "uint256",
          "name": "",
          "type": "uint256"
        },
        {
          "internalType": "uint256",
          "name": "",
          "type": "uint256"
        },
        {
          "internalType": "uint256",
          "name": "",
          "type": "uint256"
        },
        {
          "internalType": "uint256",
          "name": "",
          "type": "uint256"
        },
        {
          "internalType": "uint256",
          "name": "",
          "type": "uint256"
        }
      ],
      "stateMutability": "view",
      "type": "function",
      "constant": true
    },
    {
      "inputs": [
        {
          "internalType": "uint256[]",
          "name": "pid",
          "type": "uint256[]"
        },
        {
          "internalType": "address",
          "name": "user",
          "type": "address"
        }
      ],
      "name": "getActiveProposals",
      "outputs": [
        {
          "components": [
            {
              "internalType": "uint256",
              "name": "id",
              "type": "uint256"
            },
            {
              "internalType": "address",
              "name": "proposer",
              "type": "address"
            },
            {
              "internalType": "address",
              "name": "pair",
              "type": "address"
            },
            {
              "internalType": "address",
              "name": "token0",
              "type": "address"
            },
            {
              "internalType": "address",
              "name": "token1",
              "type": "address"
            },
            {
              "internalType": "string",
              "name": "token0Sym",
              "type": "string"
            },
            {
              "internalType": "string",
              "name": "token1Sym",
              "type": "string"
            },
            {
              "internalType": "uint256",
              "name": "startBlock",
              "type": "uint256"
            },
            {
              "internalType": "uint256",
              "name": "endBlock",
              "type": "uint256"
            },
            {
              "internalType": "uint256",
              "name": "forVotes",
              "type": "uint256"
            },
            {
              "internalType": "uint256",
              "name": "againstVotes",
              "type": "uint256"
            }
          ],
          "internalType": "struct ProximaWatchDog.gStruct[]",
          "name": "",
          "type": "tuple[]"
        },
        {
          "components": [
            {
              "internalType": "bool",
              "name": "hasVoted",
              "type": "bool"
            },
            {
              "internalType": "bool",
              "name": "support",
              "type": "bool"
            },
            {
              "internalType": "uint96",
              "name": "votes",
              "type": "uint96"
            }
          ],
          "internalType": "struct ProximaPairGovernor.Receipt[]",
          "name": "",
          "type": "tuple[]"
        }
      ],
      "stateMutability": "view",
      "type": "function",
      "constant": true
    },
    {
      "inputs": [
        {
          "internalType": "uint256[]",
          "name": "pid",
          "type": "uint256[]"
        },
        {
          "internalType": "address",
          "name": "user",
          "type": "address"
        }
      ],
      "name": "getFinishedProposals",
      "outputs": [
        {
          "components": [
            {
              "internalType": "uint256",
              "name": "id",
              "type": "uint256"
            },
            {
              "internalType": "address",
              "name": "proposer",
              "type": "address"
            },
            {
              "internalType": "address",
              "name": "pair",
              "type": "address"
            },
            {
              "internalType": "address",
              "name": "token0",
              "type": "address"
            },
            {
              "internalType": "address",
              "name": "token1",
              "type": "address"
            },
            {
              "internalType": "string",
              "name": "token0Sym",
              "type": "string"
            },
            {
              "internalType": "string",
              "name": "token1Sym",
              "type": "string"
            },
            {
              "internalType": "uint256",
              "name": "startBlock",
              "type": "uint256"
            },
            {
              "internalType": "uint256",
              "name": "endBlock",
              "type": "uint256"
            },
            {
              "internalType": "uint256",
              "name": "forVotes",
              "type": "uint256"
            },
            {
              "internalType": "uint256",
              "name": "againstVotes",
              "type": "uint256"
            }
          ],
          "internalType": "struct ProximaWatchDog.gStruct[]",
          "name": "",
          "type": "tuple[]"
        },
        {
          "components": [
            {
              "internalType": "bool",
              "name": "hasVoted",
              "type": "bool"
            },
            {
              "internalType": "bool",
              "name": "support",
              "type": "bool"
            },
            {
              "internalType": "uint96",
              "name": "votes",
              "type": "uint96"
            }
          ],
          "internalType": "struct ProximaPairGovernor.Receipt[]",
          "name": "",
          "type": "tuple[]"
        },
        {
          "internalType": "string[]",
          "name": "",
          "type": "string[]"
        }
      ],
      "stateMutability": "view",
      "type": "function",
      "constant": true
    },
    {
      "inputs": [
        {
          "internalType": "uint256[]",
          "name": "pid",
          "type": "uint256[]"
        }
      ],
      "name": "getProposals",
      "outputs": [
        {
          "components": [
            {
              "internalType": "uint256",
              "name": "id",
              "type": "uint256"
            },
            {
              "internalType": "address",
              "name": "proposer",
              "type": "address"
            },
            {
              "internalType": "address",
              "name": "pair",
              "type": "address"
            },
            {
              "internalType": "address",
              "name": "token0",
              "type": "address"
            },
            {
              "internalType": "address",
              "name": "token1",
              "type": "address"
            },
            {
              "internalType": "string",
              "name": "token0Sym",
              "type": "string"
            },
            {
              "internalType": "string",
              "name": "token1Sym",
              "type": "string"
            },
            {
              "internalType": "uint256",
              "name": "startBlock",
              "type": "uint256"
            },
            {
              "internalType": "uint256",
              "name": "endBlock",
              "type": "uint256"
            },
            {
              "internalType": "uint256",
              "name": "forVotes",
              "type": "uint256"
            },
            {
              "internalType": "uint256",
              "name": "againstVotes",
              "type": "uint256"
            }
          ],
          "internalType": "struct ProximaWatchDog.gStruct[]",
          "name": "",
          "type": "tuple[]"
        }
      ],
      "stateMutability": "view",
      "type": "function",
      "constant": true
    },
    {
      "inputs": [
        {
          "internalType": "address",
          "name": "token",
          "type": "address"
        }
      ],
      "name": "getSymbol",
      "outputs": [
        {
          "internalType": "string",
          "name": "",
          "type": "string"
        }
      ],
      "stateMutability": "view",
      "type": "function",
      "constant": true
    },
    {
      "inputs": [
        {
          "internalType": "uint256[]",
          "name": "pid",
          "type": "uint256[]"
        }
      ],
      "name": "getProposalStatus",
      "outputs": [
        {
          "internalType": "string[]",
          "name": "",
          "type": "string[]"
        }
      ],
      "stateMutability": "view",
      "type": "function",
      "constant": true
    },
    {
      "inputs": [
        {
          "internalType": "uint256[]",
          "name": "pid",
          "type": "uint256[]"
        },
        {
          "internalType": "address",
          "name": "user",
          "type": "address"
        }
      ],
      "name": "getUserProposalState",
      "outputs": [
        {
          "components": [
            {
              "internalType": "bool",
              "name": "hasVoted",
              "type": "bool"
            },
            {
              "internalType": "bool",
              "name": "support",
              "type": "bool"
            },
            {
              "internalType": "uint96",
              "name": "votes",
              "type": "uint96"
            }
          ],
          "internalType": "struct ProximaPairGovernor.Receipt[]",
          "name": "",
          "type": "tuple[]"
        }
      ],
      "stateMutability": "view",
      "type": "function",
      "constant": true
    },
    {
      "inputs": [],
      "name": "getCurrentBlock",
      "outputs": [
        {
          "internalType": "uint256",
          "name": "",
          "type": "uint256"
        }
      ],
      "stateMutability": "view",
      "type": "function",
      "constant": true
    },
    {
      "inputs": [],
      "name": "getCurrentTimestamp",
      "outputs": [
        {
          "internalType": "uint256",
          "name": "",
          "type": "uint256"
        }
      ],
      "stateMutability": "view",
      "type": "function",
      "constant": true
    },
    {
      "inputs": [
        {
          "internalType": "address",
          "name": "_who",
          "type": "address"
        }
      ],
      "name": "getFaucet",
      "outputs": [
        {
          "internalType": "uint256",
          "name": "counter",
          "type": "uint256"
        },
        {
          "internalType": "uint256",
          "name": "faucetBalance",
          "type": "uint256"
        },
        {
          "internalType": "uint256",
          "name": "currentTime",
          "type": "uint256"
        },
        {
          "internalType": "uint256",
          "name": "nextTime",
          "type": "uint256"
        }
      ],
      "stateMutability": "view",
      "type": "function",
      "constant": true
    }
  ],
  "bytecode": "0x608060405260056000553480156200001657600080fd5b5060405162001c0338038062001c03833981016040819052620000399162000109565b600280546001600160a01b0319166001600160a01b0385811691909117918290556040805163b4afa39960e01b81529051929091169163b4afa39991600480820192606092909190829003018186803b1580156200009657600080fd5b505afa158015620000ab573d6000803e3d6000fd5b505050506040513d601f19601f82011682018060405250810190620000d191906200015c565b6004555050600180546001600160a01b039384166001600160a01b0319918216179091556003805492909316911617905550620001a3565b6000806000606084860312156200011e578283fd5b83516200012b816200018a565b60208501519093506200013e816200018a565b604085015190925062000151816200018a565b809150509250925092565b60008060006060848603121562000171578182fd5b8351925060208401519150604084015190509250925092565b6001600160a01b0381168114620001a057600080fd5b50565b611a5080620001b36000396000f3fe608060405234801561001057600080fd5b50600436106101005760003560e01c8063b3ce621111610097578063de5f72fd11610066578063de5f72fd1461023b578063f2be46e814610243578063f5f3bf2314610256578063ffee0e4d1461027657610100565b8063b3ce6211146101cd578063b660b1a7146101ef578063c9b2e52214610213578063d453bec61461023357610100565b806356e90341116100d357806356e903411461016e578063574622b61461018e578063672d5d3b146101b05780636c9230db146101c557610100565b80630c340a241461010557806315364cd5146101235780633fc6f5851461014657806344c63eec14610166575b600080fd5b61010d610297565b60405161011a919061178a565b60405180910390f35b6101366101313660046112ce565b6102a6565b60405161011a949392919061196d565b610159610154366004611376565b610458565b60405161011a919061179e565b61010d6106b0565b61018161017c3660046113b1565b6106bf565b60405161011a91906117b1565b6101a161019c3660046113b1565b6107e5565b60405161011a93929190611805565b6101b8610813565b60405161011a919061194d565b6101b8610817565b6101e06101db36600461156b565b61081b565b60405161011a93929190611848565b6102026101fd36600461156b565b610a0e565b60405161011a959493929190611988565b6102266102213660046112ce565b610c08565b60405161011a9190611903565b6101b8610c7f565b61010d610c85565b61020261025136600461156b565b610c94565b610269610264366004611376565b610e61565b60405161011a91906117c4565b6102896102843660046113b1565b61114c565b60405161011a9291906117d7565b6001546001600160a01b031681565b600080600080600360009054906101000a90046001600160a01b03166001600160a01b03166361bc221a6040518163ffffffff1660e01b815260040160206040518083038186803b1580156102fa57600080fd5b505afa15801561030e573d6000803e3d6000fd5b505050506040513d601f19601f820116820180604052508101906103329190611583565b9350600360009054906101000a90046001600160a01b03166001600160a01b031663f1f959a66040518163ffffffff1660e01b815260040160206040518083038186803b15801561038257600080fd5b505afa158015610396573d6000803e3d6000fd5b505050506040513d601f19601f820116820180604052508101906103ba9190611583565b92506103c4610817565b600354604051633303d18d60e01b81529193506001600160a01b031690633303d18d906103f590889060040161178a565b60206040518083038186803b15801561040d57600080fd5b505afa158015610421573d6000803e3d6000fd5b505050506040513d601f19601f820116820180604052508101906104459190611583565b90508181116104515750805b9193509193565b606080825167ffffffffffffffff8111801561047357600080fd5b506040519080825280602002602001820160405280156104a757816020015b60608152602001906001900390816104925790505b50905060005b83518110156106a95760015484516000916001600160a01b031690633e4f49e6908790859081106104da57fe5b60200260200101516040518263ffffffff1660e01b81526004016104fe919061194d565b60206040518083038186803b15801561051657600080fd5b505afa15801561052a573d6000803e3d6000fd5b505050506040513d601f19601f8201168201806040525081019061054e9190611401565b9050600281600681111561055e57fe5b14156105a1576040518060400160405280600881526020016710d85b98d95b195960c21b81525083838151811061059157fe5b60200260200101819052506106a0565b60068160068111156105af57fe5b14156105e4576040518060400160405280600a81526020016910da185b1b195b99d95960b21b81525083838151811061059157fe5b60058160068111156105f257fe5b14156106255760405180604001604052806008815260200167115e1958dd5d195960c21b81525083838151811061059157fe5b600481600681111561063357fe5b1415610667576040518060400160405280600981526020016814dd58d8d95959195960ba1b81525083838151811061059157fe5b6040518060400160405280600881526020016711195999585d195960c21b81525083838151811061069457fe5b60200260200101819052505b506001016104ad565b5092915050565b6002546001600160a01b031681565b606080835167ffffffffffffffff811180156106da57600080fd5b5060405190808252806020026020018201604052801561071457816020015b61070161116d565b8152602001906001900390816106f95790505b50905060005b84518110156107db5760015485516001600160a01b039091169063e23a9a529087908490811061074657fe5b6020026020010151866040518363ffffffff1660e01b815260040161076c929190611956565b60606040518083038186803b15801561078457600080fd5b505afa158015610798573d6000803e3d6000fd5b505050506040513d601f19601f820116820180604052508101906107bc91906114ac565b8282815181106107c857fe5b602090810291909101015260010161071a565b5090505b92915050565b60608060606107f385610e61565b6107fd86866106bf565b61080687610458565b9250925092509250925092565b4390565b4290565b606080600080600080600090508660045410156108535760405162461bcd60e51b815260040161084a90611916565b60405180910390fd5b60045460005488011161086f576000548781019350915061087a565b600454925086830391505b60608267ffffffffffffffff8111801561089357600080fd5b506040519080825280602002602001820160405280156108bd578160200160208202803683370190505b50905060608367ffffffffffffffff811180156108d957600080fd5b5060405190808252806020026020018201604052801561091357816020015b61090061118d565b8152602001906001900390816108f85790505b509050885b858110156109db578083858151811061092d57fe5b602090810291909101015260025460405163615155dd60e01b81526001600160a01b039091169063615155dd9061096890849060040161194d565b60806040518083038186803b15801561098057600080fd5b505afa158015610994573d6000803e3d6000fd5b505050506040513d601f19601f820116820180604052508101906109b8919061150f565b8285815181106109c457fe5b602090810291909101015260019384019301610918565b5060045485600101116109fa57909650945060019350610a0792505050565b9096509450600093505050505b9193909250565b600080600080600080600160009054906101000a90046001600160a01b03166001600160a01b031663da35c6646040518163ffffffff1660e01b815260040160206040518083038186803b158015610a6557600080fd5b505afa158015610a79573d6000803e3d6000fd5b505050506040513d601f19601f82011682018060405250810190610a9d9190611583565b6000805491925090880290808080808080885b8015610bf257600154604051631f27a4f360e11b81526000916001600160a01b031690633e4f49e690610ae790859060040161194d565b60206040518083038186803b158015610aff57600080fd5b505afa158015610b13573d6000803e3d6000fd5b505050506040513d601f19601f82011682018060405250810190610b379190611401565b90506001816006811115610b4757fe5b1480610b5e57506000816006811115610b5c57fe5b145b15610be85789891015610b7657600190980197610be8565b82610b8b578197508280600101935050610be8565b8260011415610ba4578196508280600101935050610be8565b8260021415610bbd578195508280600101935050610be8565b8260031415610bd6578194508280600101935050610be8565b8260041415610be85781935050610bf2565b5060001901610ab0565b50949e939d50919b509950975095505050505050565b6060816001600160a01b03166395d89b416040518163ffffffff1660e01b815260040160006040518083038186803b158015610c4357600080fd5b505afa158015610c57573d6000803e3d6000fd5b505050506040513d6000823e601f3d908101601f191682016040526107df9190810190611420565b60045481565b6003546001600160a01b031681565b600080600080600080600160009054906101000a90046001600160a01b03166001600160a01b031663da35c6646040518163ffffffff1660e01b815260040160206040518083038186803b158015610ceb57600080fd5b505afa158015610cff573d6000803e3d6000fd5b505050506040513d601f19601f82011682018060405250810190610d239190611583565b6000805491925090880290808080808080885b8015610bf257600154604051631f27a4f360e11b81526000916001600160a01b031690633e4f49e690610d6d90859060040161194d565b60206040518083038186803b158015610d8557600080fd5b505afa158015610d99573d6000803e3d6000fd5b505050506040513d601f19601f82011682018060405250810190610dbd9190611401565b90506001816006811115610dcd57fe5b14610e575789891015610de557600190980197610e57565b82610dfa578197508280600101935050610e57565b8260011415610e13578196508280600101935050610e57565b8260021415610e2c578195508280600101935050610e57565b8260031415610e45578194508280600101935050610e57565b8260041415610e575781935050610bf2565b5060001901610d36565b606080825167ffffffffffffffff81118015610e7c57600080fd5b50604051908082528060200260200182016040528015610eb657816020015b610ea36111c0565b815260200190600190039081610e9b5790505b50905060005b83518110156106a957600080600080600080600080600160009054906101000a90046001600160a01b03166001600160a01b031663bc903cb88d8b81518110610f0157fe5b60200260200101516040518263ffffffff1660e01b8152600401610f25919061194d565b6101006040518083038186803b158015610f3e57600080fd5b505afa158015610f52573d6000803e3d6000fd5b505050506040513d601f19601f82011682018060405250810190610f7691906112f1565b97509750975097509750975097509750878a8a81518110610f9357fe5b6020026020010151602001906001600160a01b031690816001600160a01b0316815250508b8981518110610fc357fe5b60200260200101518a8a81518110610fd757fe5b60200260200101516000018181525050868a8a81518110610ff457fe5b6020026020010151604001906001600160a01b031690816001600160a01b031681525050858a8a8151811061102557fe5b6020026020010151606001906001600160a01b031690816001600160a01b031681525050848a8a8151811061105657fe5b6020026020010151608001906001600160a01b031690816001600160a01b03168152505061108386610c08565b8a8a8151811061108f57fe5b602002602001015160a001819052506110a785610c08565b8a8a815181106110b357fe5b602002602001015160c00181905250838a8a815181106110cf57fe5b602002602001015160e0018181525050828a8a815181106110ec57fe5b6020026020010151610100018181525050818a8a8151811061110a57fe5b6020026020010151610120018181525050808a8a8151811061112857fe5b60209081029190910101516101400152505060019096019550610ebc945050505050565b60608061115884610e61565b61116285856106bf565b915091509250929050565b604080516060810182526000808252602082018190529181019190915290565b604051806080016040528060006001600160a01b0316815260200160008152602001600081526020016000151581525090565b6040518061016001604052806000815260200160006001600160a01b0316815260200160006001600160a01b0316815260200160006001600160a01b0316815260200160006001600160a01b031681526020016060815260200160608152602001600081526020016000815260200160008152602001600081525090565b600082601f83011261124e578081fd5b813567ffffffffffffffff811115611264578182fd5b60208082026112748282016119ab565b8381529350818401858301828701840188101561129057600080fd5b600092505b848310156112b3578035825260019290920191908301908301611295565b505050505092915050565b805180151581146107df57600080fd5b6000602082840312156112df578081fd5b81356112ea81611a02565b9392505050565b600080600080600080600080610100898b03121561130d578384fd5b885161131881611a02565b60208a015190985061132981611a02565b60408a015190975061133a81611a02565b60608a015190965061134b81611a02565b60808a015160a08b015160c08c015160e0909c01519a9d999c50979a91999098919650945092505050565b600060208284031215611387578081fd5b813567ffffffffffffffff81111561139d578182fd5b6113a98482850161123e565b949350505050565b600080604083850312156113c3578182fd5b823567ffffffffffffffff8111156113d9578283fd5b6113e58582860161123e565b92505060208301356113f681611a02565b809150509250929050565b600060208284031215611412578081fd5b8151600781106112ea578182fd5b600060208284031215611431578081fd5b815167ffffffffffffffff80821115611448578283fd5b818401915084601f83011261145b578283fd5b815181811115611469578384fd5b61147c601f8201601f19166020016119ab565b9150808252856020828501011115611492578384fd5b6114a38160208401602086016119d2565b50949350505050565b6000606082840312156114bd578081fd5b6114c760606119ab565b6114d184846112be565b81526114e084602085016112be565b602082015260408301516bffffffffffffffffffffffff81168114611503578283fd5b60408201529392505050565b600060808284031215611520578081fd5b61152a60806119ab565b825161153581611a02565b8082525060208301516020820152604083015160408201526060830151801515811461155f578283fd5b60608201529392505050565b60006020828403121561157c578081fd5b5035919050565b600060208284031215611594578081fd5b5051919050565b815260200190565b6001600160a01b03169052565b6000815180845260208085018081965082840281019150828601855b858110156115f65782840389526115e484835161175e565b988501989350908401906001016115cc565b5091979650505050505050565b6000815180845260208085019450808401835b8381101561165a578151805115158852838101511515848901526040908101516bffffffffffffffffffffffff169088015260609096019590820190600101611616565b509495945050505050565b6000815180845260208085018081965082840281019150828601855b858110156115f6578284038952815161016081518652868201516116a7888801826115a3565b506040808301516116ba828901826115a3565b50506060808301516116ce828901826115a3565b50506080808301516116e2828901826115a3565b505060a08083015182828901526116fb8389018261175e565b9250505060c08083015187830382890152611716838261175e565b60e085810151908a015261010080860151908a015261012080860151908a01526101409485015194909801939093525050509784019790840190600101611681565b15159052565b600081518084526117768160208601602086016119d2565b601f01601f19169290920160200192915050565b6001600160a01b0391909116815260200190565b6000602082526112ea60208301846115b0565b6000602082526112ea6020830184611603565b6000602082526112ea6020830184611665565b6000604082526117ea6040830185611665565b82810360208401526117fc8185611603565b95945050505050565b6000606082526118186060830186611665565b828103602084015261182a8186611603565b9050828103604084015261183e81856115b0565b9695505050505050565b6000606080830181845280875161185f818461194d565b915060209250828901855b8281101561188b5761187d84835161159b565b93509084019060010161186a565b50505084810382860152865180825287830191830190855b818110156118ed5783516118b88482516115a3565b8086015184870152604080820151908501528601516118d987850182611758565b5092840192608092909201916001016118a3565b5050809450505050506113a96040830184611758565b6000602082526112ea602083018461175e565b60208082526018908201527f4572723a20696e646578206f7574206f6620626f756e64730000000000000000604082015260600190565b90815260200190565b9182526001600160a01b0316602082015260400190565b93845260208401929092526040830152606082015260800190565b948552602085019390935260408401919091526060830152608082015260a00190565b60405181810167ffffffffffffffff811182821017156119ca57600080fd5b604052919050565b60005b838110156119ed5781810151838201526020016119d5565b838111156119fc576000848401525b50505050565b6001600160a01b0381168114611a1757600080fd5b5056fea26469706673582212202c6ae85dd8d06c6a2fbffb058fb0ca522c2efd3f59874b9bb75f89eba88c3a7864736f6c634300060c0033",
  "immutableReferences": {},
  "source": "// SPDX-License-Identifier: MIT\npragma solidity 0.6.12;\npragma experimental ABIEncoderV2;\n\nimport \"./ProximaPairGovernor.sol\";\nimport \"./ProximaTeamTokenVesting.sol\";\nimport \"./ProximaFaucet.sol\";\n\n/**\n * @title : ProximaWatchDog\n * @author : ProximusAlpha\n */\n\ninterface iERC20 {\n    function symbol() external view returns (string memory);\n}\n\ncontract ProximaWatchDog {\n    uint256 private maxRetPerStance = 5;\n\n    ProximaPairGovernor public governor;\n    ProximaTeamTokenVesting public vesting;\n    ProximaFaucet public faucet;\n\n    uint256 public vestingId;\n\n    struct gStruct {\n        uint256 id;\n        address proposer;\n        address pair;\n        address token0;\n        address token1;\n        string token0Sym;\n        string token1Sym;\n        uint256 startBlock;\n        uint256 endBlock;\n        uint256 forVotes;\n        uint256 againstVotes;\n    }\n\n    constructor(\n        address _vestingAddress,\n        address _governorAddress,\n        address _faucetAddress\n    ) public {\n        vesting = ProximaTeamTokenVesting(_vestingAddress);\n        (, , vestingId) = vesting.getVestingStat();\n\n        governor = ProximaPairGovernor(_governorAddress);\n        faucet = ProximaFaucet(_faucetAddress);\n    }\n\n    function getAllVestings(uint256 _index)\n        public\n        view\n        returns (\n            uint256[] memory,\n            ProximaTeamTokenVesting.Vesting[] memory,\n            bool\n        )\n    {\n        uint256 _iEnd;\n        uint256 _itr;\n        uint256 _z = 0;\n        require(vestingId >= _index, \"Err: index out of bounds\");\n        if (_index + (maxRetPerStance) <= vestingId) {\n            _iEnd = _index + (maxRetPerStance);\n            _itr = maxRetPerStance;\n        } else {\n            _iEnd = vestingId;\n            _itr = vestingId - (_index);\n        }\n\n        uint256[] memory myVestID = new uint256[](_itr);\n        ProximaTeamTokenVesting.Vesting[] memory myVests =\n            new ProximaTeamTokenVesting.Vesting[](_itr);\n        for (uint256 i = _index; i < _iEnd; i++) {\n            myVestID[_z] = i;\n            myVests[_z] = (vesting.getVesting(i));\n            _z++;\n        }\n        if (_iEnd + (1) <= vestingId) {\n            return (myVestID, myVests, true);\n        }\n        return (myVestID, myVests, false);\n    }\n\n    //on which page number you are\n\n    function getAllActivePairs(uint256 pNum)\n        public\n        view\n        returns (\n            uint256,\n            uint256,\n            uint256,\n            uint256,\n            uint256\n        )\n    {\n        uint256 pCount = governor.proposalCount();\n        uint256 pSkip = pNum * maxRetPerStance;\n        uint256 cSkip = 0;\n        uint256 a = 0;\n        uint256 b = 0;\n        uint256 c = 0;\n        uint256 d = 0;\n        uint256 e = 0;\n        uint256 zip = 0;\n\n        for (uint256 i = pCount; i > 0; i--) {\n            ProximaPairGovernor.ProposalState pState = governor.state(i);\n            if (\n                pState == ProximaPairGovernor.ProposalState.Active ||\n                pState == ProximaPairGovernor.ProposalState.Pending\n            ) {\n                if (cSkip < pSkip) {\n                    cSkip++;\n                } else {\n                    if (zip == 0) {\n                        a = i;\n                        zip++;\n                    } else if (zip == 1) {\n                        b = i;\n                        zip++;\n                    } else if (zip == 2) {\n                        c = i;\n                        zip++;\n                    } else if (zip == 3) {\n                        d = i;\n                        zip++;\n                    } else if (zip == 4) {\n                        e = i;\n                        break;\n                    }\n                }\n            }\n        }\n        return (a, b, c, d, e);\n    }\n\n    function getAllNonActivePairs(uint256 pNum)\n        public\n        view\n        returns (\n            uint256,\n            uint256,\n            uint256,\n            uint256,\n            uint256\n        )\n    {\n        uint256 pCount = governor.proposalCount();\n        uint256 pSkip = pNum * maxRetPerStance;\n        uint256 cSkip = 0;\n        uint256 a = 0;\n        uint256 b = 0;\n        uint256 c = 0;\n        uint256 d = 0;\n        uint256 e = 0;\n        uint256 zip = 0;\n\n        for (uint256 i = pCount; i > 0; i--) {\n            ProximaPairGovernor.ProposalState pState = governor.state(i);\n            if (pState != ProximaPairGovernor.ProposalState.Active) {\n                if (cSkip < pSkip) {\n                    cSkip++;\n                } else {\n                    if (zip == 0) {\n                        a = i;\n                        zip++;\n                    } else if (zip == 1) {\n                        b = i;\n                        zip++;\n                    } else if (zip == 2) {\n                        c = i;\n                        zip++;\n                    } else if (zip == 3) {\n                        d = i;\n                        zip++;\n                    } else if (zip == 4) {\n                        e = i;\n                        break;\n                    }\n                }\n            }\n        }\n        return (a, b, c, d, e);\n    }\n\n    function getActiveProposals(uint256[] memory pid, address user)\n        public\n        view\n        returns (gStruct[] memory, ProximaPairGovernor.Receipt[] memory)\n    {\n        return (getProposals(pid), getUserProposalState(pid, user));\n    }\n\n    function getFinishedProposals(uint256[] memory pid, address user)\n        public\n        view\n        returns (\n            gStruct[] memory,\n            ProximaPairGovernor.Receipt[] memory,\n            string[] memory\n        )\n    {\n        return (\n            getProposals(pid),\n            getUserProposalState(pid, user),\n            getProposalStatus(pid)\n        );\n    }\n\n    function getProposals(uint256[] memory pid)\n        public\n        view\n        returns (gStruct[] memory)\n    {\n        gStruct[] memory myProposals = new gStruct[](pid.length);\n        for (uint256 i = 0; i < pid.length; i++) {\n            (\n                address proposer,\n                address pair,\n                address token0,\n                address token1,\n                uint256 startBlock,\n                uint256 endBlock,\n                uint256 forVotes,\n                uint256 againstVotes\n            ) = governor.getProposalInfo(pid[i]);\n\n            myProposals[i].proposer = proposer;\n            myProposals[i].id = pid[i];\n            myProposals[i].pair = pair;\n            myProposals[i].token0 = token0;\n            myProposals[i].token1 = token1;\n            myProposals[i].token0Sym = getSymbol(token0);\n            myProposals[i].token1Sym = getSymbol(token1);\n            myProposals[i].startBlock = startBlock;\n            myProposals[i].endBlock = endBlock;\n            myProposals[i].forVotes = forVotes;\n            myProposals[i].againstVotes = againstVotes;\n        }\n\n        return (myProposals);\n    }\n\n    function getSymbol(address token) public view returns (string memory) {\n        return iERC20(token).symbol();\n    }\n\n    function getProposalStatus(uint256[] memory pid)\n        public\n        view\n        returns (string[] memory)\n    {\n        string[] memory pRes = new string[](pid.length);\n        for (uint256 i = 0; i < pid.length; i++) {\n            ProximaPairGovernor.ProposalState pState = governor.state(pid[i]);\n            if (pState == ProximaPairGovernor.ProposalState.Canceled) {\n                pRes[i] = \"Canceled\";\n            } else if (pState == ProximaPairGovernor.ProposalState.Challenged) {\n                pRes[i] = \"Challenged\";\n            } else if (pState == ProximaPairGovernor.ProposalState.Executed) {\n                pRes[i] = \"Executed\";\n            } else if (pState == ProximaPairGovernor.ProposalState.Succeeded) {\n                pRes[i] = \"Succeeded\";\n            } else {\n                pRes[i] = \"Defeated\";\n            }\n        }\n        return pRes;\n    }\n\n    function getUserProposalState(uint256[] memory pid, address user)\n        public\n        view\n        returns (ProximaPairGovernor.Receipt[] memory)\n    {\n        ProximaPairGovernor.Receipt[] memory myReceipt =\n            new ProximaPairGovernor.Receipt[](pid.length);\n        for (uint256 i = 0; i < pid.length; i++) {\n            myReceipt[i] = governor.getReceipt(pid[i], user);\n        }\n\n        return myReceipt;\n    }\n\n    function getCurrentBlock() public view returns (uint256) {\n        return block.number;\n    }\n\n    function getCurrentTimestamp() public view returns (uint256) {\n        return block.timestamp;\n    }\n\n    function getFaucet(address _who)\n        public\n        view\n        returns (\n            uint256 counter,\n            uint256 faucetBalance,\n            uint256 currentTime,\n            uint256 nextTime\n        )\n    {\n        counter = faucet.counter();\n        faucetBalance = faucet.getFaucetBalance();\n        currentTime = getCurrentTimestamp();\n        nextTime = faucet.nextFunding(_who);\n        if (nextTime <= currentTime) {\n            nextTime = currentTime;\n        }\n    }\n}\n",
  "sourcePath": "/home/sagar/Desktop/project-Pxa/FINAL_SRELEASE/SolarRelease-Main/Mainnet/final/smartcontracts/Proxima-core/contracts/ProximaWatchDog.sol",
  "compiler": {
    "name": "solc",
    "version": "0.6.12+commit.27d51765.Emscripten.clang"
  },
  "schemaVersion": "3.3.2",
  "updatedAt": "2021-03-23T11:17:57.310Z",
  "networkType": "ethereum",
  "devdoc": {
    "kind": "dev",
    "methods": {},
    "version": 1
  },
  "userdoc": {
    "kind": "user",
    "methods": {},
    "version": 1
  }
}