{
  "contractName": "ProximaMaker",
  "abi": [
    {
      "inputs": [
        {
          "internalType": "address",
          "name": "_factory",
          "type": "address"
        },
        {
          "internalType": "address",
          "name": "_BBStorage",
          "type": "address"
        },
        {
          "internalType": "address",
          "name": "_pxa",
          "type": "address"
        },
        {
          "internalType": "address",
          "name": "_bnb",
          "type": "address"
        }
      ],
      "stateMutability": "nonpayable",
      "type": "constructor"
    },
    {
      "anonymous": false,
      "inputs": [
        {
          "indexed": true,
          "internalType": "address",
          "name": "token",
          "type": "address"
        },
        {
          "indexed": true,
          "internalType": "address",
          "name": "bridge",
          "type": "address"
        }
      ],
      "name": "LogBridgeSet",
      "type": "event"
    },
    {
      "anonymous": false,
      "inputs": [
        {
          "indexed": true,
          "internalType": "address",
          "name": "server",
          "type": "address"
        },
        {
          "indexed": true,
          "internalType": "address",
          "name": "token0",
          "type": "address"
        },
        {
          "indexed": true,
          "internalType": "address",
          "name": "token1",
          "type": "address"
        },
        {
          "indexed": false,
          "internalType": "uint256",
          "name": "amount0",
          "type": "uint256"
        },
        {
          "indexed": false,
          "internalType": "uint256",
          "name": "amount1",
          "type": "uint256"
        },
        {
          "indexed": false,
          "internalType": "uint256",
          "name": "amountPXA",
          "type": "uint256"
        }
      ],
      "name": "LogConvert",
      "type": "event"
    },
    {
      "anonymous": false,
      "inputs": [
        {
          "indexed": true,
          "internalType": "address",
          "name": "previousOwner",
          "type": "address"
        },
        {
          "indexed": true,
          "internalType": "address",
          "name": "newOwner",
          "type": "address"
        }
      ],
      "name": "OwnershipTransferred",
      "type": "event"
    },
    {
      "inputs": [],
      "name": "BBStorage",
      "outputs": [
        {
          "internalType": "address",
          "name": "",
          "type": "address"
        }
      ],
      "stateMutability": "view",
      "type": "function",
      "constant": true
    },
    {
      "inputs": [],
      "name": "factory",
      "outputs": [
        {
          "internalType": "contract IUniswapV2Factory",
          "name": "",
          "type": "address"
        }
      ],
      "stateMutability": "view",
      "type": "function",
      "constant": true
    },
    {
      "inputs": [],
      "name": "owner",
      "outputs": [
        {
          "internalType": "address",
          "name": "",
          "type": "address"
        }
      ],
      "stateMutability": "view",
      "type": "function",
      "constant": true
    },
    {
      "inputs": [],
      "name": "renounceOwnership",
      "outputs": [],
      "stateMutability": "nonpayable",
      "type": "function"
    },
    {
      "inputs": [
        {
          "internalType": "address",
          "name": "newOwner",
          "type": "address"
        }
      ],
      "name": "transferOwnership",
      "outputs": [],
      "stateMutability": "nonpayable",
      "type": "function"
    },
    {
      "inputs": [
        {
          "internalType": "address",
          "name": "token",
          "type": "address"
        }
      ],
      "name": "bridgeFor",
      "outputs": [
        {
          "internalType": "address",
          "name": "bridge",
          "type": "address"
        }
      ],
      "stateMutability": "view",
      "type": "function",
      "constant": true
    },
    {
      "inputs": [
        {
          "internalType": "address",
          "name": "token",
          "type": "address"
        },
        {
          "internalType": "address",
          "name": "bridge",
          "type": "address"
        }
      ],
      "name": "setBridge",
      "outputs": [],
      "stateMutability": "nonpayable",
      "type": "function"
    },
    {
      "inputs": [
        {
          "internalType": "address",
          "name": "token0",
          "type": "address"
        },
        {
          "internalType": "address",
          "name": "token1",
          "type": "address"
        }
      ],
      "name": "convert",
      "outputs": [],
      "stateMutability": "nonpayable",
      "type": "function"
    },
    {
      "inputs": [
        {
          "internalType": "address[]",
          "name": "token0",
          "type": "address[]"
        },
        {
          "internalType": "address[]",
          "name": "token1",
          "type": "address[]"
        }
      ],
      "name": "convertMultiple",
      "outputs": [],
      "stateMutability": "nonpayable",
      "type": "function"
    }
  ],
  "bytecode": "0x61010060405234801561001157600080fd5b506040516119d43803806119d48339818101604052608081101561003457600080fd5b508051602082015160408301516060909301519192909160006100556100ce565b600080546001600160a01b0319166001600160a01b0383169081178255604051929350917f8be0079c531659141344cd1fd0a4f28419497f9722a3daafe3b4186f6b6457e0908290a3506001600160601b0319606094851b811660805292841b831660a05290831b821660c05290911b1660e0526100d2565b3390565b60805160601c60a05160601c60c05160601c60e05160601c6118536101816000398061049452806105b25280610b8c5280610bc95280610d6e5280610dab5280610dd45280610e015280610e3e5280610e675250806104575280610af65280610b3b5280610c295280610c6e5280610cd25280610d1752806110575250806103bf5280610b5d5280610c905280610d39528061107952508061063b528061077552806110a952506118536000f3fe608060405234801561001057600080fd5b50600436106100935760003560e01c80639d22ae8c116100665780639d22ae8c14610190578063a761a939146101be578063bd1b820c146101e4578063c45a015514610212578063f2fde38b1461021a57610093565b8063303e6aa414610098578063715018a61461015c5780638da5cb5b146101645780639aa5c53f14610188575b600080fd5b61015a600480360360408110156100ae57600080fd5b8101906020810181356401000000008111156100c957600080fd5b8201836020820111156100db57600080fd5b803590602001918460208302840111640100000000831117156100fd57600080fd5b91939092909160208101903564010000000081111561011b57600080fd5b82018360208201111561012d57600080fd5b8035906020019184602083028401116401000000008311171561014f57600080fd5b509092509050610240565b005b61015a6102f0565b61016c6103ae565b604080516001600160a01b039092168252519081900360200190f35b61016c6103bd565b61015a600480360360408110156101a657600080fd5b506001600160a01b03813581169160200135166103e1565b61016c600480360360208110156101d457600080fd5b50356001600160a01b031661058f565b61015a600480360360408110156101fa57600080fd5b506001600160a01b03813581169160200135166105d7565b61016c610639565b61015a6004803603602081101561023057600080fd5b50356001600160a01b031661065d565b333214610294576040805162461bcd60e51b815260206004820152601a60248201527f50726f78696d614d616b65723a206d7573742075736520454f41000000000000604482015290519081900360640190fd5b8260005b818110156102e8576102e08686838181106102af57fe5b905060200201356001600160a01b03168585848181106102cb57fe5b905060200201356001600160a01b0316610771565b600101610298565b505050505050565b6102f8610a6f565b6001600160a01b03166103096103ae565b6001600160a01b031614610364576040805162461bcd60e51b815260206004820181905260248201527f4f776e61626c653a2063616c6c6572206973206e6f7420746865206f776e6572604482015290519081900360640190fd5b600080546040516001600160a01b03909116907f8be0079c531659141344cd1fd0a4f28419497f9722a3daafe3b4186f6b6457e0908390a3600080546001600160a01b0319169055565b6000546001600160a01b031690565b7f000000000000000000000000000000000000000000000000000000000000000081565b6103e9610a6f565b6001600160a01b03166103fa6103ae565b6001600160a01b031614610455576040805162461bcd60e51b815260206004820181905260248201527f4f776e61626c653a2063616c6c6572206973206e6f7420746865206f776e6572604482015290519081900360640190fd5b7f00000000000000000000000000000000000000000000000000000000000000006001600160a01b0316826001600160a01b0316141580156104c957507f00000000000000000000000000000000000000000000000000000000000000006001600160a01b0316826001600160a01b031614155b80156104e75750806001600160a01b0316826001600160a01b031614155b610538576040805162461bcd60e51b815260206004820152601c60248201527f50726f78696d614d616b65723a20496e76616c69642062726964676500000000604482015290519081900360640190fd5b6001600160a01b0382811660008181526001602052604080822080546001600160a01b0319169486169485179055517f2e103aa707acc565f9a1547341914802b2bfe977fd79c595209f248ae4b006139190a35050565b6001600160a01b0380821660009081526001602052604090205416806105d257507f00000000000000000000000000000000000000000000000000000000000000005b919050565b33321461062b576040805162461bcd60e51b815260206004820152601a60248201527f50726f78696d614d616b65723a206d7573742075736520454f41000000000000604482015290519081900360640190fd5b6106358282610771565b5050565b7f000000000000000000000000000000000000000000000000000000000000000081565b610665610a6f565b6001600160a01b03166106766103ae565b6001600160a01b0316146106d1576040805162461bcd60e51b815260206004820181905260248201527f4f776e61626c653a2063616c6c6572206973206e6f7420746865206f776e6572604482015290519081900360640190fd5b6001600160a01b0381166107165760405162461bcd60e51b81526004018080602001828103825260268152602001806117876026913960400191505060405180910390fd5b600080546040516001600160a01b03808516939216917f8be0079c531659141344cd1fd0a4f28419497f9722a3daafe3b4186f6b6457e091a3600080546001600160a01b0319166001600160a01b0392909216919091179055565b60007f00000000000000000000000000000000000000000000000000000000000000006001600160a01b031663e6a4390584846040518363ffffffff1660e01b815260040180836001600160a01b03168152602001826001600160a01b031681526020019250505060206040518083038186803b1580156107f157600080fd5b505afa158015610805573d6000803e3d6000fd5b505050506040513d602081101561081b57600080fd5b505190506001600160a01b03811661087a576040805162461bcd60e51b815260206004820152601a60248201527f50726f78696d614d616b65723a20496e76616c69642070616972000000000000604482015290519081900360640190fd5b61090881826001600160a01b03166370a08231306040518263ffffffff1660e01b815260040180826001600160a01b0316815260200191505060206040518083038186803b1580156108cb57600080fd5b505afa1580156108df573d6000803e3d6000fd5b505050506040513d60208110156108f557600080fd5b50516001600160a01b0384169190610a73565b600080826001600160a01b03166389afcb44306040518263ffffffff1660e01b815260040180826001600160a01b031681526020019150506040805180830381600087803b15801561095957600080fd5b505af115801561096d573d6000803e3d6000fd5b505050506040513d604081101561098357600080fd5b50805160209182015160408051630dfe168160e01b815290519295509093506001600160a01b03861692630dfe168192600480840193829003018186803b1580156109cd57600080fd5b505afa1580156109e1573d6000803e3d6000fd5b505050506040513d60208110156109f757600080fd5b50516001600160a01b03868116911614610a0d57905b6001600160a01b03808516908616337fd06b1d7ed79b664d17472c6f6997b929f1abe463ccccb4e5b6a0038f2f730c158585610a4b8b8b8484610aca565b60408051938452602084019290925282820152519081900360600190a45050505050565b3390565b604080516001600160a01b038416602482015260448082018490528251808303909101815260649091019091526020810180516001600160e01b031663a9059cbb60e01b179052610ac5908490610f3b565b505050565b6000836001600160a01b0316856001600160a01b03161415610c27576000610af28484610fec565b90507f00000000000000000000000000000000000000000000000000000000000000006001600160a01b0316866001600160a01b03161415610b8a57610b826001600160a01b037f0000000000000000000000000000000000000000000000000000000000000000167f000000000000000000000000000000000000000000000000000000000000000083610a73565b809150610c21565b7f00000000000000000000000000000000000000000000000000000000000000006001600160a01b0316866001600160a01b03161415610bf557610bee7f00000000000000000000000000000000000000000000000000000000000000008261104f565b9150610c21565b6000610c008761058f565b9050610c0e878284306110a4565b9150610c1d8182846000610aca565b9250505b50610f33565b7f00000000000000000000000000000000000000000000000000000000000000006001600160a01b0316856001600160a01b03161415610cd057610cb56001600160a01b037f0000000000000000000000000000000000000000000000000000000000000000167f000000000000000000000000000000000000000000000000000000000000000085610a73565b610cc983610cc3868561104f565b90610fec565b9050610f33565b7f00000000000000000000000000000000000000000000000000000000000000006001600160a01b0316846001600160a01b03161415610d6c57610d5e6001600160a01b037f0000000000000000000000000000000000000000000000000000000000000000167f000000000000000000000000000000000000000000000000000000000000000084610a73565b610cc982610cc3878661104f565b7f00000000000000000000000000000000000000000000000000000000000000006001600160a01b0316856001600160a01b03161415610dff57610cc97f0000000000000000000000000000000000000000000000000000000000000000610dfa85610cc3887f000000000000000000000000000000000000000000000000000000000000000088306110a4565b61104f565b7f00000000000000000000000000000000000000000000000000000000000000006001600160a01b0316846001600160a01b03161415610e8d57610cc97f0000000000000000000000000000000000000000000000000000000000000000610dfa84610cc3897f000000000000000000000000000000000000000000000000000000000000000089306110a4565b6000610e988661058f565b90506000610ea58661058f565b9050856001600160a01b0316826001600160a01b03161415610edf57610ed88287610ed28a868a306110a4565b87610aca565b9250610f30565b866001600160a01b0316816001600160a01b03161415610f1057610ed8878287610f0b8a868a306110a4565b610aca565b610f2d8282610f218a868a306110a4565b610f0b8a868a306110a4565b92505b50505b949350505050565b6060610f90826040518060400160405280602081526020017f5361666545524332303a206c6f772d6c6576656c2063616c6c206661696c6564815250856001600160a01b03166115239092919063ffffffff16565b805190915015610ac557808060200190516020811015610faf57600080fd5b5051610ac55760405162461bcd60e51b815260040180806020018281038252602a8152602001806117f4602a913960400191505060405180910390fd5b600082820183811015611046576040805162461bcd60e51b815260206004820152601b60248201527f536166654d6174683a206164646974696f6e206f766572666c6f770000000000604482015290519081900360640190fd5b90505b92915050565b600061109d837f0000000000000000000000000000000000000000000000000000000000000000847f00000000000000000000000000000000000000000000000000000000000000006110a4565b9392505050565b6000807f00000000000000000000000000000000000000000000000000000000000000006001600160a01b031663e6a4390587876040518363ffffffff1660e01b815260040180836001600160a01b03168152602001826001600160a01b031681526020019250505060206040518083038186803b15801561112557600080fd5b505afa158015611139573d6000803e3d6000fd5b505050506040513d602081101561114f57600080fd5b505190506001600160a01b0381166111ae576040805162461bcd60e51b815260206004820152601c60248201527f50726f78696d614d616b65723a2043616e6e6f7420636f6e7665727400000000604482015290519081900360640190fd5b600080826001600160a01b0316630902f1ac6040518163ffffffff1660e01b815260040160606040518083038186803b1580156111ea57600080fd5b505afa1580156111fe573d6000803e3d6000fd5b505050506040513d606081101561121457600080fd5b5080516020909101516dffffffffffffffffffffffffffff91821693501690506000611242876103e5611532565b9050836001600160a01b0316630dfe16816040518163ffffffff1660e01b815260040160206040518083038186803b15801561127d57600080fd5b505afa158015611291573d6000803e3d6000fd5b505050506040513d60208110156112a757600080fd5b50516001600160a01b038a8116911614156113ee576112cc81610cc3856103e8611532565b6112e2836112dc8a6103e5611532565b90611532565b816112e957fe5b0494506113006001600160a01b038a168589610a73565b604080516000808252602082019283905263022c0d9f60e01b835260248201818152604483018990526001600160a01b038a81166064850152608060848501908152845160a48601819052918a169563022c0d9f958c948e9491939092909160c4850191908083838b5b8381101561138257818101518382015260200161136a565b50505050905090810190601f1680156113af5780820380516001836020036101000a031916815260200191505b5095505050505050600060405180830381600087803b1580156113d157600080fd5b505af11580156113e5573d6000803e3d6000fd5b50505050611517565b6113fe81610cc3846103e8611532565b61140e846112dc8a6103e5611532565b8161141557fe5b04945061142c6001600160a01b038a168589610a73565b604080516000808252602082019283905263022c0d9f60e01b835260248201888152604483018290526001600160a01b038a81166064850152608060848501908152845160a48601819052918a169563022c0d9f958c95948e9491939092909160c4850191908083838a5b838110156114af578181015183820152602001611497565b50505050905090810190601f1680156114dc5780820380516001836020036101000a031916815260200191505b5095505050505050600060405180830381600087803b1580156114fe57600080fd5b505af1158015611512573d6000803e3d6000fd5b505050505b50505050949350505050565b6060610f33848460008561158b565b60008261154157506000611049565b8282028284828161154e57fe5b04146110465760405162461bcd60e51b81526004018080602001828103825260218152602001806117d36021913960400191505060405180910390fd5b6060824710156115cc5760405162461bcd60e51b81526004018080602001828103825260268152602001806117ad6026913960400191505060405180910390fd5b6115d5856116dc565b611626576040805162461bcd60e51b815260206004820152601d60248201527f416464726573733a2063616c6c20746f206e6f6e2d636f6e7472616374000000604482015290519081900360640190fd5b60006060866001600160a01b031685876040518082805190602001908083835b602083106116655780518252601f199092019160209182019101611646565b6001836020036101000a03801982511681845116808217855250505050505090500191505060006040518083038185875af1925050503d80600081146116c7576040519150601f19603f3d011682016040523d82523d6000602084013e6116cc565b606091505b5091509150610f2d8282866116e2565b3b151590565b606083156116f157508161109d565b8251156117015782518084602001fd5b8160405162461bcd60e51b81526004018080602001828103825283818151815260200191508051906020019080838360005b8381101561174b578181015183820152602001611733565b50505050905090810190601f1680156117785780820380516001836020036101000a031916815260200191505b509250505060405180910390fdfe4f776e61626c653a206e6577206f776e657220697320746865207a65726f2061646472657373416464726573733a20696e73756666696369656e742062616c616e636520666f722063616c6c536166654d6174683a206d756c7469706c69636174696f6e206f766572666c6f775361666545524332303a204552433230206f7065726174696f6e20646964206e6f742073756363656564a2646970667358221220fdfc337d0b2811c8974f1509d7fbd2e7706b906ad663254eaa9ca10dea5e212664736f6c634300060c0033",
  "immutableReferences": {
    "1617": [
      {
        "length": 32,
        "start": 1595
      },
      {
        "length": 32,
        "start": 1909
      },
      {
        "length": 32,
        "start": 4265
      }
    ],
    "1620": [
      {
        "length": 32,
        "start": 959
      },
      {
        "length": 32,
        "start": 2909
      },
      {
        "length": 32,
        "start": 3216
      },
      {
        "length": 32,
        "start": 3385
      },
      {
        "length": 32,
        "start": 4217
      }
    ],
    "1623": [
      {
        "length": 32,
        "start": 1111
      },
      {
        "length": 32,
        "start": 2806
      },
      {
        "length": 32,
        "start": 2875
      },
      {
        "length": 32,
        "start": 3113
      },
      {
        "length": 32,
        "start": 3182
      },
      {
        "length": 32,
        "start": 3282
      },
      {
        "length": 32,
        "start": 3351
      },
      {
        "length": 32,
        "start": 4183
      }
    ],
    "1626": [
      {
        "length": 32,
        "start": 1172
      },
      {
        "length": 32,
        "start": 1458
      },
      {
        "length": 32,
        "start": 2956
      },
      {
        "length": 32,
        "start": 3017
      },
      {
        "length": 32,
        "start": 3438
      },
      {
        "length": 32,
        "start": 3499
      },
      {
        "length": 32,
        "start": 3540
      },
      {
        "length": 32,
        "start": 3585
      },
      {
        "length": 32,
        "start": 3646
      },
      {
        "length": 32,
        "start": 3687
      }
    ]
  },
  "source": "// SPDX-License-Identifier: MIT\npragma solidity 0.6.12;\n\nimport \"@openzeppelin/contracts/token/ERC20/SafeERC20.sol\";\nimport \"@openzeppelin/contracts/access/Ownable.sol\";\nimport \"@openzeppelin/contracts/math/SafeMath.sol\";\nimport \"./interfaces/IUniswapV2ERC20.sol\";\nimport \"./interfaces/IUniswapV2Pair.sol\";\nimport \"./interfaces/IUniswapV2Factory.sol\";\n\n/**\n * @title : ProximaMaker\n * @notice : Copied and Modified from SUSHI\n * https://github.com/sushiswap/sushiswap/blob/master/contracts/SushiMaker.sol\n * Developed by ProximusAlpha\n */\n\ncontract ProximaMaker is Ownable {\n    using SafeMath for uint256;\n    using SafeERC20 for IERC20;\n    /// @dev Factory Address\n    IUniswapV2Factory public immutable factory;\n    /// @dev Storage Address\n    address public immutable BBStorage;\n    /// @dev Proxima Token Address\n    address private immutable pxa;\n    /// @dev wBNB Token Address\n    address private immutable bnb;\n\n    /// @dev Bridge map\n    mapping(address => address) internal _bridges;\n\n    /// @dev Event emitted when bridge is set\n    event LogBridgeSet(address indexed token, address indexed bridge);\n    /// @dev Event emitted when tokens are converted\n    event LogConvert(\n        address indexed server,\n        address indexed token0,\n        address indexed token1,\n        uint256 amount0,\n        uint256 amount1,\n        uint256 amountPXA\n    );\n\n    /// @dev Sets mandate\n    constructor(\n        address _factory,\n        address _BBStorage,\n        address _pxa,\n        address _bnb\n    ) public {\n        factory = IUniswapV2Factory(_factory);\n        BBStorage = _BBStorage;\n        pxa = _pxa;\n        bnb = _bnb;\n    }\n\n    /// @dev Returns Bridge\n    function bridgeFor(address token) public view returns (address bridge) {\n        bridge = _bridges[token];\n        if (bridge == address(0)) {\n            bridge = bnb;\n        }\n    }\n\n    /// @dev Sets Bridge\n    function setBridge(address token, address bridge) external onlyOwner {\n        require(\n            token != pxa && token != bnb && token != bridge,\n            \"ProximaMaker: Invalid bridge\"\n        );\n\n        _bridges[token] = bridge;\n        emit LogBridgeSet(token, bridge);\n    }\n\n    /// @dev Auth EOA modifier\n    modifier onlyEOA() {\n        require(msg.sender == tx.origin, \"ProximaMaker: must use EOA\");\n        _;\n    }\n\n    /// @dev Converts tokens\n    function convert(address token0, address token1) external onlyEOA() {\n        _convert(token0, token1);\n    }\n\n    /// @dev Converts multiple tokens\n    function convertMultiple(\n        address[] calldata token0,\n        address[] calldata token1\n    ) external onlyEOA() {\n        uint256 len = token0.length;\n        for (uint256 i = 0; i < len; i++) {\n            _convert(token0[i], token1[i]);\n        }\n    }\n\n    function _convert(address token0, address token1) internal {\n        IUniswapV2Pair pair = IUniswapV2Pair(factory.getPair(token0, token1));\n        require(address(pair) != address(0), \"ProximaMaker: Invalid pair\");\n        IERC20(address(pair)).safeTransfer(\n            address(pair),\n            pair.balanceOf(address(this))\n        );\n        (uint256 amount0, uint256 amount1) = pair.burn(address(this));\n        if (token0 != pair.token0()) {\n            (amount0, amount1) = (amount1, amount0);\n        }\n        emit LogConvert(\n            msg.sender,\n            token0,\n            token1,\n            amount0,\n            amount1,\n            _convertStep(token0, token1, amount0, amount1)\n        );\n    }\n\n    function _convertStep(\n        address token0,\n        address token1,\n        uint256 amount0,\n        uint256 amount1\n    ) internal returns (uint256 pxaOut) {\n        if (token0 == token1) {\n            uint256 amount = amount0.add(amount1);\n            if (token0 == pxa) {\n                IERC20(pxa).safeTransfer(BBStorage, amount);\n                pxaOut = amount;\n            } else if (token0 == bnb) {\n                pxaOut = _toPXA(bnb, amount);\n            } else {\n                address bridge = bridgeFor(token0);\n                amount = _swap(token0, bridge, amount, address(this));\n                pxaOut = _convertStep(bridge, bridge, amount, 0);\n            }\n        } else if (token0 == pxa) {\n            // eg. PXA - ETH\n            IERC20(pxa).safeTransfer(BBStorage, amount0);\n            pxaOut = _toPXA(token1, amount1).add(amount0);\n        } else if (token1 == pxa) {\n            // eg. USDT - PXA\n            IERC20(pxa).safeTransfer(BBStorage, amount1);\n            pxaOut = _toPXA(token0, amount0).add(amount1);\n        } else if (token0 == bnb) {\n            // eg. ETH - USDC\n            pxaOut = _toPXA(\n                bnb,\n                _swap(token1, bnb, amount1, address(this)).add(amount0)\n            );\n        } else if (token1 == bnb) {\n            // eg. USDT - ETH\n            pxaOut = _toPXA(\n                bnb,\n                _swap(token0, bnb, amount0, address(this)).add(amount1)\n            );\n        } else {\n            // eg. MIC - USDT\n            address bridge0 = bridgeFor(token0);\n            address bridge1 = bridgeFor(token1);\n            if (bridge0 == token1) {\n                // eg. MIC - USDT - and bridgeFor(MIC) = USDT\n                pxaOut = _convertStep(\n                    bridge0,\n                    token1,\n                    _swap(token0, bridge0, amount0, address(this)),\n                    amount1\n                );\n            } else if (bridge1 == token0) {\n                // eg. WBTC - DSD - and bridgeFor(DSD) = WBTC\n                pxaOut = _convertStep(\n                    token0,\n                    bridge1,\n                    amount0,\n                    _swap(token1, bridge1, amount1, address(this))\n                );\n            } else {\n                pxaOut = _convertStep(\n                    bridge0,\n                    bridge1, // eg. USDT - DSD - and bridgeFor(DSD) = WBTC\n                    _swap(token0, bridge0, amount0, address(this)),\n                    _swap(token1, bridge1, amount1, address(this))\n                );\n            }\n        }\n    }\n\n    function _swap(\n        address fromToken,\n        address toToken,\n        uint256 amountIn,\n        address to\n    ) internal returns (uint256 amountOut) {\n        IUniswapV2Pair pair =\n            IUniswapV2Pair(factory.getPair(fromToken, toToken));\n        require(address(pair) != address(0), \"ProximaMaker: Cannot convert\");\n        (uint256 reserve0, uint256 reserve1, ) = pair.getReserves();\n        uint256 amountInWithFee = amountIn.mul(997);\n        if (fromToken == pair.token0()) {\n            amountOut =\n                amountIn.mul(997).mul(reserve1) /\n                reserve0.mul(1000).add(amountInWithFee);\n            IERC20(fromToken).safeTransfer(address(pair), amountIn);\n            pair.swap(0, amountOut, to, new bytes(0));\n        } else {\n            amountOut =\n                amountIn.mul(997).mul(reserve0) /\n                reserve1.mul(1000).add(amountInWithFee);\n            IERC20(fromToken).safeTransfer(address(pair), amountIn);\n            pair.swap(amountOut, 0, to, new bytes(0));\n        }\n    }\n\n    function _toPXA(address token, uint256 amountIn)\n        internal\n        returns (uint256 amountOut)\n    {\n        amountOut = _swap(token, pxa, amountIn, BBStorage);\n    }\n}\n",
  "sourcePath": "/home/sagar/Desktop/project-Pxa/FINAL_SRELEASE/SolarRelease-Main/Mainnet/final/smartcontracts/Proxima-core/contracts/ProximaMaker.sol",
  "compiler": {
    "name": "solc",
    "version": "0.6.12+commit.27d51765.Emscripten.clang"
  },
  "schemaVersion": "3.3.2",
  "updatedAt": "2021-03-23T11:17:57.289Z",
  "networkType": "ethereum",
  "devdoc": {
    "events": {
      "LogBridgeSet(address,address)": {
        "details": "Event emitted when bridge is set"
      },
      "LogConvert(address,address,address,uint256,uint256,uint256)": {
        "details": "Event emitted when tokens are converted"
      }
    },
    "kind": "dev",
    "methods": {
      "bridgeFor(address)": {
        "details": "Returns Bridge"
      },
      "constructor": {
        "details": "Sets mandate"
      },
      "convert(address,address)": {
        "details": "Converts tokens"
      },
      "convertMultiple(address[],address[])": {
        "details": "Converts multiple tokens"
      },
      "owner()": {
        "details": "Returns the address of the current owner."
      },
      "renounceOwnership()": {
        "details": "Leaves the contract without owner. It will not be possible to call `onlyOwner` functions anymore. Can only be called by the current owner. NOTE: Renouncing ownership will leave the contract without an owner, thereby removing any functionality that is only available to the owner."
      },
      "setBridge(address,address)": {
        "details": "Sets Bridge"
      },
      "transferOwnership(address)": {
        "details": "Transfers ownership of the contract to a new account (`newOwner`). Can only be called by the current owner."
      }
    },
    "stateVariables": {
      "BBStorage": {
        "details": "Storage Address"
      },
      "_bridges": {
        "details": "Bridge map"
      },
      "bnb": {
        "details": "wBNB Token Address"
      },
      "factory": {
        "details": "Factory Address"
      },
      "pxa": {
        "details": "Proxima Token Address"
      }
    },
    "title": ": ProximaMaker",
    "version": 1
  },
  "userdoc": {
    "kind": "user",
    "methods": {},
    "notice": ": Copied and Modified from SUSHI https://github.com/sushiswap/sushiswap/blob/master/contracts/SushiMaker.sol Developed by ProximusAlpha",
    "version": 1
  }
}