{
  "contractName": "UniswapV2Factory",
  "abi": [
    {
      "inputs": [
        {
          "internalType": "address",
          "name": "_feeToSetter",
          "type": "address"
        },
        {
          "internalType": "address",
          "name": "_proximaToken",
          "type": "address"
        },
        {
          "internalType": "address",
          "name": "_rewardVault",
          "type": "address"
        }
      ],
      "stateMutability": "nonpayable",
      "type": "constructor"
    },
    {
      "anonymous": false,
      "inputs": [
        {
          "indexed": true,
          "internalType": "address",
          "name": "token0",
          "type": "address"
        },
        {
          "indexed": true,
          "internalType": "address",
          "name": "token1",
          "type": "address"
        },
        {
          "indexed": false,
          "internalType": "address",
          "name": "pair",
          "type": "address"
        },
        {
          "indexed": false,
          "internalType": "uint256",
          "name": "",
          "type": "uint256"
        }
      ],
      "name": "PairCreated",
      "type": "event"
    },
    {
      "inputs": [
        {
          "internalType": "uint256",
          "name": "",
          "type": "uint256"
        }
      ],
      "name": "allPairs",
      "outputs": [
        {
          "internalType": "address",
          "name": "",
          "type": "address"
        }
      ],
      "stateMutability": "view",
      "type": "function",
      "constant": true
    },
    {
      "inputs": [],
      "name": "feeTo",
      "outputs": [
        {
          "internalType": "address",
          "name": "",
          "type": "address"
        }
      ],
      "stateMutability": "view",
      "type": "function",
      "constant": true
    },
    {
      "inputs": [],
      "name": "feeToSetter",
      "outputs": [
        {
          "internalType": "address",
          "name": "",
          "type": "address"
        }
      ],
      "stateMutability": "view",
      "type": "function",
      "constant": true
    },
    {
      "inputs": [
        {
          "internalType": "address",
          "name": "",
          "type": "address"
        },
        {
          "internalType": "address",
          "name": "",
          "type": "address"
        }
      ],
      "name": "getPair",
      "outputs": [
        {
          "internalType": "address",
          "name": "",
          "type": "address"
        }
      ],
      "stateMutability": "view",
      "type": "function",
      "constant": true
    },
    {
      "inputs": [],
      "name": "migrator",
      "outputs": [
        {
          "internalType": "address",
          "name": "",
          "type": "address"
        }
      ],
      "stateMutability": "view",
      "type": "function",
      "constant": true
    },
    {
      "inputs": [],
      "name": "pairGovernor",
      "outputs": [
        {
          "internalType": "address",
          "name": "",
          "type": "address"
        }
      ],
      "stateMutability": "view",
      "type": "function",
      "constant": true
    },
    {
      "inputs": [],
      "name": "proximaToken",
      "outputs": [
        {
          "internalType": "address",
          "name": "",
          "type": "address"
        }
      ],
      "stateMutability": "view",
      "type": "function",
      "constant": true
    },
    {
      "inputs": [],
      "name": "rewardVault",
      "outputs": [
        {
          "internalType": "address",
          "name": "",
          "type": "address"
        }
      ],
      "stateMutability": "view",
      "type": "function",
      "constant": true
    },
    {
      "inputs": [],
      "name": "router",
      "outputs": [
        {
          "internalType": "address",
          "name": "",
          "type": "address"
        }
      ],
      "stateMutability": "view",
      "type": "function",
      "constant": true
    },
    {
      "inputs": [],
      "name": "allPairsLength",
      "outputs": [
        {
          "internalType": "uint256",
          "name": "",
          "type": "uint256"
        }
      ],
      "stateMutability": "view",
      "type": "function",
      "constant": true
    },
    {
      "inputs": [],
      "name": "pairCodeHash",
      "outputs": [
        {
          "internalType": "bytes32",
          "name": "",
          "type": "bytes32"
        }
      ],
      "stateMutability": "pure",
      "type": "function",
      "constant": true
    },
    {
      "inputs": [
        {
          "internalType": "address",
          "name": "tokenA",
          "type": "address"
        },
        {
          "internalType": "address",
          "name": "tokenB",
          "type": "address"
        },
        {
          "internalType": "address",
          "name": "proposer",
          "type": "address"
        },
        {
          "internalType": "bool",
          "name": "pairGovernance",
          "type": "bool"
        }
      ],
      "name": "createPair",
      "outputs": [
        {
          "internalType": "address",
          "name": "pair",
          "type": "address"
        }
      ],
      "stateMutability": "nonpayable",
      "type": "function"
    },
    {
      "inputs": [
        {
          "internalType": "address",
          "name": "_feeTo",
          "type": "address"
        }
      ],
      "name": "setFeeTo",
      "outputs": [],
      "stateMutability": "nonpayable",
      "type": "function"
    },
    {
      "inputs": [
        {
          "internalType": "address",
          "name": "_migrator",
          "type": "address"
        }
      ],
      "name": "setMigrator",
      "outputs": [],
      "stateMutability": "nonpayable",
      "type": "function"
    },
    {
      "inputs": [
        {
          "internalType": "address",
          "name": "_router",
          "type": "address"
        }
      ],
      "name": "setRouter",
      "outputs": [],
      "stateMutability": "nonpayable",
      "type": "function"
    },
    {
      "inputs": [
        {
          "internalType": "address",
          "name": "_pairGovernor",
          "type": "address"
        }
      ],
      "name": "setPairGovernor",
      "outputs": [],
      "stateMutability": "nonpayable",
      "type": "function"
    },
    {
      "inputs": [
        {
          "internalType": "address",
          "name": "_feeToSetter",
          "type": "address"
        }
      ],
      "name": "setFeeToSetter",
      "outputs": [],
      "stateMutability": "nonpayable",
      "type": "function"
    }
  ],
  "bytecode": "0x608060405234801561001057600080fd5b506040516132ee3803806132ee8339818101604052606081101561003357600080fd5b5080516020820151604090920151600180546001600160a01b03199081166001600160a01b0394851617909155600280548216948416949094179093556003805490931691161790556132638061008b6000396000f3fe608060405234801561001057600080fd5b506004361061010b5760003560e01c80637cd07e47116100a2578063c0d7865511610071578063c0d7865514610227578063d78e88601461024d578063e6a4390514610273578063f46901ed146102a1578063f887ea40146102c75761010b565b80637cd07e47146101e95780639a3dfb58146101f15780639aab9248146101f9578063a2e74af6146102015761010b565b806323cf3118116100de57806323cf31181461016157806339c135da146101895780633a2c6777146101c7578063574f2ba3146101cf5761010b565b8063017e7e5814610110578063094b74151461013457806315897d051461013c5780631e3dd18b14610144575b600080fd5b6101186102cf565b604080516001600160a01b039092168252519081900360200190f35b6101186102de565b6101186102ed565b6101186004803603602081101561015a57600080fd5b50356102fc565b6101876004803603602081101561017757600080fd5b50356001600160a01b0316610323565b005b6101186004803603608081101561019f57600080fd5b506001600160a01b038135811691602081013582169160408201351690606001351515610392565b610118610903565b6101d7610912565b60408051918252519081900360200190f35b610118610918565b610118610927565b6101d7610936565b6101876004803603602081101561021757600080fd5b50356001600160a01b0316610968565b6101876004803603602081101561023d57600080fd5b50356001600160a01b03166109d7565b6101876004803603602081101561026357600080fd5b50356001600160a01b0316610a46565b6101186004803603604081101561028957600080fd5b506001600160a01b0381358116916020013516610ab5565b610187600480360360208110156102b757600080fd5b50356001600160a01b0316610adb565b610118610b4a565b6000546001600160a01b031681565b6001546001600160a01b031681565b6004546001600160a01b031681565b6008818154811061030957fe5b6000918252602090912001546001600160a01b0316905081565b6001546001600160a01b03163314610370576040805162461bcd60e51b8152602060048201526019602482015260008051602061320e833981519152604482015290519081900360640190fd5b600680546001600160a01b0319166001600160a01b0392909216919091179055565b60055460009081906001600160a01b03161561040a576005546001600160a01b03163314806103cb57506006546001600160a01b031633145b61040a576040805162461bcd60e51b8152602060048201526019602482015260008051602061320e833981519152604482015290519081900360640190fd5b846001600160a01b0316866001600160a01b0316141561045b5760405162461bcd60e51b81526004018080602001828103825260238152602001806131eb6023913960400191505060405180910390fd5b600080866001600160a01b0316886001600160a01b03161061047e578688610481565b87875b90925090506001600160a01b0382166104e1576040805162461bcd60e51b815260206004820152601c60248201527f556e6973776170466163746f72793a205a45524f5f4144445245535300000000604482015290519081900360640190fd5b6001600160a01b0382811660009081526007602090815260408083208585168452909152902054161561055b576040805162461bcd60e51b815260206004820152601b60248201527f556e6973776170466163746f72793a20504149525f4558495354530000000000604482015290519081900360640190fd5b60606040518060200161056d90610b59565b6020820181038252601f19601f8201166040525090506000838360405160200180836001600160a01b031660601b8152601401826001600160a01b031660601b815260140192505050604051602081830303815290604052805190602001209050808251602084016000f59550856001600160a01b031663485cc95585856040518363ffffffff1660e01b815260040180836001600160a01b03168152602001826001600160a01b0316815260200192505050600060405180830381600087803b15801561063a57600080fd5b505af115801561064e573d6000803e3d6000fd5b5050506001600160a01b0380861660008181526007602081815260408084208a8716855282528084208054968e166001600160a01b0319978816811790915592825280842094845293905291812080548416831790556008805460018101825591527ff3f7a9fe364faab93b216da50a3214154f22a0a2b415b23a84c8169e8b636ee30180549092161790555086156107d65760048054604080516319cde89b60e11b81526001600160a01b038a811694820194909452878416602482015286841660448201528b841660648201529051929091169163339bd136916084808201926020929091908290030181600087803b15801561074c57600080fd5b505af1158015610760573d6000803e3d6000fd5b505050506040513d602081101561077657600080fd5b505194506001851515146107d1576040805162461bcd60e51b815260206004820152601960248201527f556e7377617056323a2050524f504f53414c5f4641494c454400000000000000604482015290519081900360640190fd5b6108a9565b6003546040805162caabbf60e11b81526001600160a01b03898116600483015291519190921691630195577e9160248083019260209291908290030181600087803b15801561082457600080fd5b505af1158015610838573d6000803e3d6000fd5b505050506040513d602081101561084e57600080fd5b505194506001851515146108a9576040805162461bcd60e51b815260206004820152601a60248201527f556e7377617056323a204558454d5054494f4e5f4641494c4544000000000000604482015290519081900360640190fd5b600854604080516001600160a01b03898116825260208201939093528151838716938816927f0d3648bd0f6ba80134a33ba9275ac585d9d315f0ad8355cddefde31afa28d0e9928290030190a35050505050949350505050565b6003546001600160a01b031681565b60085490565b6006546001600160a01b031681565b6002546001600160a01b031681565b60006040518060200161094890610b59565b6020820181038252601f19601f8201166040525080519060200120905090565b6001546001600160a01b031633146109b5576040805162461bcd60e51b8152602060048201526019602482015260008051602061320e833981519152604482015290519081900360640190fd5b600180546001600160a01b0319166001600160a01b0392909216919091179055565b6001546001600160a01b03163314610a24576040805162461bcd60e51b8152602060048201526019602482015260008051602061320e833981519152604482015290519081900360640190fd5b600580546001600160a01b0319166001600160a01b0392909216919091179055565b6001546001600160a01b03163314610a93576040805162461bcd60e51b8152602060048201526019602482015260008051602061320e833981519152604482015290519081900360640190fd5b600480546001600160a01b0319166001600160a01b0392909216919091179055565b60076020908152600092835260408084209091529082529020546001600160a01b031681565b6001546001600160a01b03163314610b28576040805162461bcd60e51b8152602060048201526019602482015260008051602061320e833981519152604482015290519081900360640190fd5b600080546001600160a01b0319166001600160a01b0392909216919091179055565b6005546001600160a01b031681565b61268480610b678339019056fe60806040526001600c5534801561001557600080fd5b50604080518082018252601081526f283937bc34b6b0902628102a37b5b2b760811b6020918201528151808301835260018152603160f81b9082015281517f8b73c3c69bb8fe3d512ecc4cf759cc79239f7b179b0ffacaa9a75d522b39400f818301527f6bcb83b6e60d0472e7a315d9ea497e3fbbbeee33f2013f7fb3599fba62334d61818401527fc89efdaa54c0f20c7adf612882df0950f5a951637e0307cdcb4c672f298b8bc660608201524660808201523060a0808301919091528351808303909101815260c09091019092528151910120600355600580546001600160a01b031916331790556125768061010e6000396000f3fe608060405234801561001057600080fd5b50600436106101a95760003560e01c80636a627842116100f9578063ba9a7a5611610097578063d21220a711610071578063d21220a714610534578063d505accf1461053c578063dd62ed3e1461058d578063fff6cae9146105bb576101a9565b8063ba9a7a56146104fe578063bc25cf7714610506578063c45a01551461052c576101a9565b80637ecebe00116100d35780637ecebe001461046557806389afcb441461048b57806395d89b41146104ca578063a9059cbb146104d2576101a9565b80636a6278421461041157806370a08231146104375780637464fc3d1461045d576101a9565b806323b872dd116101665780633644e515116101405780633644e515146103cb578063485cc955146103d35780635909c0d5146104015780635a3d549314610409576101a9565b806323b872dd1461036f57806330adf81f146103a5578063313ce567146103ad576101a9565b8063022c0d9f146101ae57806306fdde031461023c5780630902f1ac146102b9578063095ea7b3146102f15780630dfe16811461033157806318160ddd14610355575b600080fd5b61023a600480360360808110156101c457600080fd5b8135916020810135916001600160a01b0360408301351691908101906080810160608201356401000000008111156101fb57600080fd5b82018360208201111561020d57600080fd5b8035906020019184600183028401116401000000008311171561022f57600080fd5b5090925090506105c3565b005b610244610acb565b6040805160208082528351818301528351919283929083019185019080838360005b8381101561027e578181015183820152602001610266565b50505050905090810190601f1680156102ab5780820380516001836020036101000a031916815260200191505b509250505060405180910390f35b6102c1610af7565b604080516001600160701b03948516815292909316602083015263ffffffff168183015290519081900360600190f35b61031d6004803603604081101561030757600080fd5b506001600160a01b038135169060200135610b21565b604080519115158252519081900360200190f35b610339610b38565b604080516001600160a01b039092168252519081900360200190f35b61035d610b47565b60408051918252519081900360200190f35b61031d6004803603606081101561038557600080fd5b506001600160a01b03813581169160208101359091169060400135610b4d565b61035d610be1565b6103b5610c05565b6040805160ff9092168252519081900360200190f35b61035d610c0a565b61023a600480360360408110156103e957600080fd5b506001600160a01b0381358116916020013516610c10565b61035d610c94565b61035d610c9a565b61035d6004803603602081101561042757600080fd5b50356001600160a01b0316610ca0565b61035d6004803603602081101561044d57600080fd5b50356001600160a01b0316610f7c565b61035d610f8e565b61035d6004803603602081101561047b57600080fd5b50356001600160a01b0316610f94565b6104b1600480360360208110156104a157600080fd5b50356001600160a01b0316610fa6565b6040805192835260208301919091528051918290030190f35b610244611345565b61031d600480360360408110156104e857600080fd5b506001600160a01b038135169060200135611364565b61035d611371565b61023a6004803603602081101561051c57600080fd5b50356001600160a01b0316611377565b6103396114e9565b6103396114f8565b61023a600480360360e081101561055257600080fd5b506001600160a01b03813581169160208101359091169060408101359060608101359060ff6080820135169060a08101359060c00135611507565b61035d600480360360408110156105a357600080fd5b506001600160a01b0381358116916020013516611709565b61023a611726565b600c5460011461060e576040805162461bcd60e51b8152602060048201526011602482015270155b9a5cddd85c158c8e881313d0d2d151607a1b604482015290519081900360640190fd5b6000600c55841515806106215750600084115b61065c5760405162461bcd60e51b815260040180806020018281038252602581526020018061245e6025913960400191505060405180910390fd5b600080610667610af7565b5091509150816001600160701b03168710801561068c5750806001600160701b031686105b6106c75760405162461bcd60e51b81526004018080602001828103825260218152602001806124a76021913960400191505060405180910390fd5b60065460075460009182916001600160a01b039182169190811690891682148015906107055750806001600160a01b0316896001600160a01b031614155b61074e576040805162461bcd60e51b8152602060048201526015602482015274556e697377617056323a20494e56414c49445f544f60581b604482015290519081900360640190fd5b8a1561075f5761075f828a8d611888565b891561077057610770818a8c611888565b861561082257886001600160a01b03166310d1e85c338d8d8c8c6040518663ffffffff1660e01b815260040180866001600160a01b03168152602001858152602001848152602001806020018281038252848482818152602001925080828437600081840152601f19601f8201169050808301925050509650505050505050600060405180830381600087803b15801561080957600080fd5b505af115801561081d573d6000803e3d6000fd5b505050505b604080516370a0823160e01b815230600482015290516001600160a01b038416916370a08231916024808301926020929190829003018186803b15801561086857600080fd5b505afa15801561087c573d6000803e3d6000fd5b505050506040513d602081101561089257600080fd5b5051604080516370a0823160e01b815230600482015290519195506001600160a01b038316916370a0823191602480820192602092909190829003018186803b1580156108de57600080fd5b505afa1580156108f2573d6000803e3d6000fd5b505050506040513d602081101561090857600080fd5b5051925060009150506001600160701b0385168a9003831161092b57600061093a565b89856001600160701b03160383035b9050600089856001600160701b0316038311610957576000610966565b89856001600160701b03160383035b905060008211806109775750600081115b6109b25760405162461bcd60e51b81526004018080602001828103825260248152602001806124836024913960400191505060405180910390fd5b60006109d46109c2846003611a22565b6109ce876103e8611a22565b90611a85565b905060006109e66109c2846003611a22565b9050610a0b620f4240610a056001600160701b038b8116908b16611a22565b90611a22565b610a158383611a22565b1015610a57576040805162461bcd60e51b815260206004820152600c60248201526b556e697377617056323a204b60a01b604482015290519081900360640190fd5b5050610a6584848888611ad5565b60408051838152602081018390528082018d9052606081018c905290516001600160a01b038b169133917fd78ad95fa46c994b6551d0da85fc275fe613ce37657fb8d5e3d130840159d8229181900360800190a350506001600c55505050505050505050565b6040518060400160405280601081526020016f283937bc34b6b0902628102a37b5b2b760811b81525081565b6008546001600160701b0380821692600160701b830490911691600160e01b900463ffffffff1690565b6000610b2e338484611c94565b5060015b92915050565b6006546001600160a01b031681565b60005481565b6001600160a01b038316600090815260026020908152604080832033845290915281205460001914610bcc576001600160a01b0384166000908152600260209081526040808320338452909152902054610ba79083611a85565b6001600160a01b03851660009081526002602090815260408083203384529091529020555b610bd7848484611cf6565b5060019392505050565b7f6e71edae12b1b97f4d1f60370fef10105fa2faae0126114a169c64845d6126c981565b601281565b60035481565b6005546001600160a01b03163314610c66576040805162461bcd60e51b81526020600482015260146024820152732ab734b9bbb0b82b191d102327a92124a22222a760611b604482015290519081900360640190fd5b600680546001600160a01b039384166001600160a01b03199182161790915560078054929093169116179055565b60095481565b600a5481565b6000600c54600114610ced576040805162461bcd60e51b8152602060048201526011602482015270155b9a5cddd85c158c8e881313d0d2d151607a1b604482015290519081900360640190fd5b6000600c81905580610cfd610af7565b50600654604080516370a0823160e01b815230600482015290519395509193506000926001600160a01b03909116916370a08231916024808301926020929190829003018186803b158015610d5157600080fd5b505afa158015610d65573d6000803e3d6000fd5b505050506040513d6020811015610d7b57600080fd5b5051600754604080516370a0823160e01b815230600482015290519293506000926001600160a01b03909216916370a0823191602480820192602092909190829003018186803b158015610dce57600080fd5b505afa158015610de2573d6000803e3d6000fd5b505050506040513d6020811015610df857600080fd5b505190506000610e11836001600160701b038716611a85565b90506000610e28836001600160701b038716611a85565b90506000610e368787611da4565b60005490915080610e6d57610e596103e86109ce610e548787611a22565b611ee4565b9850610e6860006103e8611f36565b610eb0565b610ead6001600160701b038916610e848684611a22565b81610e8b57fe5b046001600160701b038916610ea08685611a22565b81610ea757fe5b04611fc0565b98505b60008911610eef5760405162461bcd60e51b81526004018080602001828103825260288152602001806124f06028913960400191505060405180910390fd5b610ef98a8a611f36565b610f0586868a8a611ad5565b8115610f2f57600854610f2b906001600160701b0380821691600160701b900416611a22565b600b555b6040805185815260208101859052815133927f4c209b5fc8ad50758f13e2e1088ba56a560dff690a1c6fef26394f4c03821c4f928290030190a250506001600c5550949695505050505050565b60016020526000908152604090205481565b600b5481565b60046020526000908152604090205481565b600080600c54600114610ff4576040805162461bcd60e51b8152602060048201526011602482015270155b9a5cddd85c158c8e881313d0d2d151607a1b604482015290519081900360640190fd5b6000600c81905580611004610af7565b50600654600754604080516370a0823160e01b815230600482015290519496509294506001600160a01b039182169391169160009184916370a08231916024808301926020929190829003018186803b15801561106057600080fd5b505afa158015611074573d6000803e3d6000fd5b505050506040513d602081101561108a57600080fd5b5051604080516370a0823160e01b815230600482015290519192506000916001600160a01b038516916370a08231916024808301926020929190829003018186803b1580156110d857600080fd5b505afa1580156110ec573d6000803e3d6000fd5b505050506040513d602081101561110257600080fd5b5051306000908152600160205260408120549192506111218888611da4565b600054909150806111328487611a22565b8161113957fe5b049a50806111478486611a22565b8161114e57fe5b04995060008b118015611161575060008a115b61119c5760405162461bcd60e51b81526004018080602001828103825260288152602001806124c86028913960400191505060405180910390fd5b6111a78c8483611fd8565b6111b13084612345565b6111bc878d8d611888565b6111c7868d8c611888565b604080516370a0823160e01b815230600482015290516001600160a01b038916916370a08231916024808301926020929190829003018186803b15801561120d57600080fd5b505afa158015611221573d6000803e3d6000fd5b505050506040513d602081101561123757600080fd5b5051604080516370a0823160e01b815230600482015290519196506001600160a01b038816916370a0823191602480820192602092909190829003018186803b15801561128357600080fd5b505afa158015611297573d6000803e3d6000fd5b505050506040513d60208110156112ad57600080fd5b505193506112bd85858b8b611ad5565b81156112e7576008546112e3906001600160701b0380821691600160701b900416611a22565b600b555b604080518c8152602081018c905281516001600160a01b038f169233927fdccd412f0b1252819cb1fd330b93224ca42612892bb3f4f789976e6d81936496929081900390910190a35050505050505050506001600c81905550915091565b604051806040016040528060038152602001620504c560ec1b81525081565b6000610b2e338484611cf6565b6103e881565b600c546001146113c2576040805162461bcd60e51b8152602060048201526011602482015270155b9a5cddd85c158c8e881313d0d2d151607a1b604482015290519081900360640190fd5b6000600c55600654600754600854604080516370a0823160e01b815230600482015290516001600160a01b03948516949093169261146b9285928792611466926001600160701b03169185916370a0823191602480820192602092909190829003018186803b15801561143457600080fd5b505afa158015611448573d6000803e3d6000fd5b505050506040513d602081101561145e57600080fd5b505190611a85565b611888565b6114df81846114666008600e9054906101000a90046001600160701b03166001600160701b0316856001600160a01b03166370a08231306040518263ffffffff1660e01b815260040180826001600160a01b0316815260200191505060206040518083038186803b15801561143457600080fd5b50506001600c5550565b6005546001600160a01b031681565b6007546001600160a01b031681565b42841015611551576040805162461bcd60e51b8152602060048201526012602482015271155b9a5cddd85c158c8e881156141254915160721b604482015290519081900360640190fd5b6003546001600160a01b0380891660008181526004602090815260408083208054600180820190925582517f6e71edae12b1b97f4d1f60370fef10105fa2faae0126114a169c64845d6126c98186015280840196909652958d166060860152608085018c905260a085019590955260c08085018b90528151808603909101815260e08501825280519083012061190160f01b6101008601526101028501969096526101228085019690965280518085039096018652610142840180825286519683019690962095839052610162840180825286905260ff89166101828501526101a284018890526101c28401879052519193926101e280820193601f1981019281900390910190855afa15801561166c573d6000803e3d6000fd5b5050604051601f1901519150506001600160a01b038116158015906116a25750886001600160a01b0316816001600160a01b0316145b6116f3576040805162461bcd60e51b815260206004820152601c60248201527f556e697377617056323a20494e56414c49445f5349474e415455524500000000604482015290519081900360640190fd5b6116fe898989611c94565b505050505050505050565b600260209081526000928352604080842090915290825290205481565b600c54600114611771576040805162461bcd60e51b8152602060048201526011602482015270155b9a5cddd85c158c8e881313d0d2d151607a1b604482015290519081900360640190fd5b6000600c55600654604080516370a0823160e01b81523060048201529051611881926001600160a01b0316916370a08231916024808301926020929190829003018186803b1580156117c257600080fd5b505afa1580156117d6573d6000803e3d6000fd5b505050506040513d60208110156117ec57600080fd5b5051600754604080516370a0823160e01b815230600482015290516001600160a01b03909216916370a0823191602480820192602092909190829003018186803b15801561183957600080fd5b505afa15801561184d573d6000803e3d6000fd5b505050506040513d602081101561186357600080fd5b50516008546001600160701b0380821691600160701b900416611ad5565b6001600c55565b604080518082018252601981527f7472616e7366657228616464726573732c75696e74323536290000000000000060209182015281516001600160a01b0385811660248301526044808301869052845180840390910181526064909201845291810180516001600160e01b031663a9059cbb60e01b1781529251815160009460609489169392918291908083835b602083106119355780518252601f199092019160209182019101611916565b6001836020036101000a0380198251168184511680821785525050505050509050019150506000604051808303816000865af19150503d8060008114611997576040519150601f19603f3d011682016040523d82523d6000602084013e61199c565b606091505b50915091508180156119ca5750805115806119ca57508080602001905160208110156119c757600080fd5b50515b611a1b576040805162461bcd60e51b815260206004820152601a60248201527f556e697377617056323a205452414e534645525f4641494c4544000000000000604482015290519081900360640190fd5b5050505050565b6000811580611a3d57505080820282828281611a3a57fe5b04145b610b32576040805162461bcd60e51b815260206004820152601460248201527364732d6d6174682d6d756c2d6f766572666c6f7760601b604482015290519081900360640190fd5b80820382811115610b32576040805162461bcd60e51b815260206004820152601560248201527464732d6d6174682d7375622d756e646572666c6f7760581b604482015290519081900360640190fd5b6001600160701b038411801590611af357506001600160701b038311155b611b3a576040805162461bcd60e51b8152602060048201526013602482015272556e697377617056323a204f564552464c4f5760681b604482015290519081900360640190fd5b60085463ffffffff42811691600160e01b90048116820390811615801590611b6a57506001600160701b03841615155b8015611b7e57506001600160701b03831615155b15611be9578063ffffffff16611ba685611b97866123d7565b6001600160e01b0316906123e9565b600980546001600160e01b03929092169290920201905563ffffffff8116611bd184611b97876123d7565b600a80546001600160e01b0392909216929092020190555b600880546dffffffffffffffffffffffffffff19166001600160701b03888116919091176dffffffffffffffffffffffffffff60701b1916600160701b8883168102919091176001600160e01b0316600160e01b63ffffffff871602179283905560408051848416815291909304909116602082015281517f1c411e9a96e071241c2f21f7726b17ae89e3cab4c78be50e062b03a9fffbbad1929181900390910190a1505050505050565b6001600160a01b03808416600081815260026020908152604080832094871680845294825291829020859055815185815291517f8c5be1e5ebec7d5bd14f71427d1e84f3dd0314c0f7b2291e5b200ac8c7c3b9259281900390910190a3505050565b6001600160a01b038316600090815260016020526040902054611d199082611a85565b6001600160a01b038085166000908152600160205260408082209390935590841681522054611d48908261240e565b6001600160a01b0380841660008181526001602090815260409182902094909455805185815290519193928716927fddf252ad1be2c89b69c2b068fc378daa952ba7f163c4a11628f55a4df523b3ef92918290030190a3505050565b600080600560009054906101000a90046001600160a01b03166001600160a01b031663017e7e586040518163ffffffff1660e01b815260040160206040518083038186803b158015611df557600080fd5b505afa158015611e09573d6000803e3d6000fd5b505050506040513d6020811015611e1f57600080fd5b5051600b546001600160a01b038216158015945091925090611ed0578015611ecb576000611e5c610e546001600160701b03888116908816611a22565b90506000611e6983611ee4565b905080821115611ec8576000611e8b611e828484611a85565b60005490611a22565b90506000611ea483611e9e866001611a22565b9061240e565b90506000818381611eb157fe5b0490508015611ec457611ec48782611f36565b5050505b50505b611edc565b8015611edc576000600b555b505092915050565b60006003821115611f27575080600160028204015b81811015611f2157809150600281828581611f1057fe5b040181611f1957fe5b049050611ef9565b50611f31565b8115611f31575060015b919050565b600054611f43908261240e565b60009081556001600160a01b038316815260016020526040902054611f68908261240e565b6001600160a01b03831660008181526001602090815260408083209490945583518581529351929391927fddf252ad1be2c89b69c2b068fc378daa952ba7f163c4a11628f55a4df523b3ef9281900390910190a35050565b6000818310611fcf5781611fd1565b825b9392505050565b60055460408051622fcfcb60e31b815290516000926001600160a01b03169163017e7e58916004808301926020929190829003018186803b15801561201c57600080fd5b505afa158015612030573d6000803e3d6000fd5b505050506040513d602081101561204657600080fd5b505190506001600160a01b038481169082161461233f5760055460408051633a2c677760e01b815290516000926001600160a01b031691633a2c6777916004808301926020929190829003018186803b1580156120a257600080fd5b505afa1580156120b6573d6000803e3d6000fd5b505050506040513d60208110156120cc57600080fd5b505160055460408051631347bf6b60e31b815290519293506000926001600160a01b0390921691639a3dfb5891600480820192602092909190829003018186803b15801561211957600080fd5b505afa15801561212d573d6000803e3d6000fd5b505050506040513d602081101561214357600080fd5b5051604080516370eb01cb60e01b815230600482015290519192506000916001600160a01b038516916370eb01cb91602480830192602092919082900301818787803b15801561219257600080fd5b505af11580156121a6573d6000803e3d6000fd5b505050506040513d60208110156121bc57600080fd5b505190508015612274576000836001600160a01b031663057ed46a6040518163ffffffff1660e01b8152600401602060405180830381600087803b15801561220357600080fd5b505af1158015612217573d6000803e3d6000fd5b505050506040513d602081101561222d57600080fd5b505190506001811515146122725760405162461bcd60e51b81526004018080602001828103825260298152602001806125186029913960400191505060405180910390fd5b505b6000826001600160a01b03166370a08231306040518263ffffffff1660e01b815260040180826001600160a01b0316815260200191505060206040518083038186803b1580156122c357600080fd5b505afa1580156122d7573d6000803e3d6000fd5b505050506040513d60208110156122ed57600080fd5b50519050801561233a576001600160a01b03851660009081526001602052604081205461231b908890611a85565b6123258984611a22565b8161232c57fe5b0490506116fe848a83611888565b505050505b50505050565b6001600160a01b0382166000908152600160205260409020546123689082611a85565b6001600160a01b0383166000908152600160205260408120919091555461238f9082611a85565b60009081556040805183815290516001600160a01b038516917fddf252ad1be2c89b69c2b068fc378daa952ba7f163c4a11628f55a4df523b3ef919081900360200190a35050565b6001600160701b0316600160701b0290565b60006001600160701b0382166001600160e01b0384168161240657fe5b049392505050565b80820182811015610b32576040805162461bcd60e51b815260206004820152601460248201527364732d6d6174682d6164642d6f766572666c6f7760601b604482015290519081900360640190fdfe556e697377617056323a20494e53554646494349454e545f4f55545055545f414d4f554e54556e697377617056323a20494e53554646494349454e545f494e5055545f414d4f554e54556e697377617056323a20494e53554646494349454e545f4c4951554944495459556e697377617056323a20494e53554646494349454e545f4c49515549444954595f4255524e4544556e697377617056323a20494e53554646494349454e545f4c49515549444954595f4d494e544544556e69737761705632526f75746572203a205245574152445f52455452494556414c5f4641494c4544a2646970667358221220ac4f56581bfd928e3d11fd4e09d1bb8578057e3684d9f7916438d2c22dbdce0c64736f6c634300060c0033556e6973776170466163746f72793a204944454e544943414c5f414444524553534553556e6973776170466163746f72793a20464f5242494444454e00000000000000a2646970667358221220f354390e5c43b20026c8f5e024ab3849992f2dbfbefcafb25cc7ec838d9519df64736f6c634300060c0033",
  "immutableReferences": {},
  "source": "// SPDX-License-Identifier: GPL-3.0\n\npragma solidity =0.6.12;\n\nimport \"./interfaces/IUniswapV2Factory.sol\";\nimport \"./UniswapV2Pair.sol\";\n\ninterface IProximaPairGovernor {\n    function propose(\n        address _pair,\n        address _token0,\n        address _token1,\n        address _proposer\n    ) external returns (bool);\n}\n\ninterface IProximaLiquidityRewardVault {\n    function exemptedPair(address _pair) external returns (bool);\n}\n\ncontract UniswapV2Factory is IUniswapV2Factory {\n    address public override feeTo;\n    address public override feeToSetter;\n    address public override proximaToken;\n    address public override rewardVault;\n    address public override pairGovernor;\n    address public override router;\n    address public override migrator;\n\n    mapping(address => mapping(address => address)) public override getPair;\n    address[] public override allPairs;\n\n    event PairCreated(\n        address indexed token0,\n        address indexed token1,\n        address pair,\n        uint256\n    );\n\n    constructor(\n        address _feeToSetter,\n        address _proximaToken,\n        address _rewardVault\n    ) public {\n        feeToSetter = _feeToSetter;\n        proximaToken = _proximaToken;\n        rewardVault = _rewardVault;\n    }\n\n    function allPairsLength() external view override returns (uint256) {\n        return allPairs.length;\n    }\n\n    function pairCodeHash() external pure returns (bytes32) {\n        return keccak256(type(UniswapV2Pair).creationCode);\n    }\n\n    function createPair(\n        address tokenA,\n        address tokenB,\n        address proposer,\n        bool pairGovernance\n    ) external override returns (address pair) {\n        bool pRes;\n        if (router != address(0)) {\n            require(\n                msg.sender == router || msg.sender == migrator,\n                \"UniswapFactory: FORBIDDEN\"\n            );\n        }\n        require(tokenA != tokenB, \"UniswapFactory: IDENTICAL_ADDRESSES\");\n        (address token0, address token1) =\n            tokenA < tokenB ? (tokenA, tokenB) : (tokenB, tokenA);\n        require(token0 != address(0), \"UniswapFactory: ZERO_ADDRESS\");\n        require(\n            getPair[token0][token1] == address(0),\n            \"UniswapFactory: PAIR_EXISTS\"\n        ); // single check is sufficient\n        bytes memory bytecode = type(UniswapV2Pair).creationCode;\n        bytes32 salt = keccak256(abi.encodePacked(token0, token1));\n        assembly {\n            pair := create2(0, add(bytecode, 32), mload(bytecode), salt)\n        }\n        UniswapV2Pair(pair).initialize(token0, token1);\n        getPair[token0][token1] = pair;\n        getPair[token1][token0] = pair; // populate mapping in the reverse direction\n        allPairs.push(pair);\n        if (pairGovernance) {\n            pRes = IProximaPairGovernor(pairGovernor).propose(\n                pair,\n                token0,\n                token1,\n                proposer\n            );\n            require(pRes == true, \"UnswapV2: PROPOSAL_FAILED\");\n        } else {\n            pRes = IProximaLiquidityRewardVault(rewardVault).exemptedPair(pair);\n            require(pRes == true, \"UnswapV2: EXEMPTION_FAILED\");\n        }\n        emit PairCreated(token0, token1, pair, allPairs.length);\n    }\n\n    function setFeeTo(address _feeTo) external override {\n        require(msg.sender == feeToSetter, \"UniswapFactory: FORBIDDEN\");\n        feeTo = _feeTo;\n    }\n\n    function setMigrator(address _migrator) external override {\n        require(msg.sender == feeToSetter, \"UniswapFactory: FORBIDDEN\");\n        migrator = _migrator;\n    }\n\n    function setRouter(address _router) external override {\n        require(msg.sender == feeToSetter, \"UniswapFactory: FORBIDDEN\");\n        router = _router;\n    }\n\n    function setPairGovernor(address _pairGovernor) external override {\n        require(msg.sender == feeToSetter, \"UniswapFactory: FORBIDDEN\");\n        pairGovernor = _pairGovernor;\n    }\n\n    function setFeeToSetter(address _feeToSetter) external override {\n        require(msg.sender == feeToSetter, \"UniswapFactory: FORBIDDEN\");\n        feeToSetter = _feeToSetter;\n    }\n}\n",
  "sourcePath": "/home/sagar/Desktop/project-Pxa/FINAL_SRELEASE/SolarRelease-Main/Mainnet/final/smartcontracts/Proxima-core/contracts/UniswapV2Factory.sol",
  "compiler": {
    "name": "solc",
    "version": "0.6.12+commit.27d51765.Emscripten.clang"
  },
  "schemaVersion": "3.3.2",
  "updatedAt": "2021-03-23T11:17:57.275Z",
  "networkType": "ethereum",
  "devdoc": {
    "kind": "dev",
    "methods": {},
    "version": 1
  },
  "userdoc": {
    "kind": "user",
    "methods": {},
    "version": 1
  }
}