{
  "contractName": "ProximaContributedLiquidity",
  "abi": [
    {
      "inputs": [
        {
          "internalType": "address",
          "name": "_pxa",
          "type": "address"
        },
        {
          "internalType": "contract IWETH",
          "name": "_WBNB",
          "type": "address"
        }
      ],
      "stateMutability": "nonpayable",
      "type": "constructor"
    },
    {
      "anonymous": false,
      "inputs": [
        {
          "indexed": true,
          "internalType": "address",
          "name": "user",
          "type": "address"
        },
        {
          "indexed": true,
          "internalType": "uint256",
          "name": "pid",
          "type": "uint256"
        },
        {
          "indexed": false,
          "internalType": "uint256",
          "name": "liquidity",
          "type": "uint256"
        }
      ],
      "name": "Deposit",
      "type": "event"
    },
    {
      "anonymous": false,
      "inputs": [
        {
          "indexed": true,
          "internalType": "address",
          "name": "user",
          "type": "address"
        },
        {
          "indexed": true,
          "internalType": "uint256",
          "name": "pid",
          "type": "uint256"
        },
        {
          "indexed": false,
          "internalType": "uint256",
          "name": "liquidity",
          "type": "uint256"
        }
      ],
      "name": "Withdraw",
      "type": "event"
    },
    {
      "inputs": [],
      "name": "WBNB",
      "outputs": [
        {
          "internalType": "contract IWETH",
          "name": "",
          "type": "address"
        }
      ],
      "stateMutability": "view",
      "type": "function",
      "constant": true
    },
    {
      "inputs": [],
      "name": "devaddr",
      "outputs": [
        {
          "internalType": "address",
          "name": "",
          "type": "address"
        }
      ],
      "stateMutability": "view",
      "type": "function",
      "constant": true
    },
    {
      "inputs": [],
      "name": "pxa",
      "outputs": [
        {
          "internalType": "address",
          "name": "",
          "type": "address"
        }
      ],
      "stateMutability": "view",
      "type": "function",
      "constant": true
    },
    {
      "inputs": [],
      "name": "router",
      "outputs": [
        {
          "internalType": "address",
          "name": "",
          "type": "address"
        }
      ],
      "stateMutability": "view",
      "type": "function",
      "constant": true
    },
    {
      "inputs": [],
      "name": "poolLength",
      "outputs": [
        {
          "internalType": "uint256",
          "name": "",
          "type": "uint256"
        }
      ],
      "stateMutability": "view",
      "type": "function",
      "constant": true
    },
    {
      "inputs": [
        {
          "internalType": "contract IERC20",
          "name": "_lpToken",
          "type": "address"
        },
        {
          "internalType": "contract IERC20",
          "name": "_baseToken",
          "type": "address"
        },
        {
          "internalType": "uint256",
          "name": "_allocPxa",
          "type": "uint256"
        }
      ],
      "name": "addContributedLiquidityPair",
      "outputs": [
        {
          "internalType": "bool",
          "name": "",
          "type": "bool"
        }
      ],
      "stateMutability": "nonpayable",
      "type": "function"
    },
    {
      "inputs": [
        {
          "internalType": "uint256",
          "name": "_pid",
          "type": "uint256"
        },
        {
          "internalType": "uint256",
          "name": "_amount",
          "type": "uint256"
        }
      ],
      "name": "addLiquidityToken",
      "outputs": [],
      "stateMutability": "nonpayable",
      "type": "function"
    },
    {
      "inputs": [],
      "name": "addLiquidityBNB",
      "outputs": [],
      "stateMutability": "payable",
      "type": "function",
      "payable": true
    },
    {
      "inputs": [
        {
          "internalType": "uint256",
          "name": "_pid",
          "type": "uint256"
        },
        {
          "internalType": "uint256",
          "name": "_ulid",
          "type": "uint256"
        }
      ],
      "name": "withdrawLiquidity",
      "outputs": [],
      "stateMutability": "nonpayable",
      "type": "function"
    },
    {
      "inputs": [],
      "name": "getStat",
      "outputs": [
        {
          "internalType": "uint256",
          "name": "",
          "type": "uint256"
        },
        {
          "internalType": "uint256",
          "name": "",
          "type": "uint256"
        },
        {
          "internalType": "uint256",
          "name": "",
          "type": "uint256"
        }
      ],
      "stateMutability": "view",
      "type": "function",
      "constant": true
    },
    {
      "inputs": [
        {
          "internalType": "uint256",
          "name": "_pid",
          "type": "uint256"
        },
        {
          "internalType": "address",
          "name": "_who",
          "type": "address"
        }
      ],
      "name": "getUserStat",
      "outputs": [
        {
          "components": [
            {
              "internalType": "uint256",
              "name": "liquidity",
              "type": "uint256"
            },
            {
              "internalType": "uint256",
              "name": "depositedBaseToken",
              "type": "uint256"
            },
            {
              "internalType": "uint256",
              "name": "contributionReceived",
              "type": "uint256"
            },
            {
              "internalType": "uint256",
              "name": "depositTime",
              "type": "uint256"
            },
            {
              "internalType": "uint256",
              "name": "unlockTime",
              "type": "uint256"
            },
            {
              "internalType": "bool",
              "name": "withdrawn",
              "type": "bool"
            }
          ],
          "internalType": "struct ProximaContributedLiquidity.UserInfo[]",
          "name": "",
          "type": "tuple[]"
        }
      ],
      "stateMutability": "view",
      "type": "function",
      "constant": true
    },
    {
      "inputs": [
        {
          "internalType": "uint256",
          "name": "_pid",
          "type": "uint256"
        }
      ],
      "name": "getPoolStat",
      "outputs": [
        {
          "components": [
            {
              "internalType": "contract IERC20",
              "name": "lpToken",
              "type": "address"
            },
            {
              "internalType": "contract IERC20",
              "name": "baseToken",
              "type": "address"
            },
            {
              "internalType": "uint256",
              "name": "allocPxa",
              "type": "uint256"
            },
            {
              "internalType": "uint256",
              "name": "contributedPxa",
              "type": "uint256"
            },
            {
              "internalType": "uint256",
              "name": "depositedBaseToken",
              "type": "uint256"
            }
          ],
          "internalType": "struct ProximaContributedLiquidity.PoolInfo",
          "name": "",
          "type": "tuple"
        }
      ],
      "stateMutability": "view",
      "type": "function",
      "constant": true
    },
    {
      "inputs": [
        {
          "internalType": "address",
          "name": "_devaddr",
          "type": "address"
        }
      ],
      "name": "dev",
      "outputs": [],
      "stateMutability": "nonpayable",
      "type": "function"
    },
    {
      "inputs": [
        {
          "internalType": "address",
          "name": "_router",
          "type": "address"
        }
      ],
      "name": "setRouter",
      "outputs": [],
      "stateMutability": "nonpayable",
      "type": "function"
    }
  ],
  "bytecode": "0x608060405262278d0060055560001960065534801561001d57600080fd5b50604051620017f3380380620017f383398101604081905261003e9161007f565b600180546001600160a01b039384166001600160a01b03199182161790915560008054929093169181169190911790915560038054909116331790556100d0565b60008060408385031215610091578182fd5b825161009c816100b8565b60208401519092506100ad816100b8565b809150509250929050565b6001600160a01b03811681146100cd57600080fd5b50565b61171380620000e06000396000f3fe6080604052600436106100dd5760003560e01c80638ce1ed201161007f578063c0d7865511610059578063c0d7865514610244578063ce509f8d14610264578063d49e77cd14610279578063f887ea401461028e576100dd565b80638ce1ed20146101d55780638d88a90e146102025780638dd9500214610222576100dd565b806341bffd0e116100bb57806341bffd0e1461015e5780634cbcccef1461018b5780637abf4272146101ad5780637ddced5a146101b5576100dd565b8063081e3eda146100e2578063101cad521461010d5780632b71b0e51461013a575b600080fd5b3480156100ee57600080fd5b506100f76102a3565b604051610104919061167a565b60405180910390f35b34801561011957600080fd5b5061012d6101283660046111d9565b6102a9565b6040516101049190611335565b34801561014657600080fd5b5061014f610361565b60405161010493929190611683565b34801561016a57600080fd5b5061017e610179366004611169565b6103fa565b60405161010491906113b9565b34801561019757600080fd5b506101ab6101a6366004611208565b6105f0565b005b6101ab610636565b3480156101c157600080fd5b506101ab6101d0366004611208565b6106ca565b3480156101e157600080fd5b506101f56101f03660046111a9565b610933565b6040516101049190611637565b34801561020e57600080fd5b506101ab61021d36600461112d565b6109a6565b34801561022e57600080fd5b506102376109f2565b604051610104919061129b565b34801561025057600080fd5b506101ab61025f36600461112d565b610a01565b34801561027057600080fd5b50610237610acb565b34801561028557600080fd5b50610237610ada565b34801561029a57600080fd5b50610237610ae9565b60075490565b60008281526008602090815260408083206001600160a01b03851684528252808320805482518185028101850190935280835260609492939192909184015b828210156103555760008481526020908190206040805160c08101825260068602909201805483526001808201548486015260028201549284019290925260038101546060840152600481015460808401526005015460ff16151560a083015290835290920191016102e8565b50505050905092915050565b600480546001546040516370a0823160e01b81526000938493849390926001600160a01b03909116916370a082319161039c9130910161129b565b60206040518083038186803b1580156103b457600080fd5b505afa1580156103c8573d6000803e3d6000fd5b505050506040513d601f19601f820116820180604052508101906103ec91906111c1565b600554925092509250909192565b6003546000906001600160a01b031633146104305760405162461bcd60e51b815260040161042790611459565b60405180910390fd5b60045461043d9083610af8565b60049081556040805160a0810182526001600160a01b0380881682528681166020830181815283850188815260006060860181815260808701828152600780546001810182559352965160059092027fa66cc928b5edb82af9bd49922954155ab7b0942694bea4ce44661d9a8736c688810180549388166001600160a01b031994851617905593517fa66cc928b5edb82af9bd49922954155ab7b0942694bea4ce44661d9a8736c68985018054918816919093161790915590517fa66cc928b5edb82af9bd49922954155ab7b0942694bea4ce44661d9a8736c68a830155517fa66cc928b5edb82af9bd49922954155ab7b0942694bea4ce44661d9a8736c68b82015592517fa66cc928b5edb82af9bd49922954155ab7b0942694bea4ce44661d9a8736c68c90930192909255600254600654935163095ea7b360e01b8152929463095ea7b394610594949290931692910161131c565b602060405180830381600087803b1580156105ae57600080fd5b505af11580156105c2573d6000803e3d6000fd5b505050506040513d601f19601f820116820180604052508101906105e69190611149565b90505b9392505050565b6106283330836007868154811061060357fe5b60009182526020909120600160059092020101546001600160a01b0316929190610b1d565b6106328282610b7b565b5050565b600034116106565760405162461bcd60e51b8152600401610427906114e4565b60008054906101000a90046001600160a01b03166001600160a01b031663d0e30db0346040518263ffffffff1660e01b81526004016000604051808303818588803b1580156106a457600080fd5b505af11580156106b8573d6000803e3d6000fd5b50505050506106c8600034610b7b565b565b60008281526008602090815260408083203384528252808320805482518185028101850190935280835260609492939192909184015b8282101561076d5760008481526020908190206040805160c08101825260068602909201805483526001808201548486015260028201549284019290925260038101546060840152600481015460808401526005015460ff16151560a08301529083529092019101610700565b50505050905060006007848154811061078257fe5b90600052602060002090600502019050815183106107b25760405162461bcd60e51b8152600401610427906114b8565b60008284815181106107c057fe5b602002602001015160000151116107e95760405162461bcd60e51b8152600401610427906113f7565b428284815181106107f657fe5b60200260200101516080015111156108205760405162461bcd60e51b8152600401610427906115c5565b81838151811061082c57fe5b602090810291909101015160a00151156108585760405162461bcd60e51b815260040161042790611514565b600084815260086020908152604080832033845290915290208054600191908590811061088157fe5b60009182526020909120600690910201600501805460ff1916911515919091179055805482516108d4916001600160a01b03169033908590879081106108c357fe5b602002602001015160000151610e72565b83336001600160a01b03167ff279e6a1f5e320cca91135676d9cb6e44ca8a08c0b88342bcdb1144f6511b56884868151811061090c57fe5b602002602001015160000151604051610925919061167a565b60405180910390a350505050565b61093b6110ec565b6007828154811061094857fe5b60009182526020918290206040805160a081018252600590930290910180546001600160a01b039081168452600182015416938301939093526002830154908201526003820154606082015260049091015460808201529050919050565b6003546001600160a01b031633146109d05760405162461bcd60e51b815260040161042790611459565b600380546001600160a01b0319166001600160a01b0392909216919091179055565b6000546001600160a01b031681565b6003546001600160a01b03163314610a2b5760405162461bcd60e51b815260040161042790611459565b600280546001600160a01b0319166001600160a01b03838116919091179182905560015460065460405163095ea7b360e01b81529183169363095ea7b393610a79939116919060040161131c565b602060405180830381600087803b158015610a9357600080fd5b505af1158015610aa7573d6000803e3d6000fd5b505050506040513d601f19601f820116820180604052508101906106329190611149565b6001546001600160a01b031681565b6003546001600160a01b031681565b6002546001600160a01b031681565b6000828201838110156105e95760405162461bcd60e51b815260040161042790611422565b610b75846323b872dd60e01b858585604051602401610b3e939291906112af565b60408051601f198184030181529190526020810180516001600160e01b03166001600160e01b031990931692909217909152610f28565b50505050565b600060078381548110610b8a57fe5b600091825260208220600254600592909202016001818101549054604051630ab7dd9360e21b815292955084936001600160a01b0390811693632adf764c93610bdd9390831692169089906004016112af565b604080518083038186803b158015610bf457600080fd5b505afa158015610c08573d6000803e3d6000fd5b505050506040513d601f19601f82011682018060405250810190610c2c9190611229565b91509150610c4b83600301548460020154610fbc90919063ffffffff16565b811115610c6a5760405162461bcd60e51b8152600401610427906115f4565b6002546001848101549054600554600093849384936001600160a01b039283169363e8e3370093928316929091169089908990829082903090610cae904290610af8565b6040518963ffffffff1660e01b8152600401610cd19897969594939291906112d3565b606060405180830381600087803b158015610ceb57600080fd5b505af1158015610cff573d6000803e3d6000fd5b505050506040513d601f19601f82011682018060405250810190610d23919061124c565b925092509250600860008981526020019081526020016000206000336001600160a01b03166001600160a01b031681526020019081526020016000206040518060c00160405280838152602001858152602001848152602001428152602001610d9760055442610af890919063ffffffff16565b81526000602091820181905283546001808201865594825290829020835160069092020190815590820151928101929092556040810151600283015560608101516003808401919091556080820151600484015560a0909101516005909201805460ff191692151592909217909155860154610e139083610af8565b60038701556004860154610e279084610af8565b6004870155604051889033907f90890809c654f11d6e72a28fa60149770a0d11ec6c92319d6ceb2bb0a4ea1a1590610e6090859061167a565b60405180910390a35050505050505050565b6040516370a0823160e01b81526000906001600160a01b038516906370a0823190610ea190309060040161129b565b60206040518083038186803b158015610eb957600080fd5b505afa158015610ecd573d6000803e3d6000fd5b505050506040513d601f19601f82011682018060405250810190610ef191906111c1565b905080821115610f1457610f0f6001600160a01b0385168483610fe4565b610b75565b610b756001600160a01b0385168484610fe4565b6060610f7d826040518060400160405280602081526020017f5361666545524332303a206c6f772d6c6576656c2063616c6c206661696c6564815250856001600160a01b03166110039092919063ffffffff16565b805190915015610fb75780806020019051810190610f9b9190611149565b610fb75760405162461bcd60e51b81526004016104279061157b565b505050565b600082821115610fde5760405162461bcd60e51b815260040161042790611481565b50900390565b610fb78363a9059cbb60e01b8484604051602401610b3e92919061131c565b60606105e6848460008585611017856110ad565b6110335760405162461bcd60e51b815260040161042790611544565b60006060866001600160a01b03168587604051611050919061127f565b60006040518083038185875af1925050503d806000811461108d576040519150601f19603f3d011682016040523d82523d6000602084013e611092565b606091505b50915091506110a28282866110b3565b979650505050505050565b3b151590565b606083156110c25750816105e9565b8251156110d25782518084602001fd5b8160405162461bcd60e51b815260040161042791906113c4565b6040518060a0016040528060006001600160a01b0316815260200160006001600160a01b031681526020016000815260200160008152602001600081525090565b60006020828403121561113e578081fd5b81356105e9816116c5565b60006020828403121561115a578081fd5b815180151581146105e9578182fd5b60008060006060848603121561117d578182fd5b8335611188816116c5565b92506020840135611198816116c5565b929592945050506040919091013590565b6000602082840312156111ba578081fd5b5035919050565b6000602082840312156111d2578081fd5b5051919050565b600080604083850312156111eb578182fd5b8235915060208301356111fd816116c5565b809150509250929050565b6000806040838503121561121a578182fd5b50508035926020909101359150565b6000806040838503121561123b578182fd5b505080516020909101519092909150565b600080600060608486031215611260578283fd5b8351925060208401519150604084015190509250925092565b15159052565b60008251611291818460208701611699565b9190910192915050565b6001600160a01b0391909116815260200190565b6001600160a01b039384168152919092166020820152604081019190915260600190565b6001600160a01b039889168152968816602088015260408701959095526060860193909352608085019190915260a084015290921660c082015260e08101919091526101000190565b6001600160a01b03929092168252602082015260400190565b602080825282518282018190526000919060409081850190868401855b828110156113ac5781518051855286810151878601528581015186860152606080820151908601526080808201519086015260a0908101519061139781870183611279565b505060c0939093019290850190600101611352565b5091979650505050505050565b901515815260200190565b60006020825282518060208401526113e3816040850160208701611699565b601f01601f19169190910160400192915050565b60208082526011908201527050434c3a204e4f5f4c495155494449545960781b604082015260600190565b6020808252601b908201527f536166654d6174683a206164646974696f6e206f766572666c6f770000000000604082015260600190565b6020808252600e908201526d2821a61d102327a92124a22222a760911b604082015260600190565b6020808252601e908201527f536166654d6174683a207375627472616374696f6e206f766572666c6f770000604082015260600190565b60208082526012908201527150434c3a204f55545f4f465f424f554e445360701b604082015260600190565b60208082526016908201527550434c3a20494e5355464649454e545f535550504c5960501b604082015260600190565b6020808252601690820152752821a61d1020a62922a0a22cafaba4aa24222920aba760511b604082015260600190565b6020808252601d908201527f416464726573733a2063616c6c20746f206e6f6e2d636f6e7472616374000000604082015260600190565b6020808252602a908201527f5361666545524332303a204552433230206f7065726174696f6e20646964206e6040820152691bdd081cdd58d8d9595960b21b606082015260800190565b60208082526015908201527450434c3a2054494d455f554e444552424f554e445360581b604082015260600190565b60208082526023908201527f50434c3a20494e53554646494349454e545f434f4e545249425554494f4e5f4c60408201526211519560ea1b606082015260800190565b81516001600160a01b0390811682526020808401519091169082015260408083015190820152606080830151908201526080918201519181019190915260a00190565b90815260200190565b9283526020830191909152604082015260600190565b60005b838110156116b457818101518382015260200161169c565b83811115610b755750506000910152565b6001600160a01b03811681146116da57600080fd5b5056fea2646970667358221220acc564a81600b6074155e358f07087e1b1b6e3ad057ffbd8f0231320e050f71264736f6c634300060c0033",
  "immutableReferences": {},
  "source": "// SPDX-License-Identifier: MIT\n\npragma solidity 0.6.12;\npragma experimental ABIEncoderV2;\n\nimport \"@openzeppelin/contracts/token/ERC20/SafeERC20.sol\";\nimport \"@openzeppelin/contracts/token/ERC20/IERC20.sol\";\nimport \"@openzeppelin/contracts/math/SafeMath.sol\";\nimport \"./interfaces/IUniswapV2Router.sol\";\nimport \"./interfaces/IWETH.sol\";\n\n/**\n * @title : ProximaContributedLiquidity\n * Developed by ProximusAlpha\n */\n\ncontract ProximaContributedLiquidity {\n    using SafeMath for uint256;\n    using SafeERC20 for IERC20;\n    /// @dev Wrpped BNB\n    IWETH public WBNB;\n    /// @dev Proxima Token\n    address public pxa;\n    /// @dev Proxima Router\n    address public router;\n    /// @dev proxima Developer\n    address public devaddr;\n    /// @dev Total Proxima Contribution\n    uint256 private totalContributedPxa;\n    /// @dev Funds locking period\n    uint256 private lockPeriod = 30 days;\n    /// @dev Max Uint Value\n    uint256 private MAX_INT =\n        0xffffffffffffffffffffffffffffffffffffffffffffffffffffffffffffffff;\n\n    /// @dev User Information struct\n    struct UserInfo {\n        uint256 liquidity;\n        uint256 depositedBaseToken;\n        uint256 contributionReceived;\n        uint256 depositTime;\n        uint256 unlockTime;\n        bool withdrawn;\n    }\n\n    /// @dev Pool Information struct\n    struct PoolInfo {\n        IERC20 lpToken;\n        IERC20 baseToken;\n        uint256 allocPxa;\n        uint256 contributedPxa;\n        uint256 depositedBaseToken;\n    }\n\n    /// @dev Pool array\n    PoolInfo[] private poolInfo;\n    /// @dev User Info mapping\n    mapping(uint256 => mapping(address => UserInfo[])) private userInfo;\n\n    /// @dev Event emitted when deposit\n    event Deposit(address indexed user, uint256 indexed pid, uint256 liquidity);\n    /// @dev Event emitted when withdraw\n    event Withdraw(\n        address indexed user,\n        uint256 indexed pid,\n        uint256 liquidity\n    );\n\n    /// @dev Sets pxa, wbnb and proxima dev address\n    constructor(address _pxa, IWETH _WBNB) public {\n        pxa = _pxa;\n        WBNB = _WBNB;\n        devaddr = msg.sender;\n    }\n\n    /// @dev Return total number of pools\n    function poolLength() external view returns (uint256) {\n        return poolInfo.length;\n    }\n\n    /// @dev Adds CL pairs, Value should be passed in wei\n    function addContributedLiquidityPair(\n        IERC20 _lpToken,\n        IERC20 _baseToken,\n        uint256 _allocPxa\n    ) external returns (bool) {\n        require(msg.sender == devaddr, \"PCL: FORBIDDEN\");\n        totalContributedPxa = totalContributedPxa.add(_allocPxa);\n        poolInfo.push(\n            PoolInfo({\n                lpToken: _lpToken,\n                baseToken: _baseToken,\n                allocPxa: _allocPxa,\n                depositedBaseToken: 0,\n                contributedPxa: 0\n            })\n        );\n        return _baseToken.approve(router, MAX_INT);\n    }\n\n    /// @dev Adds liquidity token\n    function addLiquidityToken(uint256 _pid, uint256 _amount) external {\n        poolInfo[_pid].baseToken.safeTransferFrom(\n            address(msg.sender),\n            address(this),\n            _amount\n        );\n        _addLiquidity(_pid, _amount);\n    }\n\n    /// @dev Adds liquidity BNB\n    function addLiquidityBNB() external payable {\n        require(msg.value > 0, \"PCL: INSUFFIENT_SUPPLY\");\n        WBNB.deposit{value: msg.value}();\n        _addLiquidity(0, msg.value);\n    }\n\n    function _addLiquidity(uint256 _pid, uint256 _amount) internal {\n        PoolInfo storage pool = poolInfo[_pid];\n\n        (uint256 amountA, uint256 amountB) =\n            IUniswapV2Router(router).getOptimalAmount(\n                address(pool.baseToken),\n                address(pxa),\n                _amount\n            );\n        require(\n            amountB <= pool.allocPxa.sub(pool.contributedPxa),\n            \"PCL: INSUFFICIENT_CONTRIBUTION_LEFT\"\n        );\n\n        (uint256 amount0, uint256 amount1, uint256 liquidity) =\n            IUniswapV2Router(router).addLiquidity(\n                address(pool.baseToken),\n                address(pxa),\n                amountA,\n                amountB,\n                amountA,\n                amountB,\n                address(this),\n                block.timestamp.add(lockPeriod)\n            );\n\n        userInfo[_pid][msg.sender].push(\n            UserInfo({\n                liquidity: liquidity,\n                depositedBaseToken: amount0,\n                contributionReceived: amount1,\n                depositTime: block.timestamp,\n                unlockTime: block.timestamp.add(lockPeriod),\n                withdrawn: false\n            })\n        );\n\n        pool.contributedPxa = pool.contributedPxa.add(amount1);\n        pool.depositedBaseToken = pool.depositedBaseToken.add(amount0);\n\n        emit Deposit(msg.sender, _pid, liquidity);\n    }\n\n    /// @dev Withdraw LP tokens\n    function withdrawLiquidity(uint256 _pid, uint256 _ulid) external {\n        UserInfo[] memory user = userInfo[_pid][msg.sender];\n        PoolInfo storage pool = poolInfo[_pid];\n        require(_ulid < user.length, \"PCL: OUT_OF_BOUNDS\");\n        require(user[_ulid].liquidity > 0, \"PCL: NO_LIQUIDITY\");\n        require(\n            user[_ulid].unlockTime <= block.timestamp,\n            \"PCL: TIME_UNDERBOUNDS\"\n        );\n        require(user[_ulid].withdrawn == false, \"PCL: ALREADY_WITHDRAWN\");\n\n        userInfo[_pid][msg.sender][_ulid].withdrawn = true;\n        safeLiquidityTransfer(pool.lpToken, msg.sender, user[_ulid].liquidity);\n        emit Withdraw(msg.sender, _pid, user[_ulid].liquidity);\n    }\n\n    /// @dev Safe transfer of LP\n    function safeLiquidityTransfer(\n        IERC20 _lpToken,\n        address _to,\n        uint256 _amount\n    ) internal {\n        uint256 clBal = _lpToken.balanceOf(address(this));\n        if (_amount > clBal) {\n            _lpToken.safeTransfer(_to, clBal);\n        } else {\n            _lpToken.safeTransfer(_to, _amount);\n        }\n    }\n\n    /// @dev Pure Dapp function, Returns CL state\n    function getStat()\n        external\n        view\n        returns (\n            uint256,\n            uint256,\n            uint256\n        )\n    {\n        return (\n            totalContributedPxa,\n            IERC20(pxa).balanceOf(address(this)),\n            lockPeriod\n        );\n    }\n\n    /// @dev Pure Dapp function, Returns user state\n    function getUserStat(uint256 _pid, address _who)\n        external\n        view\n        returns (UserInfo[] memory)\n    {\n        return userInfo[_pid][_who];\n    }\n\n    /// @dev Pure Dapp function, Returns pool state\n    function getPoolStat(uint256 _pid) external view returns (PoolInfo memory) {\n        return poolInfo[_pid];\n    }\n\n    /// @dev update proxima developer address\n    function dev(address _devaddr) public {\n        require(msg.sender == devaddr, \"PCL: FORBIDDEN\");\n        devaddr = _devaddr;\n    }\n\n    /// @dev Sets router and approve contributed pxa utilization\n    function setRouter(address _router) public {\n        require(msg.sender == devaddr, \"PCL: FORBIDDEN\");\n        router = _router;\n        IERC20(pxa).approve(router, MAX_INT);\n    }\n}\n",
  "sourcePath": "/home/sagar/Desktop/project-Pxa/FINAL_SRELEASE/SolarRelease-Main/Mainnet/final/smartcontracts/Proxima-periphery/contracts/ProximaContributedLiquidity.sol",
  "compiler": {
    "name": "solc",
    "version": "0.6.12+commit.27d51765.Emscripten.clang"
  },
  "schemaVersion": "3.3.2",
  "updatedAt": "2021-03-23T12:18:18.766Z",
  "networkType": "ethereum",
  "devdoc": {
    "events": {
      "Deposit(address,uint256,uint256)": {
        "details": "Event emitted when deposit"
      },
      "Withdraw(address,uint256,uint256)": {
        "details": "Event emitted when withdraw"
      }
    },
    "kind": "dev",
    "methods": {
      "addContributedLiquidityPair(address,address,uint256)": {
        "details": "Adds CL pairs, Value should be passed in wei"
      },
      "addLiquidityBNB()": {
        "details": "Adds liquidity BNB"
      },
      "addLiquidityToken(uint256,uint256)": {
        "details": "Adds liquidity token"
      },
      "constructor": {
        "details": "Sets pxa, wbnb and proxima dev address"
      },
      "dev(address)": {
        "details": "update proxima developer address"
      },
      "getPoolStat(uint256)": {
        "details": "Pure Dapp function, Returns pool state"
      },
      "getStat()": {
        "details": "Pure Dapp function, Returns CL state"
      },
      "getUserStat(uint256,address)": {
        "details": "Pure Dapp function, Returns user state"
      },
      "poolLength()": {
        "details": "Return total number of pools"
      },
      "setRouter(address)": {
        "details": "Sets router and approve contributed pxa utilization"
      },
      "withdrawLiquidity(uint256,uint256)": {
        "details": "Withdraw LP tokens"
      }
    },
    "stateVariables": {
      "MAX_INT": {
        "details": "Max Uint Value"
      },
      "WBNB": {
        "details": "Wrpped BNB"
      },
      "devaddr": {
        "details": "proxima Developer"
      },
      "lockPeriod": {
        "details": "Funds locking period"
      },
      "poolInfo": {
        "details": "Pool array"
      },
      "pxa": {
        "details": "Proxima Token"
      },
      "router": {
        "details": "Proxima Router"
      },
      "totalContributedPxa": {
        "details": "Total Proxima Contribution"
      },
      "userInfo": {
        "details": "User Info mapping"
      }
    },
    "title": ": ProximaContributedLiquidity Developed by ProximusAlpha",
    "version": 1
  },
  "userdoc": {
    "kind": "user",
    "methods": {},
    "version": 1
  }
}